{
  "contractName": "GasLimit",
  "abi": [
    {
      "inputs": [],
      "name": "blockGasLimit",
      "outputs": [
        {
          "internalType": "uint256",
          "name": "",
          "type": "uint256"
        }
      ],
      "stateMutability": "pure",
      "type": "function",
      "constant": true
    }
  ],
  "bytecode": "0x6080604052348015600f57600080fd5b5060908061001e6000396000f3fe6080604052348015600f57600080fd5b506004361060285760003560e01c80637877a79714602d575b600080fd5b60336049565b6040518082815260200191505060405180910390f35b6000806302625a009050809150509056fea26469706673582212209977df433c2ecb2b89ee77f918adbd8eba0b76fc79847a3392ab0264aedda32264736f6c63430007010033",
  "immutableReferences": {},
  "source": "pragma solidity ^0.7.1;\n\n// SPDX-License-Identifier: MIT\n\ncontract GasLimit{\n    function blockGasLimit() public pure returns (uint256){\n       uint256 gasLimit = 0x2625A00;\n       return gasLimit;\n    }\n}\n",
  "sourcePath": "/opt/shyft_mainnet/testnet/contracts/GasLimit.sol",
  "compiler": {
    "name": "solc",
    "version": "0.7.1+commit.f4a555be.Emscripten.clang"
  },
  "schemaVersion": "3.4.6",
  "updatedAt": "2022-03-23T02:22:10.840Z",
  "networkType": "ethereum",
  "devdoc": {
    "kind": "dev",
    "methods": {},
    "version": 1
  },
  "userdoc": {
    "kind": "user",
    "methods": {},
    "version": 1
  }
}