{
  "contractName": "ShyftBlockReward_July10MainnetLaunch",
  "abi": [
    {
      "inputs": [],
      "stateMutability": "nonpayable",
      "type": "constructor"
    },
    {
      "anonymous": false,
      "inputs": [
        {
          "indexed": false,
          "internalType": "address",
          "name": "_delegate",
          "type": "address"
        }
      ],
      "name": "EVT_clearedDelegateBenefactor",
      "type": "event"
    },
    {
      "anonymous": false,
      "inputs": [
        {
          "indexed": false,
          "internalType": "address",
          "name": "_benefactorAddress",
          "type": "address"
        },
        {
          "indexed": false,
          "internalType": "address",
          "name": "_coinbaseAddress",
          "type": "address"
        }
      ],
      "name": "EVT_coinbaseChanged",
      "type": "event"
    },
    {
      "anonymous": false,
      "inputs": [
        {
          "indexed": false,
          "internalType": "address",
          "name": "_benefactorAddress",
          "type": "address"
        },
        {
          "indexed": false,
          "internalType": "address",
          "name": "_delegateAddress",
          "type": "address"
        }
      ],
      "name": "EVT_delegateChanged",
      "type": "event"
    },
    {
      "anonymous": false,
      "inputs": [
        {
          "indexed": false,
          "internalType": "address",
          "name": "exContractAddress",
          "type": "address"
        },
        {
          "indexed": false,
          "internalType": "bool",
          "name": "success",
          "type": "bool"
        },
        {
          "indexed": false,
          "internalType": "bool",
          "name": "preUpdateBenefactorStepRequired",
          "type": "bool"
        },
        {
          "indexed": false,
          "internalType": "address",
          "name": "preUpdateBenefactorExContractAddress",
          "type": "address"
        },
        {
          "indexed": false,
          "internalType": "bytes",
          "name": "preUpdateBenefactorExForwardedBytes",
          "type": "bytes"
        }
      ],
      "name": "EVT_logExCall",
      "type": "event"
    },
    {
      "anonymous": false,
      "inputs": [
        {
          "indexed": false,
          "internalType": "address",
          "name": "exContractAddress",
          "type": "address"
        },
        {
          "indexed": false,
          "internalType": "address",
          "name": "updatedBenefactorAddress",
          "type": "address"
        }
      ],
      "name": "EVT_logExCallPostUpdateBenefactor",
      "type": "event"
    },
    {
      "anonymous": false,
      "inputs": [
        {
          "indexed": false,
          "internalType": "address",
          "name": "exContractAddress",
          "type": "address"
        },
        {
          "indexed": false,
          "internalType": "address",
          "name": "updatedBenefactorAddress",
          "type": "address"
        }
      ],
      "name": "EVT_logExCallPreUpdateBenefactor",
      "type": "event"
    },
    {
      "anonymous": false,
      "inputs": [
        {
          "indexed": false,
          "internalType": "bool",
          "name": "shouldUpdateBenefactor",
          "type": "bool"
        },
        {
          "indexed": false,
          "internalType": "address",
          "name": "updatedBenefactorAddress",
          "type": "address"
        }
      ],
      "name": "EVT_logExCallUpdateBenefactor",
      "type": "event"
    },
    {
      "anonymous": false,
      "inputs": [],
      "name": "EVT_removeExAdministratorPermanently",
      "type": "event"
    },
    {
      "anonymous": false,
      "inputs": [
        {
          "indexed": false,
          "internalType": "address",
          "name": "_administratorAddress",
          "type": "address"
        }
      ],
      "name": "EVT_setExAdministrator",
      "type": "event"
    },
    {
      "anonymous": false,
      "inputs": [
        {
          "indexed": false,
          "internalType": "bool",
          "name": "_exCallsEnabled",
          "type": "bool"
        }
      ],
      "name": "EVT_setExCallsEnabled",
      "type": "event"
    },
    {
      "anonymous": false,
      "inputs": [
        {
          "indexed": false,
          "internalType": "address",
          "name": "_exContractAddress",
          "type": "address"
        }
      ],
      "name": "EVT_setExContractAddress",
      "type": "event"
    },
    {
      "anonymous": false,
      "inputs": [
        {
          "indexed": false,
          "internalType": "bool",
          "name": "_exRewardsEnabled",
          "type": "bool"
        }
      ],
      "name": "EVT_setExRewardsEnabled",
      "type": "event"
    },
    {
      "inputs": [],
      "name": "administratorAddress",
      "outputs": [
        {
          "internalType": "address",
          "name": "",
          "type": "address"
        }
      ],
      "stateMutability": "view",
      "type": "function"
    },
    {
      "inputs": [],
      "name": "exCallsEnabled",
      "outputs": [
        {
          "internalType": "bool",
          "name": "",
          "type": "bool"
        }
      ],
      "stateMutability": "view",
      "type": "function"
    },
    {
      "inputs": [],
      "name": "exContractAddress",
      "outputs": [
        {
          "internalType": "address",
          "name": "",
          "type": "address"
        }
      ],
      "stateMutability": "view",
      "type": "function"
    },
    {
      "inputs": [],
      "name": "exRewardsEnabled",
      "outputs": [
        {
          "internalType": "bool",
          "name": "",
          "type": "bool"
        }
      ],
      "stateMutability": "view",
      "type": "function"
    },
    {
      "inputs": [],
      "name": "getSystemAddress",
      "outputs": [
        {
          "internalType": "address",
          "name": "result",
          "type": "address"
        }
      ],
      "stateMutability": "view",
      "type": "function"
    },
    {
      "inputs": [
        {
          "internalType": "address",
          "name": "_administratorAddress",
          "type": "address"
        }
      ],
      "name": "setExAdministrator",
      "outputs": [
        {
          "internalType": "bool",
          "name": "result",
          "type": "bool"
        }
      ],
      "stateMutability": "nonpayable",
      "type": "function"
    },
    {
      "inputs": [],
      "name": "removeExAdministratorPermanently",
      "outputs": [
        {
          "internalType": "bool",
          "name": "result",
          "type": "bool"
        }
      ],
      "stateMutability": "nonpayable",
      "type": "function"
    },
    {
      "inputs": [
        {
          "internalType": "bool",
          "name": "_exRewardsEnabled",
          "type": "bool"
        }
      ],
      "name": "setExRewardsEnabled",
      "outputs": [
        {
          "internalType": "bool",
          "name": "result",
          "type": "bool"
        }
      ],
      "stateMutability": "nonpayable",
      "type": "function"
    },
    {
      "inputs": [
        {
          "internalType": "bool",
          "name": "_exCallsEnabled",
          "type": "bool"
        }
      ],
      "name": "setExCallsEnabled",
      "outputs": [
        {
          "internalType": "bool",
          "name": "result",
          "type": "bool"
        }
      ],
      "stateMutability": "nonpayable",
      "type": "function"
    },
    {
      "inputs": [
        {
          "internalType": "address",
          "name": "_exContractAddress",
          "type": "address"
        }
      ],
      "name": "setExContractAddress",
      "outputs": [
        {
          "internalType": "bool",
          "name": "result",
          "type": "bool"
        }
      ],
      "stateMutability": "nonpayable",
      "type": "function"
    },
    {
      "inputs": [
        {
          "internalType": "bool",
          "name": "_exRewardsEnabled",
          "type": "bool"
        },
        {
          "internalType": "bool",
          "name": "_exCallsEnabled",
          "type": "bool"
        },
        {
          "internalType": "address",
          "name": "_exContractAddress",
          "type": "address"
        }
      ],
      "name": "setupExData",
      "outputs": [
        {
          "internalType": "bool",
          "name": "result",
          "type": "bool"
        }
      ],
      "stateMutability": "nonpayable",
      "type": "function"
    },
    {
      "inputs": [
        {
          "internalType": "address[]",
          "name": "benefactors",
          "type": "address[]"
        },
        {
          "internalType": "uint16[]",
          "name": "kind",
          "type": "uint16[]"
        }
      ],
      "name": "reward",
      "outputs": [
        {
          "internalType": "address[]",
          "name": "",
          "type": "address[]"
        },
        {
          "internalType": "uint256[]",
          "name": "",
          "type": "uint256[]"
        }
      ],
      "stateMutability": "nonpayable",
      "type": "function"
    },
    {
      "inputs": [],
      "name": "getExternalContractAddress",
      "outputs": [
        {
          "internalType": "address",
          "name": "result",
          "type": "address"
        }
      ],
      "stateMutability": "view",
      "type": "function"
    },
    {
      "inputs": [],
      "name": "getExternalContractReward",
      "outputs": [
        {
          "internalType": "uint256",
          "name": "result",
          "type": "uint256"
        }
      ],
      "stateMutability": "view",
      "type": "function"
    },
    {
      "inputs": [
        {
          "internalType": "address",
          "name": "_benefactorAddress",
          "type": "address"
        },
        {
          "internalType": "address",
          "name": "_delegateAddress",
          "type": "address"
        }
      ],
      "name": "setBenefactorDelegate",
      "outputs": [
        {
          "internalType": "uint256",
          "name": "result",
          "type": "uint256"
        }
      ],
      "stateMutability": "nonpayable",
      "type": "function"
    },
    {
      "inputs": [
        {
          "internalType": "address",
          "name": "_benefactorAddress",
          "type": "address"
        },
        {
          "internalType": "address",
          "name": "_coinbaseAddress",
          "type": "address"
        }
      ],
      "name": "setBenefactorCoinbase",
      "outputs": [
        {
          "internalType": "uint256",
          "name": "result",
          "type": "uint256"
        }
      ],
      "stateMutability": "nonpayable",
      "type": "function"
    },
    {
      "inputs": [
        {
          "internalType": "address",
          "name": "_benefactorAddress",
          "type": "address"
        }
      ],
      "name": "getBenefactorDelegate",
      "outputs": [
        {
          "internalType": "address",
          "name": "result",
          "type": "address"
        }
      ],
      "stateMutability": "view",
      "type": "function"
    },
    {
      "inputs": [
        {
          "internalType": "address",
          "name": "_benefactorAddress",
          "type": "address"
        }
      ],
      "name": "getBenefactorCoinbase",
      "outputs": [
        {
          "internalType": "address",
          "name": "result",
          "type": "address"
        }
      ],
      "stateMutability": "view",
      "type": "function"
    },
    {
      "inputs": [
        {
          "internalType": "address",
          "name": "_delegateAddress",
          "type": "address"
        }
      ],
      "name": "getDelegatedBenefactorAddress",
      "outputs": [
        {
          "internalType": "address",
          "name": "result",
          "type": "address"
        }
      ],
      "stateMutability": "view",
      "type": "function"
    },
    {
      "inputs": [
        {
          "internalType": "address",
          "name": "_blockSealerAddress",
          "type": "address"
        }
      ],
      "name": "getBlockSealerHistoricallyExists",
      "outputs": [
        {
          "internalType": "bool",
          "name": "result",
          "type": "bool"
        }
      ],
      "stateMutability": "view",
      "type": "function"
    },
    {
      "inputs": [],
      "name": "getHistoricalBlockSealers",
      "outputs": [
        {
          "internalType": "address[]",
          "name": "result",
          "type": "address[]"
        }
      ],
      "stateMutability": "view",
      "type": "function"
    },
    {
      "inputs": [
        {
          "internalType": "address",
          "name": "_blockSealerAddress",
          "type": "address"
        }
      ],
      "name": "getBlockSealerLastBlock",
      "outputs": [
        {
          "internalType": "uint256",
          "name": "result",
          "type": "uint256"
        }
      ],
      "stateMutability": "view",
      "type": "function"
    }
  ],
  "bytecode": "0x610100604052676780a59b73642c006080818152600060a05260c09190915267cf014b36e6c8580060e0526200003a9060019060046200008a565b5060058054600162ffff0160a01b0319169055600680546001600160a01b03191690553480156200006a57600080fd5b50600080546001600160a01b0319166002600160a01b03179055620000e4565b8260048101928215620000bb579160200282015b82811115620000bb5782518255916020019190600101906200009e565b50620000c9929150620000cd565b5090565b5b80821115620000c95760008155600101620000ce565b6115b480620000f46000396000f3fe608060405234801561001057600080fd5b50600436106101415760003560e01c80637cc9d800116100b85780638ed0f31f1161007c5780638ed0f31f14610266578063a1c173961461026e578063aa45e24514610281578063c197b9ef14610289578063f91c28981461029c578063fbc5c67f146102bd57610141565b80637cc9d80014610212578063884d18441461022557806388a5f4a7146102385780638a6f22ae1461024b5780638dd3848f1461025e57610141565b8063312bd7ed1161010a578063312bd7ed146101b45780634c5a8e76146101bc57806353734b2b146101cf57806360ff53ed146101e257806363f4a0c1146101f557806378fc840e146101fd57610141565b8062304a24146101465780630e854b9e1461016f5780631be7da871461018457806320199cce1461018c578063300fe90b146101ac575b600080fd5b610159610154366004611228565b6102d0565b6040516101669190611492565b60405180910390f35b610177610346565b6040516101669190611429565b610159610458565b61019f61019a366004611111565b610468565b60405161016691906113e2565b610159610486565b610159610496565b6101596101ca36600461128e565b610504565b6101596101dd366004611111565b61068e565b61019f6101f0366004611111565b6106ac565b61019f6106f5565b610205610704565b60405161016691906114d8565b610205610220366004611111565b61070a565b610159610233366004611111565b610725565b610159610246366004611111565b610786565b61020561025936600461112d565b6107fc565b61019f61093e565b61019f61094d565b61020561027c36600461112d565b61095c565b61019f610a28565b610159610297366004611228565b610a37565b6102af6102aa366004611165565b610a94565b60405161016692919061143c565b61019f6102cb366004611111565b611074565b6005546000906001600160a01b031633141561033d576005805460ff60b01b1916600160b01b841515021790556040517fcd701671727c05df4c7309363eb26dcd45b0664f065b8eb2e29bc7cbaee0a0aa9061032d908490611492565b60405180910390a1506001610341565b5060005b919050565b600c54606090819067ffffffffffffffff8111801561036457600080fd5b5060405190808252806020026020018201604052801561038e578160200160208202803683370190505b50905060005b600c548110156103f557600c81815481106103ab57fe5b9060005260206000200160009054906101000a90046001600160a01b03168282815181106103d557fe5b6001600160a01b0390921660209283029190910190910152600101610394565b50600c80548060200260200160405190810160405280929190818152602001828054801561044c57602002820191906000526020600020905b81546001600160a01b0316815260019091019060200180831161042e575b50505050509150505b90565b600554600160a81b900460ff1681565b6001600160a01b039081166000908152600960205260409020541690565b600554600160b01b900460ff1681565b6005546000906001600160a01b03163314156104fc57600580546001600160a01b031960ff60a01b19909116600160a01b171690556040517f86e834a86af38fbf9f1ac46f2a4af637442fc57974e8cf22d14945c373d73ba590600090a1506001610455565b506000610455565b6005546000906001600160a01b03163314156106835760405163c197b9ef60e01b8152309063c197b9ef9061053d908790600401611492565b602060405180830381600087803b15801561055757600080fd5b505af115801561056b573d6000803e3d6000fd5b505050506040513d601f19601f8201168201806040525081019061058f9190611244565b50604051620c128960e21b8152309062304a24906105b1908690600401611492565b602060405180830381600087803b1580156105cb57600080fd5b505af11580156105df573d6000803e3d6000fd5b505050506040513d601f19601f820116820180604052508101906106039190611244565b50604051632213461160e21b8152309063884d1844906106279085906004016113e2565b602060405180830381600087803b15801561064157600080fd5b505af1158015610655573d6000803e3d6000fd5b505050506040513d601f19601f820116820180604052508101906106799190611244565b5060019050610687565b5060005b9392505050565b6001600160a01b03166000908152600b602052604090205460ff1690565b6001600160a01b038181166000908152600760205260408120549091166106d4575080610341565b506001600160a01b0380821660009081526007602052604090205416610341565b6006546001600160a01b031681565b60045490565b6001600160a01b03166000908152600a602052604090205490565b6005546000906001600160a01b031633141561033d57600680546001600160a01b0319166001600160a01b0384161790556040517f068fc71d728bce68cf2f5441e607e8fff03ae3ed0535609102914228e776f4709061032d9084906113e2565b600554600090600160a01b900460ff161580156107ac57506005546001600160a01b0316155b1561033d57600580546001600160a01b0319166001600160a01b0384161790556040517ff5fc6451febe05192e3c5e43b0c1f7340f1f092cf5ab083ef53d9791206f21729061032d9084906113e2565b6001600160a01b0382811660009081526008602052604081205490911615801561082e57506001600160a01b03831633145b8061085257506001600160a01b038381166000908152600860205260409020541633145b15610934576001600160a01b0383166000908152600b602052604090205460ff1615156001141561092c576001600160a01b0382811660009081526009602052604090205416610924576001600160a01b03808416600081815260086020908152604080832080549588166001600160a01b0319968716811790915583526009909152908190208054909316909117909155517ffbd04663d74d19d79570c2c61ca063681f474b182f03b86c5ee6d3986fdcd04d9061091490859085906113f6565b60405180910390a1506003610938565b506002610938565b506001610938565b5060005b92915050565b6000546001600160a01b031690565b6006546001600160a01b031690565b6001600160a01b0382811660009081526008602052604081205490911615801561098e57506001600160a01b03831633145b806109b257506001600160a01b038381166000908152600860205260409020541633145b15610934576001600160a01b038381166000908152600760205260409081902080546001600160a01b03191692851692909217909155517f340337bb00f93362c67577420fe9ef965497cde07500d91e7f13f603dc710a5d90610a1890859085906113f6565b60405180910390a1506001610938565b6005546001600160a01b031681565b6005546000906001600160a01b031633141561033d576005805460ff60a81b1916600160a81b841515021790556040517f7cb6ca10897c2392e7cffd3e85cfea0899dcf53dfdd4ac786793d7d65479b1939061032d908490611492565b60005460609081906001600160a01b03163314610ab057600080fd5b8251845114610abe57600080fd5b6060806060600187510360031115610bc05760408051600480825260a082019092529060208201608080368337505060408051600480825260a08201909252929350905060208201608080368337505060408051600480825260a0820190925292955090506020820160808036833701905050915060005b8751811015610bba57878181518110610b4b57fe5b6020026020010151848281518110610b5f57fe5b60200260200101906001600160a01b031690816001600160a01b031681525050868181518110610b8b57fe5b6020026020010151838281518110610b9f57fe5b61ffff90921660209283029190910190910152600101610b36565b50610c0c565b865167ffffffffffffffff81118015610bd857600080fd5b50604051908082528060200260200182016040528015610c02578160200160208202803683370190505b5090508692508591505b60005b8151811015610c5d576001838281518110610c2657fe5b602002602001015161ffff1660048110610c3c57fe5b0154828281518110610c4a57fe5b6020908102919091010152600101610c0f565b50600554600160a81b900460ff16151560011415610e7c5760065483516001600160a01b039091169084906003908110610c9357fe5b6001600160a01b039290921660209283029190910190910152600554600160b01b900460ff16151560011415610e7757600654604051637e7a179b60e01b81526001600160a01b0390911690600090819081906060908590637e7a179b90610d0990839067cf014b36e6c8580090600401611410565b600060405180830381600087803b158015610d2357600080fd5b505af1158015610d37573d6000803e3d6000fd5b505050506040513d6000823e601f3d908101601f19168201604052610d5f91908101906112d8565b929650909450925090506001841515148015610d7d57506001831515145b15610e7157604051630513dad960e21b8152829060009081906001600160a01b0384169063144f6b6490610dbf90879067cf014b36e6c858009060040161149d565b6040805180830381600087803b158015610dd857600080fd5b505af1158015610dec573d6000803e3d6000fd5b505050506040513d601f19601f82011682018060405250810190610e109190611260565b909250905060018215151415610e6d57600680546001600160a01b0319166001600160a01b0383161790558a5181908c906003908110610e4c57fe5b60200260200101906001600160a01b031690816001600160a01b0316815250505b5050505b50505050505b610ec7565b600081600381518110610e8b57fe5b602002602001018181525050600083600381518110610ea657fe5b60200260200101906001600160a01b031690816001600160a01b0316815250505b600b600084600081518110610ed857fe5b6020908102919091018101516001600160a01b031682528101919091526040016000205460ff16610fa0576001600b600085600081518110610f1657fe5b60200260200101516001600160a01b03166001600160a01b0316815260200190815260200160002060006101000a81548160ff021916908315150217905550600c83600081518110610f6457fe5b60209081029190910181015182546001810184556000938452919092200180546001600160a01b0319166001600160a01b039092169190911790555b42600a600085600081518110610fb257fe5b60200260200101516001600160a01b03166001600160a01b0316815260200190815260200160002081905550600083600081518110610fed57fe5b6020908102919091018101516001600160a01b03808216600090815260079093526040909220549092501615611066576001600160a01b03808216600090815260076020526040812054865192169186919061104557fe5b60200260200101906001600160a01b031690816001600160a01b0316815250505b509196919550909350505050565b6001600160a01b039081166000908152600860205260409020541690565b600082601f8301126110a2578081fd5b81356110b56110b082611508565b6114e1565b8181529150602080830190848101818402860182018710156110d657600080fd5b6000805b8581101561110557823561ffff811681146110f3578283fd5b855293830193918301916001016110da565b50505050505092915050565b600060208284031215611122578081fd5b813561068781611558565b6000806040838503121561113f578081fd5b823561114a81611558565b9150602083013561115a81611558565b809150509250929050565b60008060408385031215611177578182fd5b823567ffffffffffffffff8082111561118e578384fd5b818501915085601f8301126111a1578384fd5b81356111af6110b082611508565b80828252602080830192508086018a8283870289010111156111cf578889fd5b8896505b848710156111fa5780356111e681611558565b8452600196909601959281019281016111d3565b509096508701359350505080821115611211578283fd5b5061121e85828601611092565b9150509250929050565b600060208284031215611239578081fd5b813561068781611570565b600060208284031215611255578081fd5b815161068781611570565b60008060408385031215611272578182fd5b825161127d81611570565b602084015190925061115a81611558565b6000806000606084860312156112a2578081fd5b83356112ad81611570565b925060208401356112bd81611570565b915060408401356112cd81611558565b809150509250925092565b600080600080608085870312156112ed578081fd5b84516112f881611570565b602086015190945061130981611570565b604086015190935061131a81611558565b606086015190925067ffffffffffffffff80821115611337578283fd5b818701915087601f83011261134a578283fd5b815181811115611358578384fd5b61136b601f8201601f19166020016114e1565b9150808252886020828501011115611381578384fd5b611392816020840160208601611528565b5094979396509194505050565b6000815180845260208085019450808401835b838110156113d75781516001600160a01b0316875295820195908201906001016113b2565b509495945050505050565b6001600160a01b0391909116815260200190565b6001600160a01b0392831681529116602082015260400190565b6001600160a01b03929092168252602082015260400190565b600060208252610687602083018461139f565b60006040825261144f604083018561139f565b828103602084810191909152845180835285820192820190845b8181101561148557845183529383019391830191600101611469565b5090979650505050505050565b901515815260200190565b60006040825283518060408401526114bc816060850160208801611528565b602083019390935250601f91909101601f191601606001919050565b90815260200190565b60405181810167ffffffffffffffff8111828210171561150057600080fd5b604052919050565b600067ffffffffffffffff82111561151e578081fd5b5060209081020190565b60005b8381101561154357818101518382015260200161152b565b83811115611552576000848401525b50505050565b6001600160a01b038116811461156d57600080fd5b50565b801515811461156d57600080fdfea264697066735822122014fa04482770096cdf14151de16777b21174a71f7b10aa32789ae7cdacd4bfe164736f6c63430007010033",
  "immutableReferences": {},
  "source": "pragma solidity ^0.7.1;\n//SPDX-License-Identifier: UNLICENSED\n\ninterface IShyftBlockRewardAdministration {\n    function getSystemAddress() external view returns (address result);\n\n    function setExAdministrator(address _administratorAddress) external returns (bool result);\n    function removeExAdministratorPermanently() external returns (bool result);\n\n    function setExRewardsEnabled(bool _exRewardsEnabled) external returns (bool result);\n    function setExCallsEnabled(bool _exCallsEnabled) external returns (bool result);\n    function setExContractAddress(address _exContractAddress) external returns (bool result);\n    function setupExData(bool _exRewardsEnabled, bool _exCallsEnabled, address _exContractAddress) external returns (bool result);\n\n    function getExternalContractAddress() external view returns (address result);\n    function getExternalContractReward() external view returns (uint result);\n\n    function setBenefactorDelegate(address _benefactorAddress, address _delegateAddress) external returns (uint result);\n    function setBenefactorCoinbase(address _benefactorAddress, address _coinbaseAddress) external returns (uint result);\n\n    function getBenefactorDelegate(address _benefactorAddress) external view returns (address result);\n    function getBenefactorCoinbase(address _benefactorAddress) external view returns (address result);\n\n    function getDelegatedBenefactorAddress(address _someAddress) external view returns (address result);\n\n    function getBlockSealerHistoricallyExists(address _blockSealerAddress) external view returns (bool result);\n    function getHistoricalBlockSealers() external view returns (address[] memory result);\n    function getBlockSealerLastBlock(address _blockSealerAddress) external view returns (uint256 result);\n}\n\npragma experimental ABIEncoderV2;\n\n\ninterface IBlockRewardUpdater {\n    function benefactorUpdateFunction(bytes memory byteCode, uint inflationAmount) external returns (bool shouldUpdateBenefactor,\n        address updatedBenefactorAddress);\n}\n\n\n\n\ninterface IBlockRewardDistributor {\n    function updateStep(address originalAddress, uint inflationAmount) external returns (bool success,\n        bool preUpdateBenefactorStepRequired,\n        address preUpdateBenefactorExContractAddress,\n        bytes memory preUpdateBenefactorExForwardedBytes);\n}\n\n\n\n\n// The block reward contract interface.\n\ninterface IBlockReward {\n    function reward(address[] memory benefactors, uint16[] memory kind)\n    external\n    returns (address[] memory, uint256[] memory);\n}\n\n//@note:@shyft:\n// based on notes from abi re: parity tech & openethereum docs\n// handles shyft inflation values & appropriate mapping for reward structures, as well as upgradability.\n\n\n\n\n\n\n\n\n\n//@note:\n// I'm using a trick in these to enable a system-wide Daemon controller, explicitly to perform non-financial actions\n// useful to the system (in this case, integrating the distribution curve. It could also be useful for performing trust\n// channel integrations).\n//\n// The main distribution contract cannot be updated by code, and it does connect to other external contracts.\n//\n// An external contract like Shyft Conterminous distribution contract's *address* can be updated by some complicated\n// machinery, by means of an explicit return & oracle contract call (can be connected to a Shyft dao). Extreme care must\n// be taken when moving these particular machines about. All parts can be made permanent (on or off) by an administrator\n// performing the changes and then removing the administration key permanently.\n\n/// @dev |\n/// | shyft inflation per month: 12,600,000\n/// | there is network security inflation (4,200,000)\n/// | there is network runtime community dao inflation (4,200,000)\n/// | there is byfrost staking pool inflation (4,200,000)\n/// |\n/// | the external reward (runtime + staking) is sent as an \"external\" to another contract which is then executed in this step.\n/// |\n/// | because there is no capability to emit events from this contract (and it's further calls), it is necessary to prepare the\n/// | external reward architecture in a way where the system bytecode has a hardcoded value of where the external contract call\n/// | is performed to.\n/// |\n/// | theoretically, this step could also be utilized to do other system calls in a daemon-like fashion, so I've added an external\n/// | interface step to allow this as well.\n/// |\n/// | there is also code so the administration of the node can be made discrete from the reward output, as in the case of an owner->financial manager, owner->technical manager hierarchical structure of ultimate node administration.\n/// @notice\n/// | this contract cannot be updated, but there are mechanisms in place to allow for the extended contract to update itself without\n/// | a requirement for administrators in the future; there are flexibility mechanisms on both sides to allow for a proper consensus on\n/// | how to treat this in a fair fashion.\n\ncontract ShyftBlockReward_July10MainnetLaunch is IBlockReward, IShyftBlockRewardAdministration {\n    /// @dev Event for clearing a Delegate's Benefactor (so that the key can be used again as a delegate).\n    event EVT_clearedDelegateBenefactor(address _delegate);\n\n    /// @dev Event for changing extended rewards processing status.\n    event EVT_setExRewardsEnabled(bool _exRewardsEnabled);\n\n    /// @dev Event for removing the extended administrator for this contract permanently (current settings are set forever).\n    event EVT_removeExAdministratorPermanently();\n\n    /// @dev Event for changing the extended administrator.\n    event EVT_setExAdministrator(address _administratorAddress);\n\n    /// @dev Event for changing the extended interface calls.\n    event EVT_setExCallsEnabled(bool _exCallsEnabled);\n\n    /// @dev Event for changing the extended interface contract address.\n    event EVT_setExContractAddress(address _exContractAddress);\n\n    /// @dev Event for changing of the Delegate for a specific Benefactor (block author/sealer).\n    event EVT_delegateChanged(address _benefactorAddress, address _delegateAddress);\n\n    /// @dev Event for changing the Coinbase for a specific Benefactor (block author/sealer).\n    event EVT_coinbaseChanged(address _benefactorAddress, address _coinbaseAddress);\n\n    /// @dev Event for logging a call event for the extended contract.\n    /// @notice | All of the logs below are *only for debug & further development purposes* - The \"system\" cannot\n    ///         | currently output event logs, but these will work fine for truffle testing purposes.\n    event EVT_logExCall(address exContractAddress,\n        bool success,\n        bool preUpdateBenefactorStepRequired,\n        address preUpdateBenefactorExContractAddress,\n        bytes preUpdateBenefactorExForwardedBytes);\n\n    /// @dev Event for logging a call event for the extended contract.\n    event EVT_logExCallUpdateBenefactor(bool shouldUpdateBenefactor, address updatedBenefactorAddress);\n\n    /// @dev Event for logging a call event for the extended contract.\n    event EVT_logExCallPreUpdateBenefactor(address exContractAddress, address updatedBenefactorAddress);\n    /// @dev Event for logging a call event for the extended contract.\n    event EVT_logExCallPostUpdateBenefactor(address exContractAddress, address updatedBenefactorAddress);\n\n    /// @dev The System address (the protocol's address).\n    address systemAddress;\n\n    //@note:@shyft:\n\n    /// @dev The runtime inflation reward.\n    uint constant runtimeInflationReward = 7.45814307 ether;\n    /// @dev The staking pool reward.\n    uint constant stakingPoolReward = 7.45814307 ether;\n\n    /// @dev The block sealer reward.\n    uint constant sealerReward = 7.45814307 ether;\n    /// @dev The empty step (block sealed but no tx) reward.\n    uint constant emptyStepReward = 7.45814307 ether;\n    /// @dev The external reward (to an external contract).\n    uint constant externalReward = runtimeInflationReward + stakingPoolReward; // for runtime & staking\n    /// @dev The uncle reward. 0 since POA Aura.\n    uint constant uncleReward = 0 ether;\n\n    /// @dev The block author (sealer) step (or \"kind\")\n    uint constant sealerRewardStep = 0;\n\n    /// @dev The external reward step (or \"kind\")\n    uint constant externalRewardStep = 3;\n\n    /// @dev The values for the specific steps (or \"kinds\") in the reward process.\n    uint[4] stepValues = [sealerReward, 0, emptyStepReward, externalReward];\n\n    /// @dev The administrator's address for any of the extended contract updates.\n    address public administratorAddress = address(0);\n    /// @dev Whether the administrator's access has been locked.\n    bool lockExAdministrator;\n\n    /// @dev Whether the extended contract's rewards are enabled (required to 'call' as well).\n    bool public exRewardsEnabled = false;\n    /// @dev Whether the extended contract's calls are enabled.\n    bool public exCallsEnabled = false;\n    /// @dev What the extended contract's address is.\n    address public exContractAddress = address(0);\n\n    /// @dev A Mapping for block author Coinbase(s), if set to anything other than the benefactor address.\n    mapping (address => address) benefactorCoinbase;\n\n    /// @dev A Mapping for block author Delegates.\n    mapping (address => address) benefactorDelegate;\n\n    /// @dev A Mapping for block author Delegates.\n    mapping (address => address) delegateOriginalBenefactor;\n\n    /// @dev A Mapping for block sealer last block sealed.\n    mapping (address => uint256) blockSealerHistoryLastBlockSealedMapping;\n\n    /// @dev A Mapping for block sealer history.\n    mapping (address => bool) blockSealerHistoryMapping;\n\n    /// @dev A Mapping for block sealer array.\n    address[] blockSealerHistoryArray;\n\n    /// @dev Modifier for the function call to only ever be able to be called by the system.\n    modifier onlySystem() {\n        require(msg.sender == systemAddress);\n        _;\n    }\n\n    // ** trust anchor primary management ** //\n\n    //@shyft:@testsuite:@INSERT_POINT_FOR_TEST_SUITE_MODS\n    /// @dev Creates the contract, inputs the system address, and creates some tables.\n    /// @notice The systemAddress *must* be set as such for the reward() function to trigger properly.\n\n    constructor()\n    {\n        systemAddress = 0xffffFFFfFFffffffffffffffFfFFFfffFFFfFFfE;\n    }\n\n    /// @dev Returns the System address\n    /// @return result the system address\n\n    function getSystemAddress() external override view returns (address result) {\n        return systemAddress;\n    }\n\n    ///@notice due to this way this contract is deployed, administrator needs to be set publicaly, which is one of the first\n    // tx into the system. as only administrators have this pre-defined gas in the distribution contract,\n    // this is acceptable security provisioning.\n\n    /// @param _administratorAddress The new Administrator address for the extended functions.\n    /// @dev | Sets the Administrator address for the extended functions:\n    ///      | i. remove: removal of administrator access permanently.\n    ///      | ii. rewards: set whether rewards should be given to the extended contract\n    ///      | iii. calls: set whether an extended call sequence should be given to the extended contract\n    ///      | iii. the smart contract address of the extended contract to distribute to\n    /// @return result\n    ///    | true = administrator set\n    ///    | false = administrator already set\n\n    function setExAdministrator(address _administratorAddress) external override returns (bool result) {\n        if (lockExAdministrator == false && administratorAddress == address(0)) {\n            administratorAddress = _administratorAddress;\n\n            emit EVT_setExAdministrator(_administratorAddress);\n\n            //administrator set\n            return true;\n        } else {\n            //administrator already set\n            return false;\n        }\n    }\n\n    /// @dev Removes of administrator access permanently.\n    /// @return result\n    ///    | true = administrator permanently removed\n    ///    | false = not administrator\n    function removeExAdministratorPermanently() external override returns (bool result) {\n        if (msg.sender == administratorAddress) {\n            lockExAdministrator = true;\n            administratorAddress = address(0);\n\n            emit EVT_removeExAdministratorPermanently();\n\n            //administrator permanently removed\n            return true;\n        } else {\n            //not administrator\n            return false;\n        }\n    }\n\n    /// @param _exRewardsEnabled Whether the extended contract rewards should be enabled.\n    /// @dev Sets whether rewards should be given to the extended contract (block rewards)\n    /// @return result\n    ///    | true = ex rewards set\n    ///    | false = not administrator\n\n    function setExRewardsEnabled(bool _exRewardsEnabled) external override returns (bool result) {\n        if (msg.sender == administratorAddress) {\n            exRewardsEnabled = _exRewardsEnabled;\n\n            emit EVT_setExRewardsEnabled(_exRewardsEnabled);\n\n            //ex rewards set\n            return true;\n        } else {\n            //not administrator\n            return false;\n        }\n    }\n\n    /// @param _exCallsEnabled Whether an extended call sequence should be given to the extended contract.\n    /// @dev | Sets whether an extended call sequence should be given to the extended contract. These calls are\n    ///      | explicitly called by the system itself, which currently does *not* propagate any events to the system.\n    /// @notice | Enabling these calls without proper audit and due diligence can result in the entire block reward contract\n    ///         | being disabled, so measures exist to halt this within this contract (if not explicitly disabled), set up a new receiver contract connection, and then re-enabled system features.\n    /// @return result\n    ///    | true = ex calls set\n    ///    | false = not administrator\n\n    function setExCallsEnabled(bool _exCallsEnabled) external override returns (bool result) {\n        if (msg.sender == administratorAddress) {\n            exCallsEnabled = _exCallsEnabled;\n\n            emit EVT_setExCallsEnabled(_exCallsEnabled);\n\n            //ex calls set\n            return true;\n        } else {\n            //not administrator\n            return false;\n        }\n    }\n\n    /// @param _exContractAddress The new extended contract address for block rewards & potential calls (if enabled)\n    /// @dev Sets the smart contract address of the extended contract to distribute to\n    /// @return result\n    ///    | true = ex contract address set\n    ///    | false = not administrator\n\n    function setExContractAddress(address _exContractAddress) external override returns (bool result) {\n        if (msg.sender == administratorAddress) {\n            exContractAddress = _exContractAddress;\n\n            emit EVT_setExContractAddress(_exContractAddress);\n\n            //ex contract address set\n            return true;\n        } else {\n            //not administrator\n            return false;\n        }\n    }\n\n    /// @param _exRewardsEnabled Whether the extended contract rewards should be enabled.\n    /// @param _exCallsEnabled Whether an extended call sequence should be given to the extended contract.\n    /// @param _exContractAddress The new extended contract address for block rewards & potential calls (if enabled)\n    /// @dev Sets the extended contract data with rewards & call functionality, and the receiver contract address.\n    /// @return result\n    ///    | true = setup ex data successfully\n    ///    | false = not administrator\n\n    /// @notice this function primarily exists to perform all action in a single step.\n    function setupExData(bool _exRewardsEnabled, bool _exCallsEnabled, address _exContractAddress) external override returns (bool result) {\n        if (msg.sender == administratorAddress) {\n            this.setExRewardsEnabled(_exRewardsEnabled);\n            this.setExCallsEnabled(_exCallsEnabled);\n            this.setExContractAddress(_exContractAddress);\n\n            //setup ex data successfully\n            return true;\n        } else {\n            //not administrator\n            return false;\n        }\n\n    }\n\n    /// @param benefactors The benefactor addresses that the system is providing\n    /// @param kind The kind of addresses that the system is providing (block sealers, empty block sealers, extended contracts, and uncles.\n    /// @dev | produce rewards for the given benefactors, with corresponding reward codes. Only callable by the System address.\n    /// | this external reward contract call then returns a set of instructions that may require a secondary step\n    /// | as a concrete example:\n    //\n    /// | 1. contract is created at launch via bytecode representation\n    //\n    /// |2. contract has a call (from an admin at start that has shyft gas immediately) that sets up:\n    /// |    a. whether there's a reward currently\n    /// |    b. where that reward is directed to\n    /// |    c. whether there are external calls performed to that address that fit a specific function signature\n    /// |\n    /// | 3. contract performs a distribution (called by System), and if set up to do so:\n    /// |    a. calls external reward contract\n    /// |    b. receives a requirement for a secondary call to another function signature & address w/ data bytes\n    /// |    c. if required, calls that other address with that function signature & data bytes\n    /// |    d. if that secondary contract returns that there needs to be a beneficiary update, it does so.\n    /// |\n    /// |\n    /// | in the end, for the next step that updated external reward contract is changed if all of these steps are\n    /// | required & performed.\n    //\n    /// @notice\n    /// | the administrator can also purposefully make it such that the settings of whether there are external\n    /// | block rewards and/or updates to the external contract address, cannot be further modified by the administrator\n    /// | (total removal of capability/responsibility for managing this contract)\n\n    function reward(address[] memory benefactors, uint16[] memory kind)\n    external\n    override\n    onlySystem\n    returns (address[] memory, uint256[] memory)\n    {\n        require(benefactors.length == kind.length);\n\n        address[] memory benefactorList;\n        uint16[] memory kindList;\n\n        uint256[] memory rewardTable;\n\n        if (externalRewardStep > benefactors.length - 1) {\n            rewardTable = new uint256[](externalRewardStep + 1);\n            benefactorList = new address[](externalRewardStep + 1);\n            kindList = new uint16[](externalRewardStep + 1);\n\n            for (uint i = 0; i < benefactors.length; i++) {\n                benefactorList[i] = benefactors[i];\n                kindList[i] = kind[i];\n            }\n        } else {\n            rewardTable = new uint256[](benefactors.length);\n            benefactorList = benefactors;\n            kindList = kind;\n        }\n\n        for (uint i = 0; i < rewardTable.length; i++) {\n            rewardTable[i] = stepValues[kindList[i]];\n        }\n\n        if (exRewardsEnabled == true) {\n            benefactorList[externalRewardStep] = exContractAddress;\n\n            if (exCallsEnabled == true) {\n                //get the contract address from the rules storage, this is all that is needed to perform the next step\n                // address exDataContractAddress = address(uint160(uint256(trustChannelManager.getTrustChannelRulesStorage(_trustChannelIndex, uint8(trustChannelRulesEnum.ExternalRoutingContractEnforced), 0))));\n\n                IBlockRewardDistributor blockRewardDistributor = IBlockRewardDistributor(exContractAddress);\n\n                bool success;\n                bool preUpdateBenefactorStepRequired;\n                address preUpdateBenefactorExContractAddress;\n                bytes memory preUpdateBenefactorExForwardedBytes;\n\n                ( success,\n                preUpdateBenefactorStepRequired,\n                preUpdateBenefactorExContractAddress,\n                preUpdateBenefactorExForwardedBytes) = blockRewardDistributor.updateStep(exContractAddress, externalReward);\n\n                //                emit EVT_logExCall( exContractAddress,\n                //                                    success,\n                //                                    preUpdateBenefactorStepRequired,\n                //                                    preUpdateBenefactorExContractAddress,\n                //                                    preUpdateBenefactorExForwardedBytes);\n\n                //@note: a simple example of how to read this packed data:\n                //                (address exampleAddress, bytes1 exampleBytes1) = abi.decode(preUpdateBenefactorExForwardedBytes, (address, bytes1));\n\n                if (success == true && preUpdateBenefactorStepRequired == true) {\n\n                    IBlockRewardUpdater blockRewardUpdater = IBlockRewardUpdater(preUpdateBenefactorExContractAddress);\n\n                    bool shouldUpdateBenefactor;\n                    address updatedBenefactorAddress;\n\n                    (shouldUpdateBenefactor, updatedBenefactorAddress) = blockRewardUpdater.benefactorUpdateFunction(preUpdateBenefactorExForwardedBytes, externalReward);\n\n                    //                    emit EVT_logExCallUpdateBenefactor(shouldUpdateBenefactor, updatedBenefactorAddress);\n\n                    if (shouldUpdateBenefactor == true) {\n                        //                        emit EVT_logExCallPreUpdateBenefactor(exContractAddress, updatedBenefactorAddress);\n\n                        exContractAddress = updatedBenefactorAddress;\n                        benefactorList[externalRewardStep] = updatedBenefactorAddress;\n\n                        //                        emit EVT_logExCallPostUpdateBenefactor(exContractAddress, updatedBenefactorAddress);\n                    }\n                }\n            }\n        } else {\n            rewardTable[externalRewardStep] = 0;\n            benefactorList[externalRewardStep] = address(0);\n        }\n\n        // updates the history of all block sealers.\n        if (blockSealerHistoryMapping[benefactorList[sealerRewardStep]] == false) {\n            blockSealerHistoryMapping[benefactorList[sealerRewardStep]] = true;\n            blockSealerHistoryArray.push(benefactorList[sealerRewardStep]);\n        }\n\n        // updates the timestamp for this sealer.\n        blockSealerHistoryLastBlockSealedMapping[benefactorList[sealerRewardStep]] = block.timestamp;\n\n        // check for a different output (coinbase) address for the block author, as set re: benefactor delegates & associated setup.\n        address blockAuthorAddress = benefactorList[sealerRewardStep];\n        if (benefactorCoinbase[blockAuthorAddress] != address(0)) {\n            benefactorList[sealerRewardStep] = benefactorCoinbase[blockAuthorAddress];\n        }\n\n        return (benefactorList, rewardTable);\n    }\n\n    /// @dev Returns the extended contract address.\n    /// @return result extended contract address\n\n    function getExternalContractAddress() external override view returns (address result) {\n        return exContractAddress;\n    }\n\n    /// @dev Returns the extended rewards set within this block reward contract.\n    /// @return result extended rewards set within this block reward contract\n\n    function getExternalContractReward() external override view returns (uint result) {\n        return stepValues[externalRewardStep];\n    }\n\n    /// @param _benefactorAddress The benefactor addresses that will be consistently referenced (the administration key of the block author/sealer).\n    /// @param _delegateAddress The Delegate address that will now determine on-chain administrative concerns (setting a benefactor's Coinbase, etc.)\n    /// @dev Sets the Benefactor's Delegate (administration proxy). This is initially set by the benefactor's keys, and allows the delegate control over the Coinbase (reward) address for this benefactor (block sealer).\n    /// @return result\n    ///    | 3 = set benefactor's delegate\n    ///    | 2 = delegate is already assigned to a benefactor\n    ///    | 1 = benefactor not recognized as a sealer, so no action taken.\n    ///    | 0 = message sender not able to set benefactor's coinbase\n\n    function setBenefactorDelegate(address _benefactorAddress, address _delegateAddress) external override returns (uint result) {\n        // make sure that the either the benefactor delegate for this benefactor has not been set *and* the benefactor is\n        // the message sender, *or* that the benefactor's delegate does exist that the benefactor's current delegate is\n        // the message sender (indicating the current delegate wants to rotate their keys).\n        if ((benefactorDelegate[_benefactorAddress] == address(0) && _benefactorAddress == msg.sender) ||\n            benefactorDelegate[_benefactorAddress] == msg.sender) {\n\n            // only recognize relationship update if the benefactor is recognized on-chain as having historically sealed\n            // at least one block (chain re-orgs can make life slightly more difficult, and this relationship becomes\n            // hazy at extremely high numbers of nodes, but performs well with a low-moderate node count).\n\n            if (blockSealerHistoryMapping[_benefactorAddress] == true) {\n                // check to see whether this delegate is already assigned to another address\n                if (delegateOriginalBenefactor[_delegateAddress] == address(0)) {\n                    //set the benefactor's delegate to the target address.\n                    benefactorDelegate[_benefactorAddress] = _delegateAddress;\n                    // set a reverse lookup as well to be able to retrieve the original benefactor address.\n                    delegateOriginalBenefactor[_delegateAddress] = _benefactorAddress;\n\n                    emit EVT_delegateChanged(_benefactorAddress, _delegateAddress);\n                    // set benefactor's delegate\n                    return 3;\n                } else {\n                    // delegate is already assigned to a benefactor\n                    return 2;\n                }\n            } else {\n                // benefactor not recognized as a sealer, so no action taken.\n                return 1;\n            }\n        } else {\n            // message sender not able to delegate benefactor\n            return 0;\n        }\n    }\n\n    /// @param _benefactorAddress The benefactor addresses that will be consistently referenced (the administration key of the block author/sealer).\n    /// @param _coinbaseAddress The Coinbase (reward destination) address from Shyft tokens from the inflation, as equivalent barter payment for node services ex. uptime.\n    /// @dev Sets the Benefactor's Coinbase (reward destination). This is either set by the benefactor (block author) initially, or by the benefactor's administration delegate.\n    /// @return result\n    ///    | 1 = set benefactor's coinbase\n    ///    | 0 = message sender not able to set benefactor's coinbase\n\n    function setBenefactorCoinbase(address _benefactorAddress, address _coinbaseAddress) external override returns (uint result) {\n        if ((benefactorDelegate[_benefactorAddress] == address(0) && _benefactorAddress == msg.sender) ||\n            benefactorDelegate[_benefactorAddress] == msg.sender) {\n            benefactorCoinbase[_benefactorAddress] = _coinbaseAddress;\n\n            emit EVT_coinbaseChanged(_benefactorAddress, _coinbaseAddress);\n            // set benefactor's coinbase\n            return 1;\n        } else {\n            // message sender not able to set benefactor's coinbase\n            return 0;\n        }\n    }\n\n    /// @param _benefactorAddress The benefactor addresses that will be consistently referenced (the administration key of the block author/sealer).\n    /// @dev Gets the Benefactor's Delegate (administration proxy).\n    /// @return result the benefactor's delegate.\n\n    function getBenefactorDelegate(address _benefactorAddress) external override view returns (address result) {\n        return benefactorDelegate[_benefactorAddress];\n    }\n\n    /// @param _benefactorAddress The benefactor addresses that will be consistently referenced (the administration key of the block author/sealer).\n    /// @dev Gets the Benefactor's Coinbase (administration proxy).\n    /// @return result the benefactor's coinbase\n\n    function getBenefactorCoinbase(address _benefactorAddress) external override view returns (address result) {\n        if (benefactorCoinbase[_benefactorAddress] == address(0)) {\n            return _benefactorAddress;\n        } else {\n            return benefactorCoinbase[_benefactorAddress];\n        }\n    }\n\n    /// @param _delegateAddress The delegate addresses.\n    /// @dev Gets the Delegate's original Benefactor address.\n    /// @return result the delegate's original benefactor address.\n\n    function getDelegatedBenefactorAddress(address _delegateAddress) external view override returns (address result) {\n        return delegateOriginalBenefactor[_delegateAddress];\n    }\n\n    /// @param _blockSealerAddress The block sealer's address.\n    /// @dev Gets whether a specific block Sealer has ever sealed a block.\n    /// @return result whether the block sealer has ever sealed a block\n\n    function getBlockSealerHistoricallyExists(address _blockSealerAddress) external view override returns (bool result) {\n        return blockSealerHistoryMapping[_blockSealerAddress];\n    }\n\n    /// @dev Gets all of the block sealers that have sealed blocks on the blockchain network.\n    /// @return result all of the block sealers that have sealed blocks on the blockchain network.\n\n    function getHistoricalBlockSealers() external view override returns (address[] memory result) {\n        address[] memory blockSealers = new address[](blockSealerHistoryArray.length);\n\n        for (uint i = 0; i < blockSealerHistoryArray.length; i++) {\n            blockSealers[i] = blockSealerHistoryArray[i];\n        }\n\n        return blockSealerHistoryArray;\n    }\n\n    /// @param _blockSealerAddress The block sealer's address.\n    /// @dev Gets the last time a specific block Sealer has sealed a block.\n    /// @return result the last time the block sealer has ever sealed a block\n\n    function getBlockSealerLastBlock(address _blockSealerAddress) external view override returns (uint256 result) {\n        return blockSealerHistoryLastBlockSealedMapping[_blockSealerAddress];\n    }\n}\n\n\n\n\n",
  "sourcePath": "/Users/fieldempress/Desktop/source/shyft/shyft_shyftcorecontracts/contracts/Reference/ShyftBlockReward_July10MainnetLaunch.sol",
  "compiler": {
    "name": "solc",
    "version": "0.7.1+commit.f4a555be.Linux.g++"
  },
  "schemaVersion": "3.4.3",
  "updatedAt": "2021-10-07T20:04:13.793Z",
  "devdoc": {
    "details": "| | shyft inflation per month: 12,600,000 | there is network security inflation (4,200,000) | there is network runtime community dao inflation (4,200,000) | there is byfrost staking pool inflation (4,200,000) | | the external reward (runtime + staking) is sent as an \"external\" to another contract which is then executed in this step. | | because there is no capability to emit events from this contract (and it's further calls), it is necessary to prepare the | external reward architecture in a way where the system bytecode has a hardcoded value of where the external contract call | is performed to. | | theoretically, this step could also be utilized to do other system calls in a daemon-like fashion, so I've added an external | interface step to allow this as well. | | there is also code so the administration of the node can be made discrete from the reward output, as in the case of an owner->financial manager, owner->technical manager hierarchical structure of ultimate node administration.",
    "events": {
      "EVT_clearedDelegateBenefactor(address)": {
        "details": "Event for clearing a Delegate's Benefactor (so that the key can be used again as a delegate)."
      },
      "EVT_coinbaseChanged(address,address)": {
        "details": "Event for changing the Coinbase for a specific Benefactor (block author/sealer)."
      },
      "EVT_delegateChanged(address,address)": {
        "details": "Event for changing of the Delegate for a specific Benefactor (block author/sealer)."
      },
      "EVT_logExCall(address,bool,bool,address,bytes)": {
        "details": "Event for logging a call event for the extended contract."
      },
      "EVT_logExCallPostUpdateBenefactor(address,address)": {
        "details": "Event for logging a call event for the extended contract."
      },
      "EVT_logExCallPreUpdateBenefactor(address,address)": {
        "details": "Event for logging a call event for the extended contract."
      },
      "EVT_logExCallUpdateBenefactor(bool,address)": {
        "details": "Event for logging a call event for the extended contract."
      },
      "EVT_removeExAdministratorPermanently()": {
        "details": "Event for removing the extended administrator for this contract permanently (current settings are set forever)."
      },
      "EVT_setExAdministrator(address)": {
        "details": "Event for changing the extended administrator."
      },
      "EVT_setExCallsEnabled(bool)": {
        "details": "Event for changing the extended interface calls."
      },
      "EVT_setExContractAddress(address)": {
        "details": "Event for changing the extended interface contract address."
      },
      "EVT_setExRewardsEnabled(bool)": {
        "details": "Event for changing extended rewards processing status."
      }
    },
    "kind": "dev",
    "methods": {
      "constructor": {
        "details": "Creates the contract, inputs the system address, and creates some tables."
      },
      "getBenefactorCoinbase(address)": {
        "details": "Gets the Benefactor's Coinbase (administration proxy).",
        "params": {
          "_benefactorAddress": "The benefactor addresses that will be consistently referenced (the administration key of the block author/sealer)."
        },
        "returns": {
          "result": "the benefactor's coinbase"
        }
      },
      "getBenefactorDelegate(address)": {
        "details": "Gets the Benefactor's Delegate (administration proxy).",
        "params": {
          "_benefactorAddress": "The benefactor addresses that will be consistently referenced (the administration key of the block author/sealer)."
        },
        "returns": {
          "result": "the benefactor's delegate."
        }
      },
      "getBlockSealerHistoricallyExists(address)": {
        "details": "Gets whether a specific block Sealer has ever sealed a block.",
        "params": {
          "_blockSealerAddress": "The block sealer's address."
        },
        "returns": {
          "result": "whether the block sealer has ever sealed a block"
        }
      },
      "getBlockSealerLastBlock(address)": {
        "details": "Gets the last time a specific block Sealer has sealed a block.",
        "params": {
          "_blockSealerAddress": "The block sealer's address."
        },
        "returns": {
          "result": "the last time the block sealer has ever sealed a block"
        }
      },
      "getDelegatedBenefactorAddress(address)": {
        "details": "Gets the Delegate's original Benefactor address.",
        "params": {
          "_delegateAddress": "The delegate addresses."
        },
        "returns": {
          "result": "the delegate's original benefactor address."
        }
      },
      "getExternalContractAddress()": {
        "details": "Returns the extended contract address.",
        "returns": {
          "result": "extended contract address"
        }
      },
      "getExternalContractReward()": {
        "details": "Returns the extended rewards set within this block reward contract.",
        "returns": {
          "result": "extended rewards set within this block reward contract"
        }
      },
      "getHistoricalBlockSealers()": {
        "details": "Gets all of the block sealers that have sealed blocks on the blockchain network.",
        "returns": {
          "result": "all of the block sealers that have sealed blocks on the blockchain network."
        }
      },
      "getSystemAddress()": {
        "details": "Returns the System address",
        "returns": {
          "result": "the system address"
        }
      },
      "removeExAdministratorPermanently()": {
        "details": "Removes of administrator access permanently.",
        "returns": {
          "result": "   | true = administrator permanently removed    | false = not administrator"
        }
      },
      "setBenefactorCoinbase(address,address)": {
        "details": "Sets the Benefactor's Coinbase (reward destination). This is either set by the benefactor (block author) initially, or by the benefactor's administration delegate.",
        "params": {
          "_benefactorAddress": "The benefactor addresses that will be consistently referenced (the administration key of the block author/sealer).",
          "_coinbaseAddress": "The Coinbase (reward destination) address from Shyft tokens from the inflation, as equivalent barter payment for node services ex. uptime."
        },
        "returns": {
          "result": "   | 1 = set benefactor's coinbase    | 0 = message sender not able to set benefactor's coinbase"
        }
      },
      "setBenefactorDelegate(address,address)": {
        "details": "Sets the Benefactor's Delegate (administration proxy). This is initially set by the benefactor's keys, and allows the delegate control over the Coinbase (reward) address for this benefactor (block sealer).",
        "params": {
          "_benefactorAddress": "The benefactor addresses that will be consistently referenced (the administration key of the block author/sealer).",
          "_delegateAddress": "The Delegate address that will now determine on-chain administrative concerns (setting a benefactor's Coinbase, etc.)"
        },
        "returns": {
          "result": "   | 3 = set benefactor's delegate    | 2 = delegate is already assigned to a benefactor    | 1 = benefactor not recognized as a sealer, so no action taken.    | 0 = message sender not able to set benefactor's coinbase"
        }
      },
      "setExAdministrator(address)": {
        "details": "| Sets the Administrator address for the extended functions:      | i. remove: removal of administrator access permanently.      | ii. rewards: set whether rewards should be given to the extended contract      | iii. calls: set whether an extended call sequence should be given to the extended contract      | iii. the smart contract address of the extended contract to distribute to",
        "params": {
          "_administratorAddress": "The new Administrator address for the extended functions."
        },
        "returns": {
          "result": "   | true = administrator set    | false = administrator already set"
        }
      },
      "setExCallsEnabled(bool)": {
        "details": "| Sets whether an extended call sequence should be given to the extended contract. These calls are      | explicitly called by the system itself, which currently does *not* propagate any events to the system.",
        "params": {
          "_exCallsEnabled": "Whether an extended call sequence should be given to the extended contract."
        },
        "returns": {
          "result": "   | true = ex calls set    | false = not administrator"
        }
      },
      "setExContractAddress(address)": {
        "details": "Sets the smart contract address of the extended contract to distribute to",
        "params": {
          "_exContractAddress": "The new extended contract address for block rewards & potential calls (if enabled)"
        },
        "returns": {
          "result": "   | true = ex contract address set    | false = not administrator"
        }
      },
      "setExRewardsEnabled(bool)": {
        "details": "Sets whether rewards should be given to the extended contract (block rewards)",
        "params": {
          "_exRewardsEnabled": "Whether the extended contract rewards should be enabled."
        },
        "returns": {
          "result": "   | true = ex rewards set    | false = not administrator"
        }
      }
    },
    "stateVariables": {
      "administratorAddress": {
        "details": "The administrator's address for any of the extended contract updates."
      },
      "benefactorCoinbase": {
        "details": "A Mapping for block author Coinbase(s), if set to anything other than the benefactor address."
      },
      "benefactorDelegate": {
        "details": "A Mapping for block author Delegates."
      },
      "blockSealerHistoryArray": {
        "details": "A Mapping for block sealer array."
      },
      "blockSealerHistoryLastBlockSealedMapping": {
        "details": "A Mapping for block sealer last block sealed."
      },
      "blockSealerHistoryMapping": {
        "details": "A Mapping for block sealer history."
      },
      "delegateOriginalBenefactor": {
        "details": "A Mapping for block author Delegates."
      },
      "emptyStepReward": {
        "details": "The empty step (block sealed but no tx) reward."
      },
      "exCallsEnabled": {
        "details": "Whether the extended contract's calls are enabled."
      },
      "exContractAddress": {
        "details": "What the extended contract's address is."
      },
      "exRewardsEnabled": {
        "details": "Whether the extended contract's rewards are enabled (required to 'call' as well)."
      },
      "externalReward": {
        "details": "The external reward (to an external contract)."
      },
      "externalRewardStep": {
        "details": "The external reward step (or \"kind\")"
      },
      "lockExAdministrator": {
        "details": "Whether the administrator's access has been locked."
      },
      "runtimeInflationReward": {
        "details": "The runtime inflation reward."
      },
      "sealerReward": {
        "details": "The block sealer reward."
      },
      "sealerRewardStep": {
        "details": "The block author (sealer) step (or \"kind\")"
      },
      "stakingPoolReward": {
        "details": "The staking pool reward."
      },
      "stepValues": {
        "details": "The values for the specific steps (or \"kinds\") in the reward process."
      },
      "systemAddress": {
        "details": "The System address (the protocol's address)."
      },
      "uncleReward": {
        "details": "The uncle reward. 0 since POA Aura."
      }
    },
    "version": 1
  },
  "userdoc": {
    "events": {
      "EVT_logExCall(address,bool,bool,address,bytes)": {
        "notice": "| All of the logs below are *only for debug & further development purposes* - The \"system\" cannot         | currently output event logs, but these will work fine for truffle testing purposes."
      }
    },
    "kind": "user",
    "methods": {
      "constructor": {
        "notice": "The systemAddress *must* be set as such for the reward() function to trigger properly."
      },
      "reward(address[],uint16[])": {
        "notice": "| the administrator can also purposefully make it such that the settings of whether there are external | block rewards and/or updates to the external contract address, cannot be further modified by the administrator | (total removal of capability/responsibility for managing this contract)"
      },
      "setExCallsEnabled(bool)": {
        "notice": "| Enabling these calls without proper audit and due diligence can result in the entire block reward contract         | being disabled, so measures exist to halt this within this contract (if not explicitly disabled), set up a new receiver contract connection, and then re-enabled system features."
      },
      "setupExData(bool,bool,address)": {
        "notice": "this function primarily exists to perform all action in a single step."
      }
    },
    "notice": "| this contract cannot be updated, but there are mechanisms in place to allow for the extended contract to update itself without | a requirement for administrators in the future; there are flexibility mechanisms on both sides to allow for a proper consensus on | how to treat this in a fair fashion.",
    "version": 1
  }
}