{
  "contractName": "ShyftKycContract_March26EthLaunch",
  "abi": [
    {
      "inputs": [
        {
          "internalType": "uint256",
          "name": "_nativeBip32X_type",
          "type": "uint256"
        }
      ],
      "stateMutability": "nonpayable",
      "type": "constructor"
    },
    {
      "anonymous": false,
      "inputs": [
        {
          "indexed": true,
          "internalType": "address",
          "name": "tokenOwner",
          "type": "address"
        },
        {
          "indexed": true,
          "internalType": "address",
          "name": "spender",
          "type": "address"
        },
        {
          "indexed": false,
          "internalType": "uint256",
          "name": "tokens",
          "type": "uint256"
        }
      ],
      "name": "Approval",
      "type": "event"
    },
    {
      "anonymous": false,
      "inputs": [
        {
          "indexed": false,
          "internalType": "address",
          "name": "msgSender",
          "type": "address"
        },
        {
          "indexed": false,
          "internalType": "address",
          "name": "_from",
          "type": "address"
        },
        {
          "indexed": false,
          "internalType": "uint256",
          "name": "value",
          "type": "uint256"
        },
        {
          "indexed": false,
          "internalType": "uint256",
          "name": "nativeTokenType",
          "type": "uint256"
        },
        {
          "indexed": false,
          "internalType": "uint256",
          "name": "bip32X_type",
          "type": "uint256"
        }
      ],
      "name": "EVT_Bip32X_TypeTokenFallback",
      "type": "event"
    },
    {
      "anonymous": false,
      "inputs": [
        {
          "indexed": false,
          "internalType": "address",
          "name": "_from",
          "type": "address"
        },
        {
          "indexed": false,
          "internalType": "uint256",
          "name": "_value",
          "type": "uint256"
        },
        {
          "indexed": false,
          "internalType": "bytes",
          "name": "_data",
          "type": "bytes"
        }
      ],
      "name": "EVT_Erc223TokenFallback",
      "type": "event"
    },
    {
      "anonymous": false,
      "inputs": [
        {
          "indexed": false,
          "internalType": "address",
          "name": "contractAddress",
          "type": "address"
        },
        {
          "indexed": false,
          "internalType": "address",
          "name": "msgSender",
          "type": "address"
        },
        {
          "indexed": false,
          "internalType": "address",
          "name": "to",
          "type": "address"
        },
        {
          "indexed": false,
          "internalType": "uint256",
          "name": "value",
          "type": "uint256"
        },
        {
          "indexed": false,
          "internalType": "uint256",
          "name": "bip32X_type",
          "type": "uint256"
        }
      ],
      "name": "EVT_TransferAndBurnBip32X_type",
      "type": "event"
    },
    {
      "anonymous": false,
      "inputs": [
        {
          "indexed": false,
          "internalType": "address",
          "name": "contractAddress",
          "type": "address"
        },
        {
          "indexed": false,
          "internalType": "address",
          "name": "msgSender",
          "type": "address"
        },
        {
          "indexed": false,
          "internalType": "uint256",
          "name": "value",
          "type": "uint256"
        },
        {
          "indexed": false,
          "internalType": "uint256",
          "name": "bip32X_type",
          "type": "uint256"
        }
      ],
      "name": "EVT_TransferAndMintBip32X_type",
      "type": "event"
    },
    {
      "anonymous": false,
      "inputs": [
        {
          "indexed": false,
          "internalType": "address",
          "name": "msgSender",
          "type": "address"
        },
        {
          "indexed": false,
          "internalType": "address",
          "name": "to",
          "type": "address"
        },
        {
          "indexed": false,
          "internalType": "uint256",
          "name": "value",
          "type": "uint256"
        },
        {
          "indexed": false,
          "internalType": "uint256",
          "name": "bip32X_type",
          "type": "uint256"
        }
      ],
      "name": "EVT_TransferBip32X_type",
      "type": "event"
    },
    {
      "anonymous": false,
      "inputs": [
        {
          "indexed": false,
          "internalType": "address",
          "name": "_from",
          "type": "address"
        },
        {
          "indexed": false,
          "internalType": "address",
          "name": "_to",
          "type": "address"
        },
        {
          "indexed": false,
          "internalType": "uint256",
          "name": "_value",
          "type": "uint256"
        }
      ],
      "name": "EVT_WithdrawToAddress",
      "type": "event"
    },
    {
      "anonymous": false,
      "inputs": [
        {
          "indexed": false,
          "internalType": "address",
          "name": "_from",
          "type": "address"
        },
        {
          "indexed": false,
          "internalType": "address",
          "name": "_to",
          "type": "address"
        },
        {
          "indexed": false,
          "internalType": "uint256",
          "name": "_value",
          "type": "uint256"
        }
      ],
      "name": "EVT_WithdrawToExternalContract",
      "type": "event"
    },
    {
      "anonymous": false,
      "inputs": [
        {
          "indexed": false,
          "internalType": "address",
          "name": "_from",
          "type": "address"
        },
        {
          "indexed": false,
          "internalType": "address",
          "name": "_to",
          "type": "address"
        },
        {
          "indexed": false,
          "internalType": "uint256",
          "name": "_value",
          "type": "uint256"
        }
      ],
      "name": "EVT_WithdrawToShyftKycContract",
      "type": "event"
    },
    {
      "anonymous": false,
      "inputs": [
        {
          "indexed": true,
          "internalType": "address",
          "name": "sendingKycContract",
          "type": "address"
        },
        {
          "indexed": false,
          "internalType": "uint256",
          "name": "totalSupplyBip32X",
          "type": "uint256"
        },
        {
          "indexed": false,
          "internalType": "uint256",
          "name": "msgValue",
          "type": "uint256"
        },
        {
          "indexed": false,
          "internalType": "uint256",
          "name": "thisBalance",
          "type": "uint256"
        }
      ],
      "name": "EVT_migrateFromContract",
      "type": "event"
    },
    {
      "anonymous": false,
      "inputs": [
        {
          "indexed": true,
          "internalType": "address",
          "name": "updatedShyftKycContractAddress",
          "type": "address"
        },
        {
          "indexed": false,
          "internalType": "uint256",
          "name": "updatedContractBalance",
          "type": "uint256"
        },
        {
          "indexed": true,
          "internalType": "address",
          "name": "kycContractAddress",
          "type": "address"
        },
        {
          "indexed": true,
          "internalType": "address",
          "name": "to",
          "type": "address"
        },
        {
          "indexed": false,
          "internalType": "uint256",
          "name": "_amount",
          "type": "uint256"
        }
      ],
      "name": "EVT_migrateToKycContract",
      "type": "event"
    },
    {
      "anonymous": false,
      "inputs": [
        {
          "indexed": true,
          "internalType": "address",
          "name": "_from",
          "type": "address"
        },
        {
          "indexed": false,
          "internalType": "uint256",
          "name": "_value",
          "type": "uint256"
        }
      ],
      "name": "EVT_receivedNativeBalance",
      "type": "event"
    },
    {
      "anonymous": false,
      "inputs": [
        {
          "indexed": true,
          "internalType": "address",
          "name": "from",
          "type": "address"
        },
        {
          "indexed": true,
          "internalType": "address",
          "name": "to",
          "type": "address"
        },
        {
          "indexed": false,
          "internalType": "uint256",
          "name": "value",
          "type": "uint256"
        },
        {
          "indexed": true,
          "internalType": "bytes",
          "name": "data",
          "type": "bytes"
        }
      ],
      "name": "Transfer",
      "type": "event"
    },
    {
      "anonymous": false,
      "inputs": [
        {
          "indexed": true,
          "internalType": "address",
          "name": "from",
          "type": "address"
        },
        {
          "indexed": true,
          "internalType": "address",
          "name": "to",
          "type": "address"
        },
        {
          "indexed": false,
          "internalType": "uint256",
          "name": "tokens",
          "type": "uint256"
        }
      ],
      "name": "Transfer",
      "type": "event"
    },
    {
      "inputs": [],
      "name": "byfrostOrigin",
      "outputs": [
        {
          "internalType": "bool",
          "name": "",
          "type": "bool"
        }
      ],
      "stateMutability": "view",
      "type": "function"
    },
    {
      "inputs": [],
      "name": "hasBeenUpdated",
      "outputs": [
        {
          "internalType": "bool",
          "name": "",
          "type": "bool"
        }
      ],
      "stateMutability": "view",
      "type": "function"
    },
    {
      "inputs": [],
      "name": "owner",
      "outputs": [
        {
          "internalType": "address",
          "name": "",
          "type": "address"
        }
      ],
      "stateMutability": "view",
      "type": "function"
    },
    {
      "inputs": [],
      "name": "setByfrostOrigin",
      "outputs": [
        {
          "internalType": "bool",
          "name": "",
          "type": "bool"
        }
      ],
      "stateMutability": "view",
      "type": "function"
    },
    {
      "inputs": [],
      "name": "shyftCacheGraphAddress",
      "outputs": [
        {
          "internalType": "address",
          "name": "",
          "type": "address"
        }
      ],
      "stateMutability": "view",
      "type": "function"
    },
    {
      "inputs": [],
      "name": "shyftKycContractRegistryAddress",
      "outputs": [
        {
          "internalType": "address",
          "name": "",
          "type": "address"
        }
      ],
      "stateMutability": "view",
      "type": "function"
    },
    {
      "inputs": [],
      "name": "updatedShyftKycContractAddress",
      "outputs": [
        {
          "internalType": "address",
          "name": "",
          "type": "address"
        }
      ],
      "stateMutability": "view",
      "type": "function"
    },
    {
      "stateMutability": "payable",
      "type": "receive"
    },
    {
      "inputs": [],
      "name": "getNativeTokenType",
      "outputs": [
        {
          "internalType": "uint256",
          "name": "result",
          "type": "uint256"
        }
      ],
      "stateMutability": "view",
      "type": "function"
    },
    {
      "inputs": [
        {
          "internalType": "uint256",
          "name": "_tokenAmount",
          "type": "uint256"
        },
        {
          "internalType": "uint256",
          "name": "_bip32X_type",
          "type": "uint256"
        },
        {
          "internalType": "address",
          "name": "_distributionContract",
          "type": "address"
        }
      ],
      "name": "setByfrostNetwork",
      "outputs": [
        {
          "internalType": "uint8",
          "name": "result",
          "type": "uint8"
        }
      ],
      "stateMutability": "nonpayable",
      "type": "function"
    },
    {
      "inputs": [],
      "name": "setPrimaryNetwork",
      "outputs": [
        {
          "internalType": "uint8",
          "name": "result",
          "type": "uint8"
        }
      ],
      "stateMutability": "nonpayable",
      "type": "function"
    },
    {
      "inputs": [],
      "name": "removeOwner",
      "outputs": [
        {
          "internalType": "bool",
          "name": "",
          "type": "bool"
        }
      ],
      "stateMutability": "nonpayable",
      "type": "function"
    },
    {
      "inputs": [
        {
          "internalType": "address",
          "name": "_shyftCacheGraphAddress",
          "type": "address"
        }
      ],
      "name": "setShyftCacheGraphAddress",
      "outputs": [
        {
          "internalType": "uint8",
          "name": "result",
          "type": "uint8"
        }
      ],
      "stateMutability": "nonpayable",
      "type": "function"
    },
    {
      "inputs": [
        {
          "internalType": "address",
          "name": "_identifiedAddress",
          "type": "address"
        },
        {
          "internalType": "uint256",
          "name": "_amount",
          "type": "uint256"
        },
        {
          "internalType": "uint256",
          "name": "_bip32X_type",
          "type": "uint256"
        },
        {
          "internalType": "bool",
          "name": "_requiredConsentFromAllParties",
          "type": "bool"
        },
        {
          "internalType": "bool",
          "name": "_payForDirty",
          "type": "bool"
        }
      ],
      "name": "kycSend",
      "outputs": [
        {
          "internalType": "uint8",
          "name": "result",
          "type": "uint8"
        }
      ],
      "stateMutability": "nonpayable",
      "type": "function"
    },
    {
      "inputs": [
        {
          "internalType": "address",
          "name": "_addr",
          "type": "address"
        }
      ],
      "name": "updateContract",
      "outputs": [
        {
          "internalType": "bool",
          "name": "",
          "type": "bool"
        }
      ],
      "stateMutability": "nonpayable",
      "type": "function"
    },
    {
      "inputs": [
        {
          "internalType": "address",
          "name": "_addr",
          "type": "address"
        }
      ],
      "name": "setShyftKycContractRegistryAddress",
      "outputs": [
        {
          "internalType": "bool",
          "name": "",
          "type": "bool"
        }
      ],
      "stateMutability": "nonpayable",
      "type": "function"
    },
    {
      "inputs": [
        {
          "internalType": "address payable",
          "name": "_to",
          "type": "address"
        }
      ],
      "name": "withdrawAllNative",
      "outputs": [
        {
          "internalType": "uint256",
          "name": "",
          "type": "uint256"
        }
      ],
      "stateMutability": "nonpayable",
      "type": "function"
    },
    {
      "inputs": [
        {
          "internalType": "address",
          "name": "_identifiedAddress",
          "type": "address"
        },
        {
          "internalType": "uint256",
          "name": "_bip32X_type",
          "type": "uint256"
        }
      ],
      "name": "getBalanceBip32X",
      "outputs": [
        {
          "internalType": "uint256",
          "name": "balance",
          "type": "uint256"
        }
      ],
      "stateMutability": "view",
      "type": "function"
    },
    {
      "inputs": [
        {
          "internalType": "uint256",
          "name": "_bip32X_type",
          "type": "uint256"
        }
      ],
      "name": "getTotalSupplyBip32X",
      "outputs": [
        {
          "internalType": "uint256",
          "name": "balance",
          "type": "uint256"
        }
      ],
      "stateMutability": "view",
      "type": "function"
    },
    {
      "inputs": [
        {
          "internalType": "address",
          "name": "_to",
          "type": "address"
        }
      ],
      "name": "migrateFromKycContract",
      "outputs": [
        {
          "internalType": "bool",
          "name": "result",
          "type": "bool"
        }
      ],
      "stateMutability": "payable",
      "type": "function"
    },
    {
      "inputs": [
        {
          "internalType": "bool",
          "name": "_onlyAcceptsKycInputValue",
          "type": "bool"
        }
      ],
      "name": "setOnlyAcceptsKycInput",
      "outputs": [
        {
          "internalType": "bool",
          "name": "result",
          "type": "bool"
        }
      ],
      "stateMutability": "nonpayable",
      "type": "function"
    },
    {
      "inputs": [],
      "name": "setLockOnlyAcceptsKycInputPermanently",
      "outputs": [
        {
          "internalType": "bool",
          "name": "result",
          "type": "bool"
        }
      ],
      "stateMutability": "nonpayable",
      "type": "function"
    },
    {
      "inputs": [
        {
          "internalType": "address",
          "name": "_identifiedAddress",
          "type": "address"
        }
      ],
      "name": "getOnlyAcceptsKycInput",
      "outputs": [
        {
          "internalType": "bool",
          "name": "result",
          "type": "bool"
        }
      ],
      "stateMutability": "view",
      "type": "function"
    },
    {
      "inputs": [
        {
          "internalType": "address",
          "name": "_identifiedAddress",
          "type": "address"
        }
      ],
      "name": "getOnlyAcceptsKycInputPermanently",
      "outputs": [
        {
          "internalType": "bool",
          "name": "result",
          "type": "bool"
        }
      ],
      "stateMutability": "view",
      "type": "function"
    },
    {
      "inputs": [
        {
          "internalType": "uint256",
          "name": "_value",
          "type": "uint256"
        }
      ],
      "name": "upgradeNativeTokens",
      "outputs": [
        {
          "internalType": "uint256",
          "name": "result",
          "type": "uint256"
        }
      ],
      "stateMutability": "nonpayable",
      "type": "function"
    },
    {
      "inputs": [
        {
          "internalType": "bool",
          "name": "_autoUpgrade",
          "type": "bool"
        }
      ],
      "name": "setAutoUpgrade",
      "outputs": [],
      "stateMutability": "nonpayable",
      "type": "function"
    },
    {
      "inputs": [
        {
          "internalType": "address payable",
          "name": "_to",
          "type": "address"
        },
        {
          "internalType": "uint256",
          "name": "_value",
          "type": "uint256"
        }
      ],
      "name": "withdrawNative",
      "outputs": [
        {
          "internalType": "bool",
          "name": "ok",
          "type": "bool"
        }
      ],
      "stateMutability": "nonpayable",
      "type": "function"
    },
    {
      "inputs": [
        {
          "internalType": "address",
          "name": "_to",
          "type": "address"
        },
        {
          "internalType": "uint256",
          "name": "_value",
          "type": "uint256"
        }
      ],
      "name": "withdrawToExternalContract",
      "outputs": [
        {
          "internalType": "bool",
          "name": "ok",
          "type": "bool"
        }
      ],
      "stateMutability": "nonpayable",
      "type": "function"
    },
    {
      "inputs": [
        {
          "internalType": "address",
          "name": "_shyftKycContractAddress",
          "type": "address"
        },
        {
          "internalType": "address",
          "name": "_to",
          "type": "address"
        },
        {
          "internalType": "uint256",
          "name": "_value",
          "type": "uint256"
        }
      ],
      "name": "withdrawToShyftKycContract",
      "outputs": [
        {
          "internalType": "bool",
          "name": "ok",
          "type": "bool"
        }
      ],
      "stateMutability": "nonpayable",
      "type": "function"
    },
    {
      "inputs": [
        {
          "internalType": "address",
          "name": "_from",
          "type": "address"
        },
        {
          "internalType": "uint256",
          "name": "_value",
          "type": "uint256"
        },
        {
          "internalType": "bytes",
          "name": "_data",
          "type": "bytes"
        }
      ],
      "name": "tokenFallback",
      "outputs": [
        {
          "internalType": "bool",
          "name": "ok",
          "type": "bool"
        }
      ],
      "stateMutability": "nonpayable",
      "type": "function"
    },
    {
      "inputs": [
        {
          "internalType": "address",
          "name": "_who",
          "type": "address"
        }
      ],
      "name": "balanceOf",
      "outputs": [
        {
          "internalType": "uint256",
          "name": "",
          "type": "uint256"
        }
      ],
      "stateMutability": "view",
      "type": "function"
    },
    {
      "inputs": [],
      "name": "name",
      "outputs": [
        {
          "internalType": "string",
          "name": "_name",
          "type": "string"
        }
      ],
      "stateMutability": "pure",
      "type": "function"
    },
    {
      "inputs": [],
      "name": "symbol",
      "outputs": [
        {
          "internalType": "string",
          "name": "_symbol",
          "type": "string"
        }
      ],
      "stateMutability": "pure",
      "type": "function"
    },
    {
      "inputs": [],
      "name": "decimals",
      "outputs": [
        {
          "internalType": "uint8",
          "name": "_decimals",
          "type": "uint8"
        }
      ],
      "stateMutability": "pure",
      "type": "function"
    },
    {
      "inputs": [],
      "name": "totalSupply",
      "outputs": [
        {
          "internalType": "uint256",
          "name": "result",
          "type": "uint256"
        }
      ],
      "stateMutability": "view",
      "type": "function"
    },
    {
      "inputs": [
        {
          "internalType": "address",
          "name": "_to",
          "type": "address"
        },
        {
          "internalType": "uint256",
          "name": "_value",
          "type": "uint256"
        },
        {
          "internalType": "bytes",
          "name": "_data",
          "type": "bytes"
        }
      ],
      "name": "transfer",
      "outputs": [
        {
          "internalType": "bool",
          "name": "ok",
          "type": "bool"
        }
      ],
      "stateMutability": "nonpayable",
      "type": "function"
    },
    {
      "inputs": [
        {
          "internalType": "address",
          "name": "_to",
          "type": "address"
        },
        {
          "internalType": "uint256",
          "name": "_value",
          "type": "uint256"
        }
      ],
      "name": "transfer",
      "outputs": [
        {
          "internalType": "bool",
          "name": "ok",
          "type": "bool"
        }
      ],
      "stateMutability": "nonpayable",
      "type": "function"
    },
    {
      "inputs": [
        {
          "internalType": "address",
          "name": "_tokenOwner",
          "type": "address"
        },
        {
          "internalType": "address",
          "name": "_spender",
          "type": "address"
        }
      ],
      "name": "allowance",
      "outputs": [
        {
          "internalType": "uint256",
          "name": "remaining",
          "type": "uint256"
        }
      ],
      "stateMutability": "view",
      "type": "function"
    },
    {
      "inputs": [
        {
          "internalType": "address",
          "name": "_spender",
          "type": "address"
        },
        {
          "internalType": "uint256",
          "name": "_tokens",
          "type": "uint256"
        }
      ],
      "name": "approve",
      "outputs": [
        {
          "internalType": "bool",
          "name": "success",
          "type": "bool"
        }
      ],
      "stateMutability": "nonpayable",
      "type": "function"
    },
    {
      "inputs": [
        {
          "internalType": "address",
          "name": "_from",
          "type": "address"
        },
        {
          "internalType": "address",
          "name": "_to",
          "type": "address"
        },
        {
          "internalType": "uint256",
          "name": "_tokens",
          "type": "uint256"
        }
      ],
      "name": "transferFrom",
      "outputs": [
        {
          "internalType": "bool",
          "name": "success",
          "type": "bool"
        }
      ],
      "stateMutability": "nonpayable",
      "type": "function"
    },
    {
      "inputs": [
        {
          "internalType": "address",
          "name": "_to",
          "type": "address"
        },
        {
          "internalType": "uint256",
          "name": "_value",
          "type": "uint256"
        },
        {
          "internalType": "uint256",
          "name": "_bip32X_type",
          "type": "uint256"
        }
      ],
      "name": "transferBip32X_type",
      "outputs": [
        {
          "internalType": "bool",
          "name": "result",
          "type": "bool"
        }
      ],
      "stateMutability": "nonpayable",
      "type": "function"
    },
    {
      "inputs": [
        {
          "internalType": "address",
          "name": "_erc223ContractAddress",
          "type": "address"
        },
        {
          "internalType": "address",
          "name": "_to",
          "type": "address"
        },
        {
          "internalType": "uint256",
          "name": "_value",
          "type": "uint256"
        }
      ],
      "name": "withdrawTokenBip32X_typeToErc223",
      "outputs": [
        {
          "internalType": "bool",
          "name": "ok",
          "type": "bool"
        }
      ],
      "stateMutability": "nonpayable",
      "type": "function"
    },
    {
      "inputs": [
        {
          "internalType": "address",
          "name": "_erc20ContractAddress",
          "type": "address"
        },
        {
          "internalType": "uint256",
          "name": "_value",
          "type": "uint256"
        }
      ],
      "name": "transferFromErc20Token",
      "outputs": [
        {
          "internalType": "bool",
          "name": "ok",
          "type": "bool"
        }
      ],
      "stateMutability": "nonpayable",
      "type": "function"
    },
    {
      "inputs": [
        {
          "internalType": "address",
          "name": "_erc20ContractAddress",
          "type": "address"
        },
        {
          "internalType": "address",
          "name": "_to",
          "type": "address"
        },
        {
          "internalType": "uint256",
          "name": "_value",
          "type": "uint256"
        }
      ],
      "name": "withdrawTokenBip32X_typeToErc20",
      "outputs": [
        {
          "internalType": "bool",
          "name": "ok",
          "type": "bool"
        }
      ],
      "stateMutability": "nonpayable",
      "type": "function"
    }
  ],
  "bytecode": "0x6080604052600880546001600160c01b031916637182510b60a11b17905534801561002957600080fd5b506040516133733803806133738339818101604052602081101561004c57600080fd5b5051600980546001600160a01b03191633179055600a55613301806100726000396000f3fe6080604052600436106102605760003560e01c806392e46a4411610144578063c65454d3116100b6578063dd0660ae1161007a578063dd0660ae14610ca9578063dd62ed3e14610ce2578063e38d4d8314610d1d578063e3db17b814610d6c578063fb3d36d814610d9f578063fced5f1f14610db45761033b565b8063c65454d314610bdf578063ca4a1c5a14610bf4578063d32439db14610c1e578063d9992d5714610c33578063d9f66db114610c765761033b565b8063a9059cbb11610108578063a9059cbb14610967578063bc804f5a146109a0578063bcbca736146109e3578063be45fd6214610a1c578063c01044a814610ae4578063c0ee0b8a14610b175761033b565b806392e46a44146108bf57806395d89b41146108d4578063989d8813146108e9578063a02d4b9914610928578063a0dc05b31461093d5761033b565b806318160ddd116101dd5780634f430c34116101a15780634f430c34146107ad5780636aedaec3146107ec57806370a082311461082f5780637eb629861461086257806387fb0ffb146108775780638da5cb5b146108aa5761033b565b806318160ddd146106e657806323b872dd1461070d578063246f8b9614610750578063313ce56714610765578063461496491461077a5761033b565b80630cb35ea8116102245780630cb35ea81461060e57806313a4d9351461063a578063155edcb914610673578063160abcac1461068857806317d3003a146106d15761033b565b806302f61800146104a157806306f1c5c3146104cd57806306fdde03146104fe57806307b18bde14610588578063095ea7b3146105d55761033b565b3661033b57600654610100900460ff16801561028b57503360009081526003602052604090205460ff165b156103cc57333014610347573360009081526004602052604090205460ff16156102b457600080fd5b336000908152600160209081526040808320600a805485529083528184208054908590559054845291839052909120546102ee9082610dda565b600a54600090815260208190526040812091909155600654610329906201000090046001600160a01b0316336103248534610df4565b610e0d565b90506001811515141561033b57610340565b600080fd5b50506103c7565b326000908152600160209081526040808320600a805485529083528184208054908590559054845291839052909120546103819082610dda565b600a546000908152602081905260408120919091556006546103b7906201000090046001600160a01b0316326103248534610df4565b90506001811515141561033b5750505b61049f565b3330148015906103f057503360009081526004602052604090205460ff1615156001145b156103fa57600080fd5b336000908152600160209081526040808320600a5484529091529020546104219034610df4565b336000908152600160209081526040808320600a80548552908352818420949094559254825281905220546104569034610df4565b600a5460009081526020818152604091829020929092558051348152905133927feb92c82ded67a099742c5479f26f1cb9fd8b1017debef7e55b531a63b0678706928290030190a25b005b3480156104ad57600080fd5b5061049f600480360360208110156104c457600080fd5b50351515610f14565b3480156104d957600080fd5b506104e2610f34565b604080516001600160a01b039092168252519081900360200190f35b34801561050a57600080fd5b50610513610f43565b6040805160208082528351818301528351919283929083019185019080838360005b8381101561054d578181015183820152602001610535565b50505050905090810190601f16801561057a5780820380516001836020036101000a031916815260200191505b509250505060405180910390f35b34801561059457600080fd5b506105c1600480360360408110156105ab57600080fd5b506001600160a01b038135169060200135610f6f565b604080519115158252519081900360200190f35b3480156105e157600080fd5b506105c1600480360360408110156105f857600080fd5b506001600160a01b0381351690602001356110cf565b34801561061a57600080fd5b506105c16004803603602081101561063157600080fd5b5035151561113f565b34801561064657600080fd5b506105c16004803603604081101561065d57600080fd5b506001600160a01b038135169060200135611182565b34801561067f57600080fd5b506105c16113c5565b34801561069457600080fd5b506106bb600480360360208110156106ab57600080fd5b50356001600160a01b0316611407565b6040805160ff9092168252519081900360200190f35b3480156106dd57600080fd5b506106bb611452565b3480156106f257600080fd5b506106fb61149c565b60408051918252519081900360200190f35b34801561071957600080fd5b506105c16004803603606081101561073057600080fd5b506001600160a01b038135811691602081013590911690604001356114ae565b34801561075c57600080fd5b506105c161167f565b34801561077157600080fd5b506106bb6116af565b34801561078657600080fd5b506105c16004803603602081101561079d57600080fd5b50356001600160a01b03166116b4565b3480156107b957600080fd5b506105c1600480360360608110156107d057600080fd5b506001600160a01b0381351690602081013590604001356116f3565b3480156107f857600080fd5b506105c16004803603606081101561080f57600080fd5b506001600160a01b0381358116916020810135909116906040013561181c565b34801561083b57600080fd5b506106fb6004803603602081101561085257600080fd5b50356001600160a01b0316611a77565b34801561086e57600080fd5b506104e2611a9f565b34801561088357600080fd5b506105c16004803603602081101561089a57600080fd5b50356001600160a01b0316611aae565b3480156108b657600080fd5b506104e2611acc565b3480156108cb57600080fd5b506104e2611adb565b3480156108e057600080fd5b50610513611af0565b3480156108f557600080fd5b506106bb6004803603606081101561090c57600080fd5b50803590602081013590604001356001600160a01b0316611b0e565b34801561093457600080fd5b506106fb611b8d565b34801561094957600080fd5b506106fb6004803603602081101561096057600080fd5b5035611b93565b34801561097357600080fd5b506105c16004803603604081101561098a57600080fd5b506001600160a01b038135169060200135611ba5565b3480156109ac57600080fd5b506105c1600480360360608110156109c357600080fd5b506001600160a01b03813581169160208101359091169060400135611ccc565b3480156109ef57600080fd5b506106fb60048036036040811015610a0657600080fd5b506001600160a01b0381351690602001356120ab565b348015610a2857600080fd5b506105c160048036036060811015610a3f57600080fd5b6001600160a01b0382351691602081013591810190606081016040820135640100000000811115610a6f57600080fd5b820183602082011115610a8157600080fd5b80359060200191846001830284011164010000000083111715610aa357600080fd5b91908080601f0160208091040260200160405190810160405280939291908181526020018383808284376000920191909152509295506120d3945050505050565b348015610af057600080fd5b506105c160048036036020811015610b0757600080fd5b50356001600160a01b0316612391565b348015610b2357600080fd5b506105c160048036036060811015610b3a57600080fd5b6001600160a01b0382351691602081013591810190606081016040820135640100000000811115610b6a57600080fd5b820183602082011115610b7c57600080fd5b80359060200191846001830284011164010000000083111715610b9e57600080fd5b91908080601f0160208091040260200160405190810160405280939291908181526020018383808284376000920191909152509295506123af945050505050565b348015610beb57600080fd5b506105c161276b565b348015610c0057600080fd5b506106fb60048036036020811015610c1757600080fd5b5035612779565b348015610c2a57600080fd5b506105c1612835565b348015610c3f57600080fd5b506105c160048036036060811015610c5657600080fd5b506001600160a01b03813581169160208101359091169060400135612845565b348015610c8257600080fd5b506106fb60048036036020811015610c9957600080fd5b50356001600160a01b0316612a7c565b348015610cb557600080fd5b506105c160048036036040811015610ccc57600080fd5b506001600160a01b038135169060200135612aaa565b348015610cee57600080fd5b506106fb60048036036040811015610d0557600080fd5b506001600160a01b0381358116916020013516612d45565b348015610d2957600080fd5b506106bb600480360360a0811015610d4057600080fd5b506001600160a01b03813516906020810135906040810135906060810135151590608001351515612d7a565b348015610d7857600080fd5b506105c160048036036020811015610d8f57600080fd5b50356001600160a01b0316612f51565b348015610dab57600080fd5b506105c1612fb8565b6105c160048036036020811015610dca57600080fd5b50356001600160a01b0316612fc8565b600082821115610de957600080fd5b508082035b92915050565b600082820183811015610e0657600080fd5b9392505050565b600654604080516001600160a01b03620100009093048316803182526020820185905282516000949193878316939289169285927ffa917f8a36493643467cfffaadf46bd81954c63721283e6e5e147683a26a23c6929181900390910190a46000816001600160a01b031663fced5f1f85620186a090886040518463ffffffff1660e01b815260040180826001600160a01b031681526020019150506020604051808303818589803b158015610ec257600080fd5b5088f1158015610ed6573d6000803e3d6000fd5b5050505050506040513d6020811015610eee57600080fd5b5051905060018115151415610f0857600192505050610e06565b50600095945050505050565b336000908152600360205260409020805460ff1916911515919091179055565b6008546001600160a01b031681565b6040805180820190915260118152705368796674205b20427966726f7374205d60781b60208201525b90565b60065460009060ff1615610f8257600080fd5b6006805460ff1916600190811790915533600090815260209182526040808220600a548352909252205482116110bb57823b806110b057336000908152600160209081526040808320600a548452909152902054610fe09084610dda565b336000908152600160209081526040808320600a80548552908352818420949094559254825281905220546110159084610dda565b600a546000908152602081905260408082209290925590516001600160a01b0386169185156108fc02918691818181858888f1935050505015801561105e573d6000803e3d6000fd5b50604080513381526001600160a01b038616602082015280820185905290517f442f59271decdd708646c141272baa09d03c6f831aa19363239743105ecaf8d49181900360600190a1600191506110b5565b600091505b506110bf565b5060005b6006805460ff1916905592915050565b3360008181526002602090815260408083206001600160a01b038716808552908352818420611cad85528352818420869055815186815291519394909390927f8c5be1e5ebec7d5bd14f71427d1e84f3dd0314c0f7b2291e5b200ac8c7c3b925928290030190a350600192915050565b3360009081526005602052604081205460ff166111795750336000908152600460205260409020805460ff1916821515179055600161117d565b5060005b919050565b60065460009060ff161561119557600080fd5b6006805460ff191660011790556001600160a01b0383163014156111b857600080fd5b3360009081526004602052604090205460ff16156111d557600080fd5b60408051636eb1769f60e11b81523360048201523060248201529051849184916001600160a01b0384169163dd62ed3e916044808301926020929190829003018186803b15801561122557600080fd5b505afa158015611239573d6000803e3d6000fd5b505050506040513d602081101561124f57600080fd5b5051106113b457604080516323b872dd60e01b81523360048201523060248201526044810185905290516000916001600160a01b038416916323b872dd9160648082019260209290919082900301818787803b1580156112ae57600080fd5b505af11580156112c2573d6000803e3d6000fd5b505050506040513d60208110156112d857600080fd5b505190506001811515141561033b57600a54604080516020808201939093526001600160601b0319606089901b16818301528151603481830301815260549091018252805190830120336000908152600184528281208282529093529120546113419086610df4565b3360008181526001602090815260408083208684528252918290209390935580516001600160a01b038a1681529283019190915281810187905260608201839052517f14199c6685f8c284290bf8ed968c57daafbfa067b251d6505610183c4a64ea179181900360800190a16001935050505b506006805460ff1916905592915050565b3360009081526005602052604081205460ff166113ff5750336000908152600560205260409020805460ff19166001908117909155610f6c565b506000610f6c565b60006001600160a01b03821661141c57600080fd5b6009546001600160a01b03163314156111795750600880546001600160a01b0319166001600160a01b038316179055600161117d565b6009546000906001600160a01b03163314156113ff57600854600160c81b900460ff1661149457506008805460ff60c81b1916600160c81b1790556002610f6c565b506001610f6c565b60006114a9611cad611b93565b905090565b6001600160a01b03821660009081526004602052604081205460ff1615801561150457506001600160a01b03841660009081526002602090815260408083203384528252808320611cad84529091529020548211155b801561153557506001600160a01b0384166000908152600160209081526040808320611cad84529091529020548211155b15611677576001600160a01b03841660009081526002602090815260408083203384528252808320611cad84529091529020546115729083610dda565b6001600160a01b03851660008181526002602090815260408083203384528252808320611cad8085529083528184209590955592825260018152828220938252929092529020546115c39083610dda565b6001600160a01b038086166000908152600160208181526040808420611cad8086529083528185209690965593881683529081528282209382529290925290205461160e9083610df4565b6001600160a01b038085166000818152600160209081526040808320611cad845282529182902094909455805186815290519193928816927fddf252ad1be2c89b69c2b068fc378daa952ba7f163c4a11628f55a4df523b3ef92918290030190a3506001610e06565b506000610e06565b6009546000906001600160a01b0316331461169957600080fd5b50600980546001600160a01b0319169055600190565b601290565b6009546000906001600160a01b031633146116ce57600080fd5b50600780546001600160a01b0383166001600160a01b03199091161790556001919050565b6001600160a01b03831660009081526004602052604081205460ff161561171957600080fd5b33600090815260016020908152604080832085845290915290205483111561174057600080fd5b3360009081526001602090815260408083208584529091529020546117659084610dda565b3360009081526001602081815260408084208785528252808420949094556001600160a01b0388168352908152828220858352905220546117a69084610df4565b6001600160a01b03851660008181526001602090815260408083208784528252918290209390935580513381529283019190915281810185905260608201849052517f843059d2ca7c2c51bca8441ad3c5be35e8f96b711261676adc77dffe263859c29181900360800190a15060019392505050565b60065460009060ff161561182f57600080fd5b6006805460ff19166001908117909155600a54604080516020808201939093526001600160601b0319606089901b168183015281516034818303018152605490910182528051908301203360009081529383528184208185529092529091205483111561189b57600080fd5b3360009081526001602090815260408083208484529091529020546118c09084610dda565b33600090815260016020908152604080832085845282528083209390935582517f7472616e7366657228616464726573732c75696e74323536290000000000000081830152835180820360190181526039820185528051908301206001600160a01b03898116605d840152607d8084018a905286518085039091018152609d909301865292820180516001600160e01b03166001600160e01b03198316178152945182519195938b169390918291908083835b602083106119925780518252601f199092019160209182019101611973565b6001836020036101000a0380198251168184511680821785525050505050509050019150506000604051808303816000865af19150503d80600081146119f4576040519150601f19603f3d011682016040523d82523d6000602084013e6119f9565b606091505b50909150506001811515141561033b57604080516001600160a01b03808a168252336020830152881681830152606081018790526080810185905290517fa5cad00f6cd43f46392bc0d304ca28391cc0d3353c7a962e3da3d5dd0687a7839181900360a00190a150506006805460ff19169055506001949350505050565b6001600160a01b03166000908152600160209081526040808320611cad845290915290205490565b6007546001600160a01b031681565b6001600160a01b031660009081526004602052604090205460ff1690565b6009546001600160a01b031681565b6006546201000090046001600160a01b031681565b60408051808201909152600481526314d2119560e21b602082015290565b6009546000906001600160a01b031633141561167757600854600160c81b900460ff16611b8557506008805460ff60c81b1960ff60c01b19909116600160c01b1716600160c81b1790556001600160a01b038116600090815260016020908152604080832085845290915290208390556002610e06565b506001610e06565b600a5490565b60009081526020819052604090205490565b6001600160a01b03821660009081526004602052604081205460ff16158015611bea5750336000908152600160209081526040808320611cad84529091529020548211155b15611cc457336000908152600160209081526040808320611cad8452909152902054611c169083610dda565b336000908152600160208181526040808420611cad808652908352818520959095556001600160a01b0388168452918152818320938352929092522054611c5d9083610df4565b6001600160a01b0384166000818152600160209081526040808320611cad84528252918290209390935580518581529051919233927fddf252ad1be2c89b69c2b068fc378daa952ba7f163c4a11628f55a4df523b3ef9281900390910190a3506001610dee565b506000610dee565b60065460009060ff1615611cdf57600080fd5b6006805460ff19166001908117909155600a54604080516020808201939093526001600160601b0319606089901b1681830152815160348183030181526054909101825280519083012033600090815293835281842081855290925290912054831115611d4b57600080fd5b336000908152600160209081526040808320848452909152902054606090611d739085610dda565b33600090815260016020908152604080832086845282528083209390935582517f7472616e7366657228616464726573732c75696e743235362c62797465732900818301528351808203601f018152603f82019094528351938201939093206001600160a01b0389811660638601908152608386018a9052606060a38701908152875160c388015287519396928d169487948d948d948b949093909260e390920191908501908083838d5b83811015611e36578181015183820152602001611e1e565b50505050905090810190601f168015611e635780820380516001836020036101000a031916815260200191505b5060408051601f198184030181529181526020820180516001600160e01b03166001600160e01b031990991698909817885251815191979096508695509350915081905083835b60208310611ec95780518252601f199092019160209182019101611eaa565b6001836020036101000a0380198251168184511680821785525050505050509050019150506000604051808303816000865af19150503d8060008114611f2b576040519150601f19603f3d011682016040523d82523d6000602084013e611f30565b606091505b505060405163607705c560e11b81523360048201818152602483018a90526060604484019081528751606485015287519495508c946000946001600160a01b0387169463c0ee0b8a9490938e938c936084019060208501908083838d5b83811015611fa5578181015183820152602001611f8d565b50505050905090810190601f168015611fd25780820380516001836020036101000a031916815260200191505b50945050505050602060405180830381600087803b158015611ff357600080fd5b505af1158015612007573d6000803e3d6000fd5b505050506040513d602081101561201d57600080fd5b50519050600181151514801561203557506001831515145b1561033b57604080516001600160a01b03808d1682523360208301528b1681830152606081018a90526080810188905290517fa5cad00f6cd43f46392bc0d304ca28391cc0d3353c7a962e3da3d5dd0687a7839181900360a00190a150506006805460ff19169055506001979650505050505050565b6001600160a01b03919091166000908152600160209081526040808320938352929052205490565b60065460009060ff16156120e657600080fd5b6006805460ff191660011790556001600160a01b03841660009081526004602052604090205460ff161580156121385750336000908152600160209081526040808320611cad84529091529020548311155b156122dd57336000908152600160209081526040808320611cad8452909152902054843b906121679085610dda565b336000908152600160208181526040808420611cad808652908352818520959095556001600160a01b038a1684529181528183209383529290925220546121ae9085610df4565b6001600160a01b0386166000908152600160209081526040808320611cad845290915290205580156122d65760405163607705c560e11b815233600482018181526024830187905260606044840190815286516064850152865189946001600160a01b0386169463c0ee0b8a9490938b938b9360840190602085019080838360005b83811015612248578181015183820152602001612230565b50505050905090810190601f1680156122755780820380516001836020036101000a031916815260200191505b50945050505050602060405180830381600087803b15801561229657600080fd5b505af11580156122aa573d6000803e3d6000fd5b505050506040513d60208110156122c057600080fd5b505115156001141561033b5760019250506122db565b600191505b505b6001811515141561238057816040518082805190602001908083835b602083106123185780518252601f1990920191602091820191016122f9565b51815160209384036101000a60001901801990921691161790526040805192909401829003822089835293519395506001600160a01b038a16945033937fe19260aff97b920c7df27010903aeb9c8d2be5d310a2c67824cf3f15396e4c169350918290030190a45b6006805460ff191690559392505050565b6001600160a01b031660009081526005602052604090205460ff1690565b60065460009060ff16156123c257600080fd5b6006805460ff191660011790556001600160a01b03841660009081526004602052604090205460ff16156123f557600080fd5b6007546001600160a01b03168015801590612483575060408051630487e9b760e41b815233600482015290516001600160a01b0383169163487e9b70916024808301926020929190829003018186803b15801561245157600080fd5b505afa158015612465573d6000803e3d6000fd5b505050506040513d602081101561247b57600080fd5b505115156001145b156124bf5760405162461bcd60e51b815260040180806020018281038252604d81526020018061327f604d913960600191505060405180910390fd5b600080600485511061258057846000815181106124d857fe5b602001015160f81c60f81b6001600160f81b03191660e01c6008866001815181106124ff57fe5b016020015187516001600160f81b031990911690911c60e01c906010908890600290811061252957fe5b016020015188516001600160f81b031990911690911c60e01c906018908990600390811061255357fe5b602001015160f81c60f81b6001600160f81b0319166001600160e01b031916901c60e01c01010160e01b90505b600a54604080516020808201939093523360601b8183015281516034818303018152605490910182528051908301206001600160a01b038a166000908152600184528281208282529093529120549092506125db9087610df4565b6001600160a01b038816600081815260016020908152604080832087845282529182902093909355600a54815133815293840192909252828101899052606083019190915260808201849052517fd29c9c1edf8b9220246362c1b491f78a99a0b16914c5940aa7187d38328e3e5e9181900360a00190a1604080513381526001600160a01b03891660208201528082018890526060810184905290517f14199c6685f8c284290bf8ed968c57daafbfa067b251d6505610183c4a64ea179181900360800190a1600193507fcb28d23b9b47350cc324953920d36be23cb21648fd8e65e9fc444fd726562dd487878760405180846001600160a01b0316815260200183815260200180602001828103825283818151815260200191508051906020019080838360005b8381101561271b578181015183820152602001612703565b50505050905090810190601f1680156127485780820380516001836020036101000a031916815260200191505b5094505050505060405180910390a150506006805460ff19169055509392505050565b600654610100900460ff1681565b60065460009060ff161561278c57600080fd5b6006805460ff191660019081179182905561010090910460ff161515141561282257336000908152600160209081526040808320600a548452909152902054821161281957336000818152600360205260408120805460ff19166001179055906127f890309085612845565b90506001811515141561280e5760039150612813565b600291505b5061281d565b5060015b612826565b5060005b6006805460ff19169055919050565b600854600160c81b900460ff1681565b60065460009060ff161561285857600080fd5b6006805460ff1916600190811790915533600090815260209182526040808220600a54835290925220548211612a6857833b806128985760009150612a62565b336000908152600160209081526040808320600a5484529091529020546128bf9084610dda565b336000908152600160209081526040808320600a80548552908352818420949094559254825281905220546128f49084610dda565b600a54600090815260208181526040918290209290925580516387fb0ffb60e01b81526001600160a01b03878116600483015291518893928416926387fb0ffb9260248082019391829003018186803b15801561295057600080fd5b505afa158015612964573d6000803e3d6000fd5b505050506040513d602081101561297a57600080fd5b5051612a5b57806001600160a01b031663fced5f1f6201d4c086886040518463ffffffff1660e01b815260040180826001600160a01b031681526020019150506020604051808303818589803b1580156129d357600080fd5b5088f11580156129e7573d6000803e3d6000fd5b5050505050506040513d60208110156129ff57600080fd5b5051612a0a57600080fd5b604080513381526001600160a01b038716602082015280820186905290517f68434ca28a3fbf4e499cad0131f6418189d48b362a6d0109f633ff6dc93b4e5e9181900360600190a160019250612a60565b600092505b505b50612380565b5060006006805460ff191690559392505050565b336000908152600160209081526040808320611cad8452909152812054612aa38382610f6f565b5092915050565b60065460009060ff1615612abd57600080fd5b6006805460ff1916600190811790915533600090815260209182526040808220600a548352909252205482116110bb57823b80612afd57600091506110b5565b336000908152600160209081526040808320600a548452909152902054612b249084610dda565b336000908152600160209081526040808320600a8054855290835281842094909455925482528190522054612b599084610dda565b600a546000908152602081905260408082209290925590516001600160a01b0386169061753090869084818181858888f193505050503d8060008114612bbb576040519150601f19603f3d011682016040523d82523d6000602084013e612bc0565b606091505b505060408051633d2cc23f60e21b60208083019190915282518083036004018152602483019384905263607705c560e11b9093523360288301818152604884018a90526060606885019081528551608886015285519697508b966000966001600160a01b0389169663c0ee0b8a968e959294929360a890920191908501908083838d5b83811015612c5b578181015183820152602001612c43565b50505050905090810190601f168015612c885780820380516001836020036101000a031916815260200191505b50945050505050602060405180830381600087803b158015612ca957600080fd5b505af1158015612cbd573d6000803e3d6000fd5b505050506040513d6020811015612cd357600080fd5b505190506001831515148015612ceb57506001811515145b1561033b57604080513381526001600160a01b038916602082015280820188905290517f7ef890cc5c54793e049a0ab68ef15df470197800624f8951d63953148d8f5f2f9181900360600190a160019450505050506110bf565b6001600160a01b039182166000908152600260209081526040808320939094168252918252828120611cad8252909152205490565b3360009081526001602090815260408083208684529091528120548511610f08576001600160a01b03861660009081526004602052604090205460ff161580612ded57506001600160a01b03861660009081526004602052604090205460ff1615156001148015612ded57506001831515145b15612f445760085460408051634a32bffb60e01b81523360048201526001600160a01b0389811660248301526044820189905260648201889052861515608483015285151560a4830152915191909216916000918391634a32bffb9160c480830192602092919082900301818787803b158015612e6957600080fd5b505af1158015612e7d573d6000803e3d6000fd5b505050506040513d6020811015612e9357600080fd5b50519050600360ff82161415612f3957336000908152600160209081526040808320898452909152902054612ec89088610dda565b3360009081526001602081815260408084208b85528252808420949094556001600160a01b038c16835290815282822089835290522054612f099088610df4565b6001600160a01b03891660009081526001602090815260408083208a84529091529020555060039150612f489050565b600292505050612f48565b5060015b95945050505050565b6007546000906001600160a01b03163314612f6b57600080fd5b600654610100900460ff1615612f8057600080fd5b50600680546001600160a01b038316620100000262010000600160b01b031961ff001990921661010017919091161790556001919050565b600854600160c01b900460ff1681565b600a546000908152602081905260408120544790612fe69034610df4565b1115612ff157600080fd5b60075460408051630487e9b760e41b815233600482015290516001926001600160a01b031691829163487e9b7091602480820192602092909190829003018186803b15801561303f57600080fd5b505afa158015613053573d6000803e3d6000fd5b505050506040513d602081101561306957600080fd5b50516130785760009150613167565b6040805163963beef560e01b815230600482015290516001600160a01b0383169163963beef5916024808301926020929190829003018186803b1580156130be57600080fd5b505afa1580156130d2573d6000803e3d6000fd5b505050506040513d60208110156130e857600080fd5b50516040805163963beef560e01b815233600482015290516001600160a01b0384169163963beef5916024808301926020929190829003018186803b15801561313057600080fd5b505afa158015613144573d6000803e3d6000fd5b505050506040513d602081101561315a57600080fd5b5051111561316757600091505b6001600160a01b03841660009081526004602052604090205460ff1615156001141561319257600091505b6001821515141561033b57600a546000908152602081815260409182902054825190815234918101919091524781830152905133917fe0efa0cee03191c262a79324c1d94257307c4c792a29d94c805c33ae749f9997919081900360600190a26001600160a01b0384166000908152600160209081526040808320600a5484529091529020546132229034610df4565b6001600160a01b0385166000908152600160209081526040808320600a80548552908352818420949094559254825281905220546132609034610df4565b600a54600090815260208190526040902055506001915061117d905056fe63616e6e6f742070726f636573732066616c6c6261636b2066726f6d205368796674204b796320436f6e747261637420696e20746869732076657273696f6e206f6620536879667420436f7265a2646970667358221220b218bfc20fd14d3514b9690ee4866eaed2e1809110ad91a44d00e7bd55b5d9bb64736f6c63430007010033",
  "immutableReferences": {},
  "source": "\npragma solidity ^0.7.1;\n//SPDX-License-Identifier: UNLICENSED\n\n/* New ERC23 contract interface */\n\ninterface IErc223 {\n    function totalSupply() external view returns (uint);\n\n    function balanceOf(address who) external view returns (uint);\n\n    function transfer(address to, uint value) external returns (bool ok);\n    function transfer(address to, uint value, bytes memory data) external returns (bool ok);\n\n    event Transfer(address indexed from, address indexed to, uint value, bytes indexed data);\n}\n\n/**\n* @title Contract that will work with ERC223 tokens.\n*/\n\ninterface IErc223ReceivingContract {\n    /**\n     * @dev Standard ERC223 function that will handle incoming token transfers.\n     *\n     * @param _from  Token sender address.\n     * @param _value Amount of tokens.\n     * @param _data  Transaction metadata.\n     */\n    function tokenFallback(address _from, uint _value, bytes memory _data) external returns (bool ok);\n}\n\n\ninterface IErc20 {\n    function totalSupply() external view returns (uint);\n    function balanceOf(address tokenOwner) external view returns (uint balance);\n    function transfer(address to, uint tokens) external returns (bool success);\n\n    function allowance(address tokenOwner, address spender) external view returns (uint remaining);\n    function approve(address spender, uint tokens) external returns (bool success);\n    function transferFrom(address from, address to, uint tokens) external returns (bool success);\n\n    event Transfer(address indexed from, address indexed to, uint tokens);\n    event Approval(address indexed tokenOwner, address indexed spender, uint tokens);\n}\n\n\n\ninterface IShyftCacheGraph {\n    function compileCacheGraph(address _identifiedAddress, uint16 _idx) external;\n\n    function getKycCanSend( address _senderIdentifiedAddress,\n        address _receiverIdentifiedAddress,\n        uint256 _amount,\n        uint256 _bip32X_type,\n        bool _requiredConsentFromAllParties,\n        bool _payForDirty) external returns (uint8 result);\n\n    function getActiveConsentedTrustChannelBitFieldForPair( address _senderIdentifiedAddress,\n        address _receiverIdentifiedAddress) external returns (uint32 result);\n\n    function getActiveTrustChannelBitFieldForPair(  address _senderIdentifiedAddress,\n        address _receiverIdentifiedAddress) external returns (uint32 result);\n\n    function getActiveConsentedTrustChannelRoutePossible(   address _firstAddress,\n        address _secondAddress,\n        address _trustChannelAddress) external view returns (bool result);\n\n    function getActiveTrustChannelRoutePossible(address _firstAddress,\n        address _secondAddress,\n        address _trustChannelAddress) external view returns (bool result);\n\n    function getRelativeTrustLevelOnlyClean(address _senderIdentifiedAddress,\n        address _receiverIdentifiedAddress,\n        uint256 _amount,\n        uint256 _bip32X_type,\n        bool _requiredConsentFromAllParties,\n        bool _requiredActive) external returns (int16 relativeTrustLevel, int16 externalTrustLevel);\n\n    function calculateRelativeTrustLevel(   uint32 _trustChannelIndex,\n        uint256 _foundChannelRulesBitField,\n        address _senderIdentifiedAddress,\n        address _receiverIdentifiedAddress,\n        uint256 _amount,\n        uint256 _bip32X_type,\n        bool _requiredConsentFromAllParties,\n        bool _requiredActive) external returns(int16 relativeTrustLevel, int16 externalTrustLevel);\n}\n\n\n\ninterface IShyftKycContractRegistry  {\n    function isShyftKycContract(address _addr) external view returns (bool result);\n    function getCurrentContractAddress() external view returns (address);\n    function getContractAddressOfVersion(uint _version) external view returns (address);\n    function getContractVersionOfAddress(address _address) external view returns (uint256 result);\n\n    function getAllTokenLocations(address _addr, uint256 _bip32X_type) external view returns (bool[] memory resultLocations, uint256 resultNumFound);\n    function getAllTokenLocationsAndBalances(address _addr, uint256 _bip32X_type) external view returns (bool[] memory resultLocations, uint256[] memory resultBalances, uint256 resultNumFound, uint256 resultTotalBalance);\n}\n\n\n\n/// @dev Inheritable constants for token types\n\ncontract TokenConstants {\n\n    //@note: reference from https://github.com/satoshilabs/slips/blob/master/slip-0044.md\n    // hd chaincodes are 31 bits (max integer value = 2147483647)\n\n    //@note: reference from https://chainid.network/\n    // ethereum-compatible chaincodes are 32 bits\n\n    // given these, the final \"nativeType\" needs to be a mix of both.\n\n    uint256 constant TestNetTokenOffset = 2**128;\n    uint256 constant PrivateNetTokenOffset = 2**192;\n\n    uint256 constant ShyftTokenType = 7341;\n    uint256 constant EtherTokenType = 60;\n    uint256 constant EtherClassicTokenType = 61;\n    uint256 constant RootstockTokenType = 137;\n\n    //Shyft Testnets\n    uint256 constant BridgeTownTokenType = TestNetTokenOffset + 0;\n\n    //Ethereum Testnets\n    uint256 constant GoerliTokenType = TestNetTokenOffset + 1;\n    uint256 constant KovanTokenType = TestNetTokenOffset + 2;\n    uint256 constant RinkebyTokenType = TestNetTokenOffset + 3;\n    uint256 constant RopstenTokenType = TestNetTokenOffset + 4;\n\n    //Ethereum Classic Testnets\n    uint256 constant KottiTokenType = TestNetTokenOffset + 5;\n\n    //Rootstock Testnets\n    uint256 constant RootstockTestnetTokenType = TestNetTokenOffset + 6;\n\n    //@note:@here:@deploy: need to hardcode test and/or privatenet for deploy on various blockchains\n    bool constant IsTestnet = false;\n    bool constant IsPrivatenet = false;\n\n    //@note:@here:@deploy: need to hardcode NativeTokenType for deploy on various blockchains\n    //    uint256 constant NativeTokenType = ShyftTokenType;\n}\n// pragma experimental ABIEncoderV2;\n\n\n\n\n\n\n\n\n/**\n * @title SafeMath\n * @dev Unsigned math operations with safety checks that revert on error\n */\nlibrary SafeMath {\n    /**\n     * @dev Multiplies two unsigned integers, reverts on overflow.\n     */\n    function mul(uint256 a, uint256 b) internal pure returns (uint256) {\n        // Gas optimization: this is cheaper than requiring 'a' not being zero, but the\n        // benefit is lost if 'b' is also tested.\n        // See: https://github.com/OpenZeppelin/openzeppelin-solidity/pull/522\n        if (a == 0) {\n            return 0;\n        }\n\n        uint256 c = a * b;\n        require(c / a == b);\n\n        return c;\n    }\n\n    /**\n     * @dev Integer division of two unsigned integers truncating the quotient, reverts on division by zero.\n     */\n    function div(uint256 a, uint256 b) internal pure returns (uint256) {\n        // Solidity only automatically asserts when dividing by 0\n        require(b > 0);\n        uint256 c = a / b;\n        // assert(a == b * c + a % b); // There is no case in which this doesn't hold\n\n        return c;\n    }\n\n    /**\n     * @dev Subtracts two unsigned integers, reverts on overflow (i.e. if subtrahend is greater than minuend).\n     */\n    function sub(uint256 a, uint256 b) internal pure returns (uint256) {\n        require(b <= a);\n        uint256 c = a - b;\n\n        return c;\n    }\n\n    /**\n     * @dev Adds two unsigned integers, reverts on overflow.\n     */\n    function add(uint256 a, uint256 b) internal pure returns (uint256) {\n        uint256 c = a + b;\n        require(c >= a);\n\n        return c;\n    }\n\n    /**\n     * @dev Divides two unsigned integers and returns the remainder (unsigned integer modulo),\n     * reverts when dividing by zero.\n     */\n    function mod(uint256 a, uint256 b) internal pure returns (uint256) {\n        require(b != 0);\n        return a % b;\n    }\n}\n\n\n\n\n\n\n\n\ninterface IShyftKycContract is IErc20, IErc223, IErc223ReceivingContract {\n    function balanceOf(address tokenOwner) external view override(IErc20, IErc223) returns (uint balance);\n    function totalSupply() external view override(IErc20, IErc223) returns (uint);\n    function transfer(address to, uint tokens) external override(IErc20, IErc223) returns (bool success);\n\n    function getNativeTokenType() external view returns (uint256 result);\n\n    function withdrawNative(address payable _to, uint256 _value) external returns (bool ok);\n    function withdrawToExternalContract(address _to, uint256 _value) external returns (bool ok);\n    function withdrawToShyftKycContract(address _shyftKycContractAddress, address _to, uint256 _value) external returns (bool ok);\n\n    function migrateFromKycContract(address _to) external payable returns(bool result);\n    function updateContract(address _addr) external returns (bool);\n\n    function getBalanceBip32X(address _identifiedAddress, uint256 _bip32X_type) external view returns (uint256 balance);\n\n    function getOnlyAcceptsKycInput(address _identifiedAddress) external view returns (bool result);\n    function getOnlyAcceptsKycInputPermanently(address _identifiedAddress) external view returns (bool result);\n}\n\n\n\n/// @dev | Shyft Core :: Shyft Kyc Contract\n///      |\n///      | This contract is the nucleus of all of the Shyft stack. This current v1 version has basic functionality for upgrading and connects to the Shyft Cache Graph via Routing for further system expansion.\n///      |\n///      | It should be noted that all payable functions should utilize revert, as they are dealing with assets.\n///      |\n///      | \"Bip32X\" & Synthetics - Here we're using an extension of the Bip32 standard that effectively uses a hash of contract address & \"chainId\" to allow any erc20/erc223 contract to allow assets to move through Shyft's opt-in compliance rails.\n///      | Ex. Ethereum = 60\n///      | Shyft Network = 7341\n///      |\n///      | This contract is built so that when the totalSupply is asked for, much like transfer et al., it only references the ShyftTokenType. For getting the native balance of any specific Bip32X token, you'd call \"getTotalSupplyBip32X\" with the proper contract address.\n///      |\n///      | \"Auto Migration\"\n///      | This contract was built with the philosophy that while there needs to be *some* upgrade path, unilaterally changing the existing contract address for Users is a bad idea in practice. Instead, we use a versioning system with the ability for users to set flags to automatically upgrade their liquidity on send into this particular contract, to any other contracts that have been updated so far (in a recursive manner).\n///      |\n///      | Auto-Migration of assets flow:\n///      | 1. registry contract is set up\n///      | 2. upgrade is called by registry contract\n///      | 3. calls to fallback looks to see if upgrade is set\n///      | 4. if so it asks the registry for the current contract address\n///      | 5. it then uses the \"migrateFromKycContract\", which on the receiver's end will update the _to address passed in with the progression and now has the value from the \"migrateFromKycContract\"'s payable and thus the native fuel, to back the token increase to the _to's account.\n///      |\n///      |\n///      | What's Next (V2 notes):\n///      |\n///      | \"Shyft Safe\" - timelocked assets that will work with Byfrost\n///      | \"Shyft Byfrost\" - economic finality bridge infrastructure\n///      |\n///      | Compliance Channels:\n///      | Addresses that only accept kyc input should be able to receive packages by the bridge that are only kyc'd across byfrost.\n///      | Ultimate accountability chain could be difficult, though a hash map of critical ipfs resources of chain data could suffice.\n///      | This would be the same issue as data accountability by trying to leverage multiple chains for data sales as well.\n\ncontract ShyftKycContract_March26EthLaunch is IShyftKycContract, TokenConstants {\n    /// @dev Event for migration to another shyft kyc contract (of higher or equal version).\n    event EVT_migrateToKycContract(address indexed updatedShyftKycContractAddress, uint256 updatedContractBalance, address indexed kycContractAddress, address indexed to, uint256 _amount);\n    /// @dev Event for migration to another shyft kyc contract (from lower or equal version).\n    event EVT_migrateFromContract(address indexed sendingKycContract, uint256 totalSupplyBip32X, uint256 msgValue, uint256 thisBalance);\n\n    /// @dev Event for receipt of native assets.\n    event EVT_receivedNativeBalance(address indexed _from, uint256 _value);\n\n    /// @dev Event for withdraw to address.\n    event EVT_WithdrawToAddress(address _from, address _to, uint256 _value);\n    /// @dev Event for withdraw to a specific shyft smart contract.\n    event EVT_WithdrawToShyftKycContract(address _from, address _to, uint256 _value);\n    /// @dev Event for withdraw to external contract (w/ Erc223 fallbacks).\n    event EVT_WithdrawToExternalContract(address _from, address _to, uint256 _value);\n\n    /// @dev Event for getting an erc223 asset inbound to this contract.\n    event EVT_Bip32X_TypeTokenFallback(address msgSender, address _from, uint256 value, uint256 nativeTokenType, uint256 bip32X_type);\n\n    event EVT_TransferAndMintBip32X_type(address contractAddress, address msgSender, uint256 value, uint256 bip32X_type);\n    event EVT_TransferAndBurnBip32X_type(address contractAddress, address msgSender, address to, uint256 value, uint256 bip32X_type);\n\n    event EVT_TransferBip32X_type(address msgSender, address to, uint256 value, uint256 bip32X_type);\n\n    /* ERC223 events */\n    event EVT_Erc223TokenFallback(address _from, uint256 _value, bytes _data);\n\n    using SafeMath for uint256;\n\n    /// @dev Mapping of total supply specific bip32x assets.\n    mapping(uint256 => uint256) totalSupplyBip32X;\n    /// @dev Mapping of users to their balances of specific bip32x assets.\n    mapping(address => mapping(uint256 => uint256)) balances;\n    /// @dev Mapping of users to users with amount of allowance set for specific bip32x assets.\n    mapping(address => mapping(address => mapping(uint256 => uint256))) allowed;\n\n    /// @dev Mapping of users to whether they have set auto-upgrade enabled.\n    mapping(address => bool) autoUpgradeEnabled;\n    /// @dev Mapping of users to whether they Accepts Kyc Input only.\n    mapping(address => bool) onlyAcceptsKycInput;\n    /// @dev Mapping of users to whether their Accepts Kyc Input option is locked permanently.\n    mapping(address => bool) lockOnlyAcceptsKycInputPermanently;\n\n    /// @dev mutex lock, prevent recursion in functions that use external function calls\n    bool locked;\n\n    /// @dev Whether there has been an upgrade from this contract.\n    bool public hasBeenUpdated;\n    /// @dev The address of the next upgraded Shyft Kyc Contract.\n    address public updatedShyftKycContractAddress;\n    /// @dev The address of the Shyft Kyc Registry contract.\n    address public shyftKycContractRegistryAddress;\n\n    /// @dev The address of the Shyft Cache Graph contract.\n    address public shyftCacheGraphAddress = address(0);\n\n    /// @dev The signature for triggering 'tokenFallback' in erc223 receiver contracts.\n    bytes4 constant shyftKycContractSig = bytes4(keccak256(\"fromShyftKycContract(address,address,uint256,uint256)\")); // function signature\n\n    /// @dev The signature for the upgrade event.\n    bytes4 shyftKycContractTokenUpgradeSig = bytes4(keccak256(\"updateShyftToken(address,uint256,uint256)\")); // function signature\n\n    /// @dev The origin of the Byfrost link, if this contract is used as such. follows chainId.\n    bool public byfrostOrigin;\n    /// @dev Flag for whether the Byfrost state has been set.\n    bool public setByfrostOrigin;\n\n    /// @dev The owner of this contract.\n    address public owner;\n    /// @dev The native Bip32X type of this network. Ethereum is 60, Shyft is 7341, etc.\n    uint256 nativeBip32X_type;\n\n    /// @param _nativeBip32X_type The native Bip32X type of this network. Ethereum is 60, Shyft is 7341, etc.\n    /// @dev Invoke the constructor for ShyftSafe, which sets the owner and nativeBip32X_type class variables\n    constructor(uint256 _nativeBip32X_type) {\n        owner = msg.sender;\n\n        nativeBip32X_type = _nativeBip32X_type;\n    }\n\n    /// @dev Gets the native bip32x token (should correspond to \"chainid\")\n    /// @return result the native bip32x token (should correspond to \"chainid\")\n\n    function getNativeTokenType() public override view returns (uint256 result) {\n        return nativeBip32X_type;\n    }\n\n    /// @param _tokenAmount The amount of tokens to be allocated.\n    /// @param _bip32X_type The Bip32X type that represents the synthetic tokens that will be allocated.\n    /// @param _distributionContract The public address of the distribution contract, that the tokens are allocated for.\n    /// @dev Set by the owner, this functions sets it such that this contract was deployed on a Byfrost arm of the Shyft Network (on Ethereum for example). With this is a token grant that this contract should make to a specific distribution contract (ie. in the case of the initial Shyft Network launch, we have a small allocation originating on the Ethereum network).\n    /// @notice | for created kyc contracts on other chains, they can be instantiated with specific bip32X_type amounts\n    ///         | (for example, the shyft distribution contract on eth vs. shyft native)\n    ///         |  '  uint256 bip32X_type = uint256(keccak256(abi.encodePacked(nativeBip32X_type, _erc20ContractAddress)));\n    ///         |  '  bip32X_type = uint256(keccak256(abi.encodePacked(nativeBip32X_type, msg.sender)));\n    ///         | the bip32X_type is formed by the hash of the native bip32x type (which is unique per-platform, as it depends on\n    ///         | the deployed contract address) - byfrost only touches non-replay networks.\n    ///         | so the formula for the bip32X_type would be HASH [ byfrost main chain bip32X_type ] & [ byfrost main chain kyc contract address ]\n    ///         | these minted tokens are given to the distribution contract for further distribution. This is all this contract\n    ///         | needs to know about the distribution contract.\n    /// @return result\n    ///    | 2 = set byfrost as origin\n    ///    | 1 = already set byfrost origin\n    ///    | 0 = not owner\n\n    function setByfrostNetwork(uint256 _tokenAmount, uint256 _bip32X_type, address _distributionContract) public returns (uint8 result) {\n        if (msg.sender == owner) {\n            if (setByfrostOrigin == false) {\n                byfrostOrigin = true;\n                setByfrostOrigin = true;\n\n                balances[_distributionContract][_bip32X_type] = _tokenAmount;\n\n                //set byfrost as origin\n                return 2;\n            } else {\n                //already set\n                return 1;\n            }\n        } else {\n            //not owner\n            return 0;\n        }\n    }\n\n    /// @dev Set by the owner, this function sets it such that this contract was deployed on the primary Shyft Network. No further calls to setByfrostNetwork may be made.\n    /// @return result\n    ///    | 2 = set primary network\n    ///    | 1 = already set byfrost origin\n    ///    | 0 = not owner\n\n    function setPrimaryNetwork() public returns (uint8 result) {\n        if (msg.sender == owner) {\n            if (setByfrostOrigin == false) {\n                setByfrostOrigin = true;\n\n                //set primary network\n                return 2;\n            } else {\n                //already set byfrost origin\n                return 1;\n            }\n        } else {\n            //not owner\n            return 0;\n        }\n    }\n\n    /// @dev Removes the owner (creator of this contract)'s control completely. Functions such as linking the registry & cachegraph (& shyftSafe's setBridge), and importantly initializing this as a byfrost contract, are triggered by the owner, and as such a setting phase and afterwards triggering this function could be seen as a completely appropriate workflow.\n    /// @return true if the owner is removed successfully\n    function removeOwner() public returns (bool) {\n        require(msg.sender == owner);\n\n        owner = address(0);\n        return true;\n    }\n\n    /// @param _shyftCacheGraphAddress The smart contract address for the Shyft CacheGraph that should be linked.\n    /// @dev Links Shyft CacheGraph to this contract's function flow.\n    /// @return result\n    ///    | 0: not owner\n    ///    | 1: set shyft cache graph address\n\n    function setShyftCacheGraphAddress(address _shyftCacheGraphAddress) public returns (uint8 result) {\n        require(_shyftCacheGraphAddress != address(0));\n        if (owner == msg.sender) {\n            shyftCacheGraphAddress = _shyftCacheGraphAddress;\n\n            //cacheGraph contract address set\n            return 1;\n        } else {\n            //not owner\n            return 0;\n        }\n    }\n\n    //---------------- Cache Graph Utilization ----------------//\n\n    /// @param _identifiedAddress The public address for the recipient to send assets (tokens) to.\n    /// @param _amount The amount of assets that will be sent.\n    /// @param _bip32X_type The bip32X type of the assets that will be sent. These are synthetic (wrapped) assets, based on atomic locking.\n    /// @param _requiredConsentFromAllParties Whether to match the routing algorithm on the \"consented\" layer which indicates 2 way buy in of counterparty's attestation(s)\n    /// @param _payForDirty Whether the sender will pay the additional cost to unify a cachegraph's relationships (if not, it will not complete).\n    /// @dev | Performs a \"kyc send\", which is an automatic search between addresses for counterparty relationships within Trust Channels (whos rules dictate accessibility for auditing/enforcement/jurisdiction/etc.). If there is a match, the designated amount of assets is sent to the recipient.\n    ///      | As there are accessor methods to check whether or not the counterparty's cachegraph is \"dirty\", there is little need to pass a \"true\" unless the transaction is critical (eg. DeFi atomic flash wrap) and there is a chance that there will need to be a unification pass before the transaction can pass with full assurety.\n    /// @notice | If the recipient has flags set to indicate that they *only* want to receive assets from kyc sources, *all* of the regular transfer functions will block except this one, and this one only passes on success.\n    /// @return result\n    ///    | 0 = not enough balance to send\n    ///    | 1 = consent required\n    ///    | 2 = transfer cannot be processed due to transfer rules\n    ///    | 3 = successful transfer\n\n    function kycSend(address _identifiedAddress, uint256 _amount, uint256 _bip32X_type, bool _requiredConsentFromAllParties, bool _payForDirty) public returns (uint8 result) {\n        if (balances[msg.sender][_bip32X_type] >= _amount) {\n            if (onlyAcceptsKycInput[_identifiedAddress] == false || (onlyAcceptsKycInput[_identifiedAddress] == true && _requiredConsentFromAllParties == true)) {\n                IShyftCacheGraph shyftCacheGraph = IShyftCacheGraph(shyftCacheGraphAddress);\n\n                uint8 kycCanSendResult = shyftCacheGraph.getKycCanSend(msg.sender, _identifiedAddress, _amount, _bip32X_type, _requiredConsentFromAllParties, _payForDirty);\n\n                //getKycCanSend return 3 = can transfer successfully\n                if (kycCanSendResult == 3) {\n                    balances[msg.sender][_bip32X_type] = balances[msg.sender][_bip32X_type].sub(_amount);\n                    balances[_identifiedAddress][_bip32X_type] = balances[_identifiedAddress][_bip32X_type].add(_amount);\n\n                    //successful transfer\n                    return 3;\n                } else {\n                    //transfer cannot be processed due to transfer rules\n                    return 2;\n                }\n            } else {\n                //consent required\n                return 1;\n            }\n        } else {\n            //not enough balance to send\n            return 0;\n        }\n    }\n\n    //---------------- Shyft KYC balances, fallback, send, receive, and withdrawal ----------------//\n\n\n    /// @dev mutex locks transactions ordering so that multiple chained calls cannot complete out of order.\n\n    modifier mutex() {\n        if (locked) revert();\n        locked = true;\n        _;\n        locked = false;\n    }\n\n    /// @param _addr The Shyft Kyc Contract Registry address to set to.\n    /// @dev Upgrades the contract. Can only be called by a pre-set Shyft Kyc Contract Registry contract. Can only be called once.\n    /// @return returns true if the function passes, otherwise reverts if the message sender is not the shyft kyc registry contract.\n\n    function updateContract(address _addr) public override returns (bool) {\n        require(msg.sender == shyftKycContractRegistryAddress);\n        require(hasBeenUpdated == false);\n\n        hasBeenUpdated = true;\n        updatedShyftKycContractAddress = _addr;\n        return true;\n    }\n\n    /// @param _addr The Shyft Kyc Contract Registry address to set to.\n    /// @dev Sets the Shyft Kyc Contract Registry address, so this contract can be upgraded.\n    /// @return returns true if the function passes, otherwise reverts if the message sender is not the owner (deployer) of this contract.\n\n    function setShyftKycContractRegistryAddress(address _addr) public returns (bool) {\n        require(msg.sender == owner);\n\n        shyftKycContractRegistryAddress = _addr;\n        return true;\n    }\n\n    /// @param _to The destination address to withdraw to.\n    /// @dev Withdraws all assets of this User to a specific address (only native assets, ie. Ether on Ethereum, Shyft on Shyft Network).\n    /// @return balance the number of tokens of that specific bip32x type in the user's account\n\n    function withdrawAllNative(address payable _to) public returns (uint) {\n        uint _bal = balances[msg.sender][ShyftTokenType];\n        withdrawNative(_to, _bal);\n        return _bal;\n    }\n\n    /// @param _identifiedAddress The address of the User.\n    /// @param _bip32X_type The Bip32X type to check.\n    /// @dev Gets balance for Shyft KYC token type & synthetics for a specfic user.\n    /// @return balance the number of tokens of that specific bip32x type in the user's account\n\n    function getBalanceBip32X(address _identifiedAddress, uint256 _bip32X_type) public view override returns (uint256 balance) {\n        return balances[_identifiedAddress][_bip32X_type];\n    }\n\n    /// @param _bip32X_type The Bip32X type to check.\n    /// @dev Gets the total supply for a specific bip32x token.\n    /// @return balance the number of tokens of that specific bip32x type in this contract\n\n    function getTotalSupplyBip32X(uint256 _bip32X_type) public view returns (uint256 balance) {\n        return totalSupplyBip32X[_bip32X_type];\n    }\n\n    /// @dev This fallback function applies value to nativeBip32X_type Token (Ether on Ethereum, Shyft on Shyft Network, etc). It also uses auto-upgrade logic so that users can automatically have their coins in the latest wallet (if everything is opted in across all contracts by the user).\n\n    receive() external payable {\n        //@note: this is the auto-upgrade path, which is an opt-in service to the users to be able to send any or all tokens\n        // to an upgraded kycContract.\n        if (hasBeenUpdated && autoUpgradeEnabled[msg.sender]) {\n            //@note: to prevent tokens from ever getting \"stuck\", this contract can only send to itself in a very\n            // specific manner.\n            //\n            // for example, the \"withdrawNative\" function will output native fuel to a destination.\n            // If it was sent to this contract, this function will trigger and know that the msg.sender is\n            // the originating kycContract.\n\n            if (msg.sender != address(this)) {\n                // stop the process if the message sender has set a flag that only allows kyc input\n                require(onlyAcceptsKycInput[msg.sender] == false);\n\n                // burn tokens in this contract\n                uint256 existingSenderBalance = balances[msg.sender][nativeBip32X_type];\n\n                balances[msg.sender][nativeBip32X_type] = 0;\n                totalSupplyBip32X[nativeBip32X_type] = totalSupplyBip32X[nativeBip32X_type].sub(existingSenderBalance);\n\n                //~70k gas for the contract \"call\"\n                //and 90k gas for the value transfer within this.\n                // total = ~160k+checks gas to perform this transaction.\n                bool didTransferSender = migrateToKycContract(updatedShyftKycContractAddress, msg.sender, existingSenderBalance.add(msg.value));\n\n                if (didTransferSender == true) {\n\n                } else {\n                    //@note: reverts since a transactional event has occurred.\n                    revert();\n                }\n            } else {\n                //****************************************************************************************************//\n                //@note: This *must* be the only route where tx.origin has to matter.\n                //****************************************************************************************************//\n\n                // duplicating the logic here for higher deploy cost vs. lower transactional costs (consider user costs\n                // where all users would want to migrate)\n\n                // burn tokens in this contract\n                uint256 existingOriginBalance = balances[tx.origin][nativeBip32X_type];\n\n                balances[tx.origin][nativeBip32X_type] = 0;\n                totalSupplyBip32X[nativeBip32X_type] = totalSupplyBip32X[nativeBip32X_type].sub(existingOriginBalance);\n\n                //~70k gas for the contract \"call\"\n                //and 90k gas for the value transfer within this.\n                // total = ~160k+checks gas to perform this transaction.\n\n                bool didTransferOrigin = migrateToKycContract(updatedShyftKycContractAddress, tx.origin, existingOriginBalance.add(msg.value));\n\n                if (didTransferOrigin == true) {\n\n                } else {\n                    //@note: reverts since a transactional event has occurred.\n                    revert();\n                }\n            }\n        } else {\n            //@note: never accept this contract sending raw value to this fallback function, unless explicit cases\n            // have been met.\n            //@note: public addresses do not count as kyc'd addresses\n            if (msg.sender != address(this) && onlyAcceptsKycInput[msg.sender] == true) {\n                revert();\n            }\n\n            balances[msg.sender][nativeBip32X_type] = balances[msg.sender][nativeBip32X_type].add(msg.value);\n            totalSupplyBip32X[nativeBip32X_type] = totalSupplyBip32X[nativeBip32X_type].add(msg.value);\n\n            emit EVT_receivedNativeBalance(msg.sender, msg.value);\n        }\n    }\n\n    /// @param _kycContractAddress The Shyft Kyc Contract to migrate to.\n    /// @param _to The user's address to migrate to\n    /// @param _amount The amount of tokens to migrate.\n    /// @dev Internal function to migrates the user's assets to another Shyft Kyc Contract. This function is called from the fallback to allocate tokens properly to the upgraded contract.\n    /// @return result\n    ///    | true = transfer complete\n    ///    | false = transfer did not complete\n\n    function migrateToKycContract(address _kycContractAddress, address _to, uint256 _amount) internal returns (bool result) {\n        // call upgraded contract so that tokens are forwarded to the new contract under _to's account.\n        IShyftKycContract updatedKycContract = IShyftKycContract(updatedShyftKycContractAddress);\n\n        emit EVT_migrateToKycContract(updatedShyftKycContractAddress, address(updatedShyftKycContractAddress).balance, _kycContractAddress, _to, _amount);\n\n        // sending to ShyftKycContracts only; migrateFromKycContract uses ~75830 - 21000 gas to execute,\n        // with a registry lookup, so adding in a bit more for future contracts.\n        bool transferResult = updatedKycContract.migrateFromKycContract{value: _amount, gas: 100000}(_to);\n\n        if (transferResult == true) {\n            //transfer complete\n            return true;\n        } else {\n            //transfer did not complete\n            return false;\n        }\n    }\n\n    /// @param _to The user's address to migrate to.\n    /// @dev | Migrates the user's assets from another Shyft Kyc Contract. The following conditions have to pass:\n    ///      | a) message sender is a shyft kyc contract,\n    ///      | b) sending shyft kyc contract is not of a later version than this one\n    ///      | c) user on this shyft kyc contract have no restrictions on only accepting KYC input (will ease in v2)\n    /// @return result\n    ///    | true = migration completed successfully\n    ///    | [revert] = reverts on any situation that fails on the above parameters\n\n    function migrateFromKycContract(address _to) public payable override returns (bool result) {\n        //@note: doing a very strict check to make sure no unwanted additional tokens can be created.\n        // the way this work is that this.balance is updated *before* this code runs.\n        // thus, as long as we've always updated totalSupplyBip32X when we've created or destroyed tokens, we'll\n        // always be able to check against this.balance.\n\n        //regarding an issue found:\n        //\"Smart contracts, though they may not expect it, can receive ether forcibly, or could be deployed at an\n        // address that already received some ether.\"\n        // from:\n        // \"require(totalSupplyBip32X[nativeBip32X_type].add(msg.value) == address(this).balance);\"\n        //\n        // the worst case scenario in some non-atomic calls (without going through withdrawToShyftKycContract for example)\n        // is that someone self-destructs a contract and forcibly sends ether to this address, before this is triggered by\n        // someone using it.\n\n        // solution:\n        // we cannot do a simple equality check for address(this).balance. instead, we use an less-than-or-equal-to, as\n        // when the worst case above occurs, the total supply of this synthetic will be less than the balance within this\n        // contract.\n\n        require(totalSupplyBip32X[nativeBip32X_type].add(msg.value) <= address(this).balance);\n\n        bool doContinue = true;\n\n        IShyftKycContractRegistry contractRegistry = IShyftKycContractRegistry(shyftKycContractRegistryAddress);\n\n        // check if only using a known kyc contract communication cycle, then verify the message sender is a kyc contract.\n        if (contractRegistry.isShyftKycContract(address(msg.sender)) == false) {\n            doContinue = false;\n        } else {\n            // only allow migration from equal or older versions of Shyft Kyc Contracts, via registry lookup.\n            if (contractRegistry.getContractVersionOfAddress(address(msg.sender)) > contractRegistry.getContractVersionOfAddress(address(this))) {\n                doContinue = false;\n            }\n        }\n\n        // block transfers if the recipient only allows kyc input\n        if (onlyAcceptsKycInput[_to] == true) {\n            doContinue = false;\n        }\n\n        if (doContinue == true) {\n            emit EVT_migrateFromContract(msg.sender, totalSupplyBip32X[nativeBip32X_type], msg.value, address(this).balance);\n\n            balances[_to][nativeBip32X_type] = balances[_to][nativeBip32X_type].add(msg.value);\n            totalSupplyBip32X[nativeBip32X_type] = totalSupplyBip32X[nativeBip32X_type].add(msg.value);\n\n            //transfer complete\n            return true;\n        } else {\n            //kyc contract not in registry\n            //@note: transactional event has occurred, so revert() is necessary\n            revert();\n            //return false;\n        }\n    }\n\n    /// @param _onlyAcceptsKycInputValue Whether to accept only Kyc Input.\n    /// @dev Sets whether to accept only Kyc Input in the future.\n    /// @return result\n    ///    | true = updated onlyAcceptsKycInput\n    ///    | false = cannot modify onlyAcceptsKycInput, as it is locked permanently by user\n\n    function setOnlyAcceptsKycInput(bool _onlyAcceptsKycInputValue) public returns (bool result) {\n        if (lockOnlyAcceptsKycInputPermanently[msg.sender] == false) {\n            onlyAcceptsKycInput[msg.sender] = _onlyAcceptsKycInputValue;\n\n            //updated onlyAcceptsKycInput\n            return true;\n        } else {\n\n            //cannot modify onlyAcceptsKycInput, as it is locked permanently by user\n            return false;\n        }\n    }\n\n    /// @dev Gets whether the user has set Accepts Kyc Input.\n    /// @return result\n    ///    | true = set lock for onlyAcceptsKycInput\n    ///    | false = already set lock for onlyAcceptsKycInput\n\n    function setLockOnlyAcceptsKycInputPermanently() public returns (bool result) {\n        if (lockOnlyAcceptsKycInputPermanently[msg.sender] == false) {\n            lockOnlyAcceptsKycInputPermanently[msg.sender] = true;\n            //set lock for onlyAcceptsKycInput\n            return true;\n        } else {\n            //already set lock for onlyAcceptsKycInput\n            return false;\n        }\n    }\n\n    /// @param _identifiedAddress The public address to check.\n    /// @dev Gets whether the user has set Accepts Kyc Input.\n    /// @return result whether the user has set Accepts Kyc Input\n\n    function getOnlyAcceptsKycInput(address _identifiedAddress) public view override returns (bool result) {\n        return onlyAcceptsKycInput[_identifiedAddress];\n    }\n\n    /// @param _identifiedAddress The public address to check.\n    /// @dev Gets whether the user has set Accepts Kyc Input permanently (whether on or off).\n    /// @return result whether the user has set Accepts Kyc Input permanently (whether on or off)\n\n    function getOnlyAcceptsKycInputPermanently(address _identifiedAddress) public view override returns (bool result) {\n        return lockOnlyAcceptsKycInputPermanently[_identifiedAddress];\n    }\n\n    //---------------- Token Upgrades ----------------//\n\n\n    //****************************************************************************************************************//\n    //@note: instead of explicitly returning, assign return value to variable  allows the code after the _;\n    // in the mutex modifier to be run!\n    //****************************************************************************************************************//\n\n    /// @param _value The amount of tokens to upgrade.\n    /// @dev Upgrades the user's tokens by sending them to the next contract (which will do the same). Sets auto upgrade for the user as well.\n    /// @return result\n    ///    | 3 = withdrew correctly\n    ///    | 2 = could not withdraw\n    ///    | 1 = not enough balance\n    ///    | 0 = contract has not been updated\n\n    function upgradeNativeTokens(uint256 _value) mutex public returns (uint256 result) {\n        //check if it's been updated\n        if (hasBeenUpdated == true) {\n            //make sure the msg.sender has enough synthetic fuel to transfer\n            if (balances[msg.sender][nativeBip32X_type] >= _value) {\n                autoUpgradeEnabled[msg.sender] = true;\n\n                //then proceed to send to address(this) to initiate the autoUpgrade\n                // to the new contract.\n                bool withdrawResult = withdrawToShyftKycContract(address(this), msg.sender, _value);\n                if (withdrawResult == true) {\n                    //withdrew correctly\n                    result = 3;\n                } else {\n                    //could not withdraw\n                    result = 2;\n                }\n            } else {\n                //not enough balance\n                result = 1;\n            }\n        } else {\n            //contract has not been updated\n            result = 0;\n        }\n    }\n\n    /// @param _autoUpgrade Whether the tokens should be automatically upgraded when sent to this contract.\n    /// @dev Sets auto upgrade for the message sender, for fallback functionality to upgrade tokens on receipt. The only reason a user would want to call this function is to modify behaviour *after* this contract has been updated, thus allowing choice.\n\n    function setAutoUpgrade(bool _autoUpgrade) public {\n        autoUpgradeEnabled[msg.sender] = _autoUpgrade;\n    }\n\n    //---------------- Native withdrawal / transfer functions ----------------//\n\n    /// @param _to The destination payable address to send to.\n    /// @param _value The amount of tokens to transfer.\n    /// @dev Transfers native tokens (based on the current native Bip32X type, ex Shyft = 7341, Ethereum = 60) to the user's wallet.\n    /// @notice 30k gas limit for transfers.\n    /// @return ok\n    ///    | true = tokens withdrawn properly to another erc223 contract\n    ///    | false = the user does not have enough balance, or found a smart contract address instead of a payable address.\n\n    function withdrawNative(address payable _to, uint256 _value) mutex public override returns (bool ok) {\n        if (balances[msg.sender][nativeBip32X_type] >= _value) {\n            uint codeLength;\n\n            //retrieve the size of the code on target address, this needs assembly\n            assembly {\n                codeLength := extcodesize(_to)\n            }\n\n            //makes sure it's sending to a native (non-contract) address\n            if (codeLength == 0) {\n                balances[msg.sender][nativeBip32X_type] = balances[msg.sender][nativeBip32X_type].sub(_value);\n                totalSupplyBip32X[nativeBip32X_type] = totalSupplyBip32X[nativeBip32X_type].sub(_value);\n\n                //@note: this is going to a regular account. the existing balance has already been reduced,\n                // and as such the only thing to do is to send the actual Shyft fuel (or Ether, etc) to the\n                // target address.\n\n                _to.transfer(_value);\n\n                emit EVT_WithdrawToAddress(msg.sender, _to, _value);\n                ok = true;\n            } else {\n                ok = false;\n            }\n        } else {\n            ok = false;\n        }\n    }\n\n    /// @param _to The destination smart contract address to send to.\n    /// @param _value The amount of tokens to transfer.\n    /// @dev Transfers SHFT tokens to another external contract, using Erc223 mechanisms.\n    /// @notice 30k gas limit for transfers.\n    /// @return ok\n    ///    | true = tokens withdrawn properly to another erc223 contract\n    ///    | false = the user does not have enough balance, or not a smart contract address\n\n    function withdrawToExternalContract(address _to, uint256 _value) mutex public override returns (bool ok) {\n        if (balances[msg.sender][nativeBip32X_type] >= _value) {\n            uint codeLength;\n            //            bytes memory empty;\n\n            //retrieve the size of the code on target address, this needs assembly\n            assembly {\n                codeLength := extcodesize(_to)\n            }\n\n            //makes sure it's sending to a contract address\n            if (codeLength == 0) {\n                ok = false;\n            } else {\n                balances[msg.sender][nativeBip32X_type] = balances[msg.sender][nativeBip32X_type].sub(_value);\n                totalSupplyBip32X[nativeBip32X_type] = totalSupplyBip32X[nativeBip32X_type].sub(_value);\n\n                //this will fail when sending to contracts with fallback functions that consume more than 20000 gas\n\n                (bool success, ) = _to.call{value: _value, gas: 30000}(\"\");\n\n                IErc223ReceivingContract receiver = IErc223ReceivingContract(_to);\n                bool fallbackSuccess = receiver.tokenFallback(msg.sender, _value, abi.encodePacked(shyftKycContractSig));\n\n                if (success == true && fallbackSuccess == true) {\n                    emit EVT_WithdrawToExternalContract(msg.sender, _to, _value);\n\n                    ok = true;\n                } else {\n                    //@note:@here: needs revert() due to asset transactions already having occurred\n                    revert();\n                    //ok = false;\n                }\n\n            }\n        } else {\n            ok = false;\n        }\n    }\n\n    /// @param _shyftKycContractAddress The address of the Shyft Kyc Contract that is being send to.\n    /// @param _to The destination address to send to.\n    /// @param _value The amount of tokens to transfer.\n    /// @dev Transfers SHFT tokens to another Shyft Kyc contract.\n    /// @notice 120k gas limit for transfers.\n    /// @return ok\n    ///    | true = tokens withdrawn properly to another Kyc Contract.\n    ///    | false = the user does not have enough balance, or not a correct shyft contract address, or receiver only accepts kyc input.\n\n    function withdrawToShyftKycContract(address _shyftKycContractAddress, address _to, uint256 _value) mutex public override returns (bool ok) {\n        if (balances[msg.sender][nativeBip32X_type] >= _value) {\n            uint codeLength;\n\n            //retrieve the size of the code on target address, this needs assembly\n            assembly {\n                codeLength := extcodesize(_shyftKycContractAddress)\n            }\n\n            //makes sure it's sending to a contract address\n            if (codeLength == 0) {\n                // not a smart contract\n                ok = false;\n            } else {\n                balances[msg.sender][nativeBip32X_type] = balances[msg.sender][nativeBip32X_type].sub(_value);\n                totalSupplyBip32X[nativeBip32X_type] = totalSupplyBip32X[nativeBip32X_type].sub(_value);\n\n                IShyftKycContract receivingShyftKycContract = IShyftKycContract(_shyftKycContractAddress);\n\n                if (receivingShyftKycContract.getOnlyAcceptsKycInput(_to) == false) {\n                    // sending to ShyftKycContracts only; migrateFromKycContract uses ~75830 - 21000 gas to execute,\n                    // with a registry lookup. Adding 50k more just in case there are other checks in the v2.\n                    if (receivingShyftKycContract.migrateFromKycContract{gas: 120000, value: _value}(_to) == false) {\n                        revert();\n                    }\n\n                    emit EVT_WithdrawToShyftKycContract(msg.sender, _to, _value);\n\n                    ok = true;\n                } else {\n                    // receiver only accepts kyc input\n                    ok = false;\n                }\n            }\n        } else {\n            ok = false;\n        }\n    }\n\n    //---------------- ERC 223 receiver ----------------//\n\n    /// @param _from The address of the origin.\n    /// @param _value The address of the recipient.\n    /// @param _data The bytes data of any ERC223 transfer function.\n    /// @dev Transfers assets to destination, with ERC20 functionality. (basic ERC20 functionality, but blocks transactions if Only Accepts Kyc Input is set to true.)\n    /// @return ok returns true if the checks pass and there are enough allowed + actual tokens to transfer to the recipient.\n\n    function tokenFallback(address _from, uint _value, bytes memory _data) mutex public override returns (bool ok) {\n        // block transfers if the recipient only allows kyc input, check other factors\n        require(onlyAcceptsKycInput[_from] == false);\n\n\n        IShyftKycContractRegistry contractRegistry = IShyftKycContractRegistry(shyftKycContractRegistryAddress);\n\n        // if kyc registry exists, check if only using a known kyc contract communication cycle, then verify the message\n        // sender is a kyc contract.\n        if (shyftKycContractRegistryAddress != address(0) && contractRegistry.isShyftKycContract(address(msg.sender)) == true) {\n            revert(\"cannot process fallback from Shyft Kyc Contract in this version of Shyft Core\");\n        }\n\n        uint256 bip32X_type;\n\n        bytes4 tokenSig;\n\n        //make sure we have enough bytes to determine a signature\n        if (_data.length >= 4) {\n            tokenSig = bytes4(uint32(bytes4(bytes1(_data[3])) >> 24) + uint32(bytes4(bytes1(_data[2])) >> 16) + uint32(bytes4(bytes1(_data[1])) >> 8) + uint32(bytes4(bytes1(_data[0]))));\n        }\n\n        //@note: for token indexing, we use higher range addressable space (256 bit integer).\n        // this guarantees practically infinite indexes.\n        //@note: using msg.sender in the keccak hash since msg.sender in this case (should) be the\n        // contract itself (and allowing this to be passed in, instead of using msg.sender, does not\n        // suffice as any contract could then call this fallback.)\n        //\n        // thus, this fallback will not function properly with abstracted synthetics.\n        bip32X_type = uint256(keccak256(abi.encodePacked(nativeBip32X_type, msg.sender)));\n        balances[_from][bip32X_type] = balances[_from][bip32X_type].add(_value);\n\n        emit EVT_Bip32X_TypeTokenFallback(msg.sender, _from, _value, nativeBip32X_type, bip32X_type);\n        emit EVT_TransferAndMintBip32X_type(msg.sender, _from, _value, bip32X_type);\n\n        ok = true;\n\n        if (ok == true) {\n            emit EVT_Erc223TokenFallback(_from, _value, _data);\n        }\n    }\n\n    //---------------- ERC 223/20 ----------------//\n\n    /// @param _who The address of the user.\n    /// @dev Gets the balance for the SHFT token type for a specific user.\n    /// @return the balance of the SHFT token type for the user\n\n    function balanceOf(address _who) public view override returns (uint) {\n        return balances[_who][ShyftTokenType];\n    }\n\n    /// @dev Gets the name of the token.\n    /// @return _name of the token.\n\n    function name() public pure returns (string memory _name) {\n        return \"Shyft [ Byfrost ]\";\n    }\n\n    /// @dev Gets the symbol of the token.\n    /// @return _symbol the symbol of the token\n\n    function symbol() public pure returns (string memory _symbol) {\n        //@note: \"SFT\" is the 3 letter variant\n        return \"SHFT\";\n    }\n\n    /// @dev Gets the number of decimals of the token.\n    /// @return _decimals number of decimals of the token.\n\n    function decimals() public pure returns (uint8 _decimals) {\n        return 18;\n    }\n\n    /// @dev Gets the number of SHFT tokens available.\n    /// @return result total supply of SHFT tokens\n\n    function totalSupply() public view override returns (uint256 result) {\n        return getTotalSupplyBip32X(ShyftTokenType);\n    }\n\n    /// @param _to The address of the origin.\n    /// @param _value The address of the recipient.\n    /// @dev Transfers assets to destination, with ERC20 functionality. (basic ERC20 functionality, but blocks transactions if Only Accepts Kyc Input is set to true.)\n    /// @return ok returns true if the checks pass and there are enough allowed + actual tokens to transfer to the recipient.\n\n    function transfer(address _to, uint256 _value) public override returns (bool ok) {\n        // block transfers if the recipient only allows kyc input, check other factors\n        if (onlyAcceptsKycInput[_to] == false && balances[msg.sender][ShyftTokenType] >= _value) {\n            balances[msg.sender][ShyftTokenType] = balances[msg.sender][ShyftTokenType].sub(_value);\n\n            balances[_to][ShyftTokenType] = balances[_to][ShyftTokenType].add(_value);\n\n            emit Transfer(msg.sender, _to, _value);\n\n            return true;\n        } else {\n            return false;\n        }\n    }\n\n    /// @param _to The address of the origin.\n    /// @param _value The address of the recipient.\n    /// @param _data The bytes data of any ERC223 transfer function.\n    /// @dev Transfers assets to destination, with ERC223 functionality. (basic ERC223 functionality, but blocks transactions if Only Accepts Kyc Input is set to true.)\n    /// @return ok returns true if the checks pass and there are enough allowed + actual tokens to transfer to the recipient.\n\n    function transfer(address _to, uint _value, bytes memory _data) mutex public override returns (bool ok) {\n        // block transfers if the recipient only allows kyc input, check other factors\n        if (onlyAcceptsKycInput[_to] == false && balances[msg.sender][ShyftTokenType] >= _value) {\n            uint codeLength;\n\n            //retrieve the size of the code on target address, this needs assembly\n            assembly {\n                codeLength := extcodesize(_to)\n            }\n\n            balances[msg.sender][ShyftTokenType] = balances[msg.sender][ShyftTokenType].sub(_value);\n\n            balances[_to][ShyftTokenType] = balances[_to][ShyftTokenType].add(_value);\n\n\n            if (codeLength > 0) {\n                IErc223ReceivingContract receiver = IErc223ReceivingContract(_to);\n                if (receiver.tokenFallback(msg.sender, _value, _data) == true) {\n                    ok = true;\n                } else {\n                    //@note: must revert() due to asset transactions already having occurred.\n                    revert();\n                }\n            } else {\n                ok = true;\n            }\n        }\n\n        if (ok == true) {\n            emit Transfer(msg.sender, _to, _value, _data);\n        }\n    }\n\n    /// @param _tokenOwner The address of the origin.\n    /// @param _spender The address of the recipient.\n    /// @dev Get the current allowance for the basic Shyft token type. (basic ERC20 functionality)\n    /// @return remaining the current allowance for the basic Shyft token type for a specific user\n\n    function allowance(address _tokenOwner, address _spender) public view override returns (uint remaining) {\n        return allowed[_tokenOwner][_spender][ShyftTokenType];\n    }\n\n\n    /// @param _spender The address of the recipient.\n    /// @param _tokens The amount of tokens to transfer.\n    /// @dev Allows pre-approving assets to be sent to a participant. (basic ERC20 functionality)\n    /// @notice This (standard) function known to have an issue.\n    /// @return success whether the approve function completed successfully\n\n    function approve(address _spender, uint _tokens) public override returns (bool success) {\n        allowed[msg.sender][_spender][ShyftTokenType] = _tokens;\n\n        //example of issue:\n        //user a has 20 tokens allowed from zero :: no incentive to frontrun\n        //user a has +2 tokens allowed from 20 :: frontrunning would deplete 20 and add 2 :: incentive there.\n\n        emit Approval(msg.sender, _spender, _tokens);\n\n        return true;\n    }\n\n    /// @param _from The address of the origin.\n    /// @param _to The address of the recipient.\n    /// @param _tokens The amount of tokens to transfer.\n    /// @dev Performs the withdrawal of pre-approved assets. (basic ERC20 functionality, but blocks transactions if Only Accepts Kyc Input is set to true.)\n    /// @return success returns true if the checks pass and there are enough allowed + actual tokens to transfer to the recipient.\n\n    function transferFrom(address _from, address _to, uint _tokens) public override returns (bool success) {\n        // block transfers if the recipient only allows kyc input, check other factors\n        if (onlyAcceptsKycInput[_to] == false && allowed[_from][msg.sender][ShyftTokenType] >= _tokens && balances[_from][ShyftTokenType] >= _tokens) {\n            allowed[_from][msg.sender][ShyftTokenType] = allowed[_from][msg.sender][ShyftTokenType].sub(_tokens);\n\n            balances[_from][ShyftTokenType] = balances[_from][ShyftTokenType].sub(_tokens);\n            balances[_to][ShyftTokenType] = balances[_to][ShyftTokenType].add(_tokens);\n\n            emit Transfer(_from, _to, _tokens);\n\n            return true;\n        } else {\n            return false;\n        }\n    }\n\n    //---------------- Shyft Token Transfer [KycContract] ----------------//\n\n    /// @param _to The address of the recipient.\n    /// @param _value The amount of tokens to transfer.\n    /// @param _bip32X_type The Bip32X type of the asset to transfer.\n    /// @dev | Transfers assets from one Shyft user to another, with restrictions on the transfer if the recipient has enabled Only Accept KYC Input.\n    /// @return result returns true if the transaction completes, reverts if it does not.\n\n    function transferBip32X_type(address _to, uint256 _value, uint256 _bip32X_type) public returns (bool result) {\n        // block transfers if the recipient only allows kyc input\n        require(onlyAcceptsKycInput[_to] == false);\n        require(balances[msg.sender][_bip32X_type] >= _value);\n\n        balances[msg.sender][_bip32X_type] = balances[msg.sender][_bip32X_type].sub(_value);\n        balances[_to][_bip32X_type] = balances[_to][_bip32X_type].add(_value);\n\n        emit EVT_TransferBip32X_type(msg.sender, _to, _value, _bip32X_type);\n        return true;\n    }\n\n    //---------------- Shyft Token Transfer [Erc223] ----------------//\n\n    /// @param _erc223ContractAddress The address of the ERC223 contract that\n    /// @param _to The address of the recipient.\n    /// @param _value The amount of tokens to transfer.\n    /// @dev | Withdraws a Bip32X type Shyft synthetic asset into its origin ERC223 contract. Burns the current synthetic balance.\n    ///      | Cannot withdraw Bip32X type into an incorrect destination contract (as the hash will not match).\n    /// @return ok returns true if the transaction completes, reverts if it does not\n\n    function withdrawTokenBip32X_typeToErc223(address _erc223ContractAddress, address _to, uint256 _value) mutex public returns (bool ok) {\n        uint256 bip32X_type = uint256(keccak256(abi.encodePacked(nativeBip32X_type, _erc223ContractAddress)));\n\n        require(balances[msg.sender][bip32X_type] >= _value);\n\n        bytes memory empty;\n\n        balances[msg.sender][bip32X_type] = balances[msg.sender][bip32X_type].sub(_value);\n\n        bytes4 sig = bytes4(keccak256(abi.encodePacked(\"transfer(address,uint256,bytes)\")));\n        (bool success, ) = _erc223ContractAddress.call(abi.encodeWithSelector(sig, _to, _value, empty));\n\n        IErc223ReceivingContract receiver = IErc223ReceivingContract(_erc223ContractAddress);\n        bool fallbackSuccess = receiver.tokenFallback(msg.sender, _value, empty);\n\n        if (fallbackSuccess == true && success == true) {\n            emit EVT_TransferAndBurnBip32X_type(_erc223ContractAddress, msg.sender, _to, _value, bip32X_type);\n\n            ok = true;\n        } else {\n            //@note: reverts since a transactional event has occurred.\n            revert();\n        }\n    }\n\n    //---------------- Shyft Token Transfer [Erc20] ----------------//\n\n    /// @param _erc20ContractAddress The address of the ERC20 contract that\n    /// @param _value The amount of tokens to transfer.\n    /// @dev | Transfers assets from any Erc20 contract to a Bip32X type Shyft synthetic asset. Mints the current synthetic balance.\n    /// @return ok returns true if the transaction completes, reverts if it does not\n\n    function transferFromErc20Token(address _erc20ContractAddress, uint256 _value) mutex public returns (bool ok) {\n        require(_erc20ContractAddress != address(this));\n\n        // block transfers if the recipient only allows kyc input, check other factors\n        require(onlyAcceptsKycInput[msg.sender] == false);\n\n        IErc20 erc20Contract = IErc20(_erc20ContractAddress);\n\n        if (erc20Contract.allowance(msg.sender, address(this)) >= _value) {\n            bool transferFromResult = erc20Contract.transferFrom(msg.sender, address(this), _value);\n\n            if (transferFromResult == true) {\n                //@note: using _erc20ContractAddress in the keccak hash since _erc20ContractAddress will be where\n                // the tokens are created and managed.\n                //\n                // thus, this fallback will not function properly with abstracted synthetics (including this contract)\n                // hence the initial require() check above to prevent this behaviour.\n\n                uint256 bip32X_type = uint256(keccak256(abi.encodePacked(nativeBip32X_type, _erc20ContractAddress)));\n                balances[msg.sender][bip32X_type] = balances[msg.sender][bip32X_type].add(_value);\n\n                emit EVT_TransferAndMintBip32X_type(_erc20ContractAddress, msg.sender, _value, bip32X_type);\n\n                //transfer successful\n                ok = true;\n            } else {\n                //@note: reverts since a transactional event has occurred.\n                revert();\n            }\n        } else {\n            //not enough allowance\n        }\n    }\n\n    /// @param _erc20ContractAddress The address of the ERC20 contract that\n    /// @param _to The address of the recipient.\n    /// @param _value The amount of tokens to transfer.\n    /// @dev | Withdraws a Bip32X type Shyft synthetic asset into its origin ERC20 contract. Burns the current synthetic balance.\n    ///      | Cannot withdraw Bip32X type into an incorrect destination contract (as the hash will not match).\n    /// @return ok returns true if the transaction completes, reverts if it does not\n\n    function withdrawTokenBip32X_typeToErc20(address _erc20ContractAddress, address _to, uint256 _value) mutex public returns (bool ok) {\n        uint256 bip32X_type = uint256(keccak256(abi.encodePacked(nativeBip32X_type, _erc20ContractAddress)));\n\n        require(balances[msg.sender][bip32X_type] >= _value);\n\n        balances[msg.sender][bip32X_type] = balances[msg.sender][bip32X_type].sub(_value);\n\n        bytes4 sig = bytes4(keccak256(abi.encodePacked(\"transfer(address,uint256)\")));\n        (bool success, ) = _erc20ContractAddress.call(abi.encodeWithSelector(sig, _to, _value));\n\n        if (success == true) {\n            emit EVT_TransferAndBurnBip32X_type(_erc20ContractAddress, msg.sender, _to, _value, bip32X_type);\n\n            ok = true;\n        } else {\n            //@note: reverts since a transactional event has occurred.\n            revert();\n        }\n    }\n}\n\n\n\n",
  "sourcePath": "/Users/fieldempress/Desktop/source/shyft/shyft_shyftcorecontracts/contracts/Reference/ShyftKycContract_March26EthLaunch.sol",
  "compiler": {
    "name": "solc",
    "version": "0.7.1+commit.f4a555be.Linux.g++"
  },
  "schemaVersion": "3.4.3",
  "updatedAt": "2021-10-07T20:04:13.803Z",
  "devdoc": {
    "details": "| Shyft Core :: Shyft Kyc Contract      |      | This contract is the nucleus of all of the Shyft stack. This current v1 version has basic functionality for upgrading and connects to the Shyft Cache Graph via Routing for further system expansion.      |      | It should be noted that all payable functions should utilize revert, as they are dealing with assets.      |      | \"Bip32X\" & Synthetics - Here we're using an extension of the Bip32 standard that effectively uses a hash of contract address & \"chainId\" to allow any erc20/erc223 contract to allow assets to move through Shyft's opt-in compliance rails.      | Ex. Ethereum = 60      | Shyft Network = 7341      |      | This contract is built so that when the totalSupply is asked for, much like transfer et al., it only references the ShyftTokenType. For getting the native balance of any specific Bip32X token, you'd call \"getTotalSupplyBip32X\" with the proper contract address.      |      | \"Auto Migration\"      | This contract was built with the philosophy that while there needs to be *some* upgrade path, unilaterally changing the existing contract address for Users is a bad idea in practice. Instead, we use a versioning system with the ability for users to set flags to automatically upgrade their liquidity on send into this particular contract, to any other contracts that have been updated so far (in a recursive manner).      |      | Auto-Migration of assets flow:      | 1. registry contract is set up      | 2. upgrade is called by registry contract      | 3. calls to fallback looks to see if upgrade is set      | 4. if so it asks the registry for the current contract address      | 5. it then uses the \"migrateFromKycContract\", which on the receiver's end will update the _to address passed in with the progression and now has the value from the \"migrateFromKycContract\"'s payable and thus the native fuel, to back the token increase to the _to's account.      |      |      | What's Next (V2 notes):      |      | \"Shyft Safe\" - timelocked assets that will work with Byfrost      | \"Shyft Byfrost\" - economic finality bridge infrastructure      |      | Compliance Channels:      | Addresses that only accept kyc input should be able to receive packages by the bridge that are only kyc'd across byfrost.      | Ultimate accountability chain could be difficult, though a hash map of critical ipfs resources of chain data could suffice.      | This would be the same issue as data accountability by trying to leverage multiple chains for data sales as well.",
    "events": {
      "EVT_Bip32X_TypeTokenFallback(address,address,uint256,uint256,uint256)": {
        "details": "Event for getting an erc223 asset inbound to this contract."
      },
      "EVT_WithdrawToAddress(address,address,uint256)": {
        "details": "Event for withdraw to address."
      },
      "EVT_WithdrawToExternalContract(address,address,uint256)": {
        "details": "Event for withdraw to external contract (w/ Erc223 fallbacks)."
      },
      "EVT_WithdrawToShyftKycContract(address,address,uint256)": {
        "details": "Event for withdraw to a specific shyft smart contract."
      },
      "EVT_migrateFromContract(address,uint256,uint256,uint256)": {
        "details": "Event for migration to another shyft kyc contract (from lower or equal version)."
      },
      "EVT_migrateToKycContract(address,uint256,address,address,uint256)": {
        "details": "Event for migration to another shyft kyc contract (of higher or equal version)."
      },
      "EVT_receivedNativeBalance(address,uint256)": {
        "details": "Event for receipt of native assets."
      }
    },
    "kind": "dev",
    "methods": {
      "allowance(address,address)": {
        "details": "Get the current allowance for the basic Shyft token type. (basic ERC20 functionality)",
        "params": {
          "_spender": "The address of the recipient.",
          "_tokenOwner": "The address of the origin."
        },
        "returns": {
          "remaining": "the current allowance for the basic Shyft token type for a specific user"
        }
      },
      "approve(address,uint256)": {
        "details": "Allows pre-approving assets to be sent to a participant. (basic ERC20 functionality)",
        "params": {
          "_spender": "The address of the recipient.",
          "_tokens": "The amount of tokens to transfer."
        },
        "returns": {
          "success": "whether the approve function completed successfully"
        }
      },
      "balanceOf(address)": {
        "details": "Gets the balance for the SHFT token type for a specific user.",
        "params": {
          "_who": "The address of the user."
        },
        "returns": {
          "_0": "the balance of the SHFT token type for the user"
        }
      },
      "constructor": {
        "details": "Invoke the constructor for ShyftSafe, which sets the owner and nativeBip32X_type class variables",
        "params": {
          "_nativeBip32X_type": "The native Bip32X type of this network. Ethereum is 60, Shyft is 7341, etc."
        }
      },
      "decimals()": {
        "details": "Gets the number of decimals of the token.",
        "returns": {
          "_decimals": "number of decimals of the token."
        }
      },
      "getBalanceBip32X(address,uint256)": {
        "details": "Gets balance for Shyft KYC token type & synthetics for a specfic user.",
        "params": {
          "_bip32X_type": "The Bip32X type to check.",
          "_identifiedAddress": "The address of the User."
        },
        "returns": {
          "balance": "the number of tokens of that specific bip32x type in the user's account"
        }
      },
      "getNativeTokenType()": {
        "details": "Gets the native bip32x token (should correspond to \"chainid\")",
        "returns": {
          "result": "the native bip32x token (should correspond to \"chainid\")"
        }
      },
      "getOnlyAcceptsKycInput(address)": {
        "details": "Gets whether the user has set Accepts Kyc Input.",
        "params": {
          "_identifiedAddress": "The public address to check."
        },
        "returns": {
          "result": "whether the user has set Accepts Kyc Input"
        }
      },
      "getOnlyAcceptsKycInputPermanently(address)": {
        "details": "Gets whether the user has set Accepts Kyc Input permanently (whether on or off).",
        "params": {
          "_identifiedAddress": "The public address to check."
        },
        "returns": {
          "result": "whether the user has set Accepts Kyc Input permanently (whether on or off)"
        }
      },
      "getTotalSupplyBip32X(uint256)": {
        "details": "Gets the total supply for a specific bip32x token.",
        "params": {
          "_bip32X_type": "The Bip32X type to check."
        },
        "returns": {
          "balance": "the number of tokens of that specific bip32x type in this contract"
        }
      },
      "kycSend(address,uint256,uint256,bool,bool)": {
        "details": "| Performs a \"kyc send\", which is an automatic search between addresses for counterparty relationships within Trust Channels (whos rules dictate accessibility for auditing/enforcement/jurisdiction/etc.). If there is a match, the designated amount of assets is sent to the recipient.      | As there are accessor methods to check whether or not the counterparty's cachegraph is \"dirty\", there is little need to pass a \"true\" unless the transaction is critical (eg. DeFi atomic flash wrap) and there is a chance that there will need to be a unification pass before the transaction can pass with full assurety.",
        "params": {
          "_amount": "The amount of assets that will be sent.",
          "_bip32X_type": "The bip32X type of the assets that will be sent. These are synthetic (wrapped) assets, based on atomic locking.",
          "_identifiedAddress": "The public address for the recipient to send assets (tokens) to.",
          "_payForDirty": "Whether the sender will pay the additional cost to unify a cachegraph's relationships (if not, it will not complete).",
          "_requiredConsentFromAllParties": "Whether to match the routing algorithm on the \"consented\" layer which indicates 2 way buy in of counterparty's attestation(s)"
        },
        "returns": {
          "result": "   | 0 = not enough balance to send    | 1 = consent required    | 2 = transfer cannot be processed due to transfer rules    | 3 = successful transfer"
        }
      },
      "migrateFromKycContract(address)": {
        "details": "| Migrates the user's assets from another Shyft Kyc Contract. The following conditions have to pass:      | a) message sender is a shyft kyc contract,      | b) sending shyft kyc contract is not of a later version than this one      | c) user on this shyft kyc contract have no restrictions on only accepting KYC input (will ease in v2)",
        "params": {
          "_to": "The user's address to migrate to."
        },
        "returns": {
          "result": "   | true = migration completed successfully    | [revert] = reverts on any situation that fails on the above parameters"
        }
      },
      "name()": {
        "details": "Gets the name of the token.",
        "returns": {
          "_name": "of the token."
        }
      },
      "removeOwner()": {
        "details": "Removes the owner (creator of this contract)'s control completely. Functions such as linking the registry & cachegraph (& shyftSafe's setBridge), and importantly initializing this as a byfrost contract, are triggered by the owner, and as such a setting phase and afterwards triggering this function could be seen as a completely appropriate workflow.",
        "returns": {
          "_0": "true if the owner is removed successfully"
        }
      },
      "setAutoUpgrade(bool)": {
        "details": "Sets auto upgrade for the message sender, for fallback functionality to upgrade tokens on receipt. The only reason a user would want to call this function is to modify behaviour *after* this contract has been updated, thus allowing choice.",
        "params": {
          "_autoUpgrade": "Whether the tokens should be automatically upgraded when sent to this contract."
        }
      },
      "setByfrostNetwork(uint256,uint256,address)": {
        "details": "Set by the owner, this functions sets it such that this contract was deployed on a Byfrost arm of the Shyft Network (on Ethereum for example). With this is a token grant that this contract should make to a specific distribution contract (ie. in the case of the initial Shyft Network launch, we have a small allocation originating on the Ethereum network).",
        "params": {
          "_bip32X_type": "The Bip32X type that represents the synthetic tokens that will be allocated.",
          "_distributionContract": "The public address of the distribution contract, that the tokens are allocated for.",
          "_tokenAmount": "The amount of tokens to be allocated."
        },
        "returns": {
          "result": "   | 2 = set byfrost as origin    | 1 = already set byfrost origin    | 0 = not owner"
        }
      },
      "setLockOnlyAcceptsKycInputPermanently()": {
        "details": "Gets whether the user has set Accepts Kyc Input.",
        "returns": {
          "result": "   | true = set lock for onlyAcceptsKycInput    | false = already set lock for onlyAcceptsKycInput"
        }
      },
      "setOnlyAcceptsKycInput(bool)": {
        "details": "Sets whether to accept only Kyc Input in the future.",
        "params": {
          "_onlyAcceptsKycInputValue": "Whether to accept only Kyc Input."
        },
        "returns": {
          "result": "   | true = updated onlyAcceptsKycInput    | false = cannot modify onlyAcceptsKycInput, as it is locked permanently by user"
        }
      },
      "setPrimaryNetwork()": {
        "details": "Set by the owner, this function sets it such that this contract was deployed on the primary Shyft Network. No further calls to setByfrostNetwork may be made.",
        "returns": {
          "result": "   | 2 = set primary network    | 1 = already set byfrost origin    | 0 = not owner"
        }
      },
      "setShyftCacheGraphAddress(address)": {
        "details": "Links Shyft CacheGraph to this contract's function flow.",
        "params": {
          "_shyftCacheGraphAddress": "The smart contract address for the Shyft CacheGraph that should be linked."
        },
        "returns": {
          "result": "   | 0: not owner    | 1: set shyft cache graph address"
        }
      },
      "setShyftKycContractRegistryAddress(address)": {
        "details": "Sets the Shyft Kyc Contract Registry address, so this contract can be upgraded.",
        "params": {
          "_addr": "The Shyft Kyc Contract Registry address to set to."
        },
        "returns": {
          "_0": "returns true if the function passes, otherwise reverts if the message sender is not the owner (deployer) of this contract."
        }
      },
      "symbol()": {
        "details": "Gets the symbol of the token.",
        "returns": {
          "_symbol": "the symbol of the token"
        }
      },
      "tokenFallback(address,uint256,bytes)": {
        "details": "Transfers assets to destination, with ERC20 functionality. (basic ERC20 functionality, but blocks transactions if Only Accepts Kyc Input is set to true.)",
        "params": {
          "_data": "The bytes data of any ERC223 transfer function.",
          "_from": "The address of the origin.",
          "_value": "The address of the recipient."
        },
        "returns": {
          "ok": "returns true if the checks pass and there are enough allowed + actual tokens to transfer to the recipient."
        }
      },
      "totalSupply()": {
        "details": "Gets the number of SHFT tokens available.",
        "returns": {
          "result": "total supply of SHFT tokens"
        }
      },
      "transfer(address,uint256)": {
        "details": "Transfers assets to destination, with ERC20 functionality. (basic ERC20 functionality, but blocks transactions if Only Accepts Kyc Input is set to true.)",
        "params": {
          "_to": "The address of the origin.",
          "_value": "The address of the recipient."
        },
        "returns": {
          "ok": "returns true if the checks pass and there are enough allowed + actual tokens to transfer to the recipient."
        }
      },
      "transfer(address,uint256,bytes)": {
        "details": "Transfers assets to destination, with ERC223 functionality. (basic ERC223 functionality, but blocks transactions if Only Accepts Kyc Input is set to true.)",
        "params": {
          "_data": "The bytes data of any ERC223 transfer function.",
          "_to": "The address of the origin.",
          "_value": "The address of the recipient."
        },
        "returns": {
          "ok": "returns true if the checks pass and there are enough allowed + actual tokens to transfer to the recipient."
        }
      },
      "transferBip32X_type(address,uint256,uint256)": {
        "details": "| Transfers assets from one Shyft user to another, with restrictions on the transfer if the recipient has enabled Only Accept KYC Input.",
        "params": {
          "_bip32X_type": "The Bip32X type of the asset to transfer.",
          "_to": "The address of the recipient.",
          "_value": "The amount of tokens to transfer."
        },
        "returns": {
          "result": "returns true if the transaction completes, reverts if it does not."
        }
      },
      "transferFrom(address,address,uint256)": {
        "details": "Performs the withdrawal of pre-approved assets. (basic ERC20 functionality, but blocks transactions if Only Accepts Kyc Input is set to true.)",
        "params": {
          "_from": "The address of the origin.",
          "_to": "The address of the recipient.",
          "_tokens": "The amount of tokens to transfer."
        },
        "returns": {
          "success": "returns true if the checks pass and there are enough allowed + actual tokens to transfer to the recipient."
        }
      },
      "transferFromErc20Token(address,uint256)": {
        "details": "| Transfers assets from any Erc20 contract to a Bip32X type Shyft synthetic asset. Mints the current synthetic balance.",
        "params": {
          "_erc20ContractAddress": "The address of the ERC20 contract that",
          "_value": "The amount of tokens to transfer."
        },
        "returns": {
          "ok": "returns true if the transaction completes, reverts if it does not"
        }
      },
      "updateContract(address)": {
        "details": "Upgrades the contract. Can only be called by a pre-set Shyft Kyc Contract Registry contract. Can only be called once.",
        "params": {
          "_addr": "The Shyft Kyc Contract Registry address to set to."
        },
        "returns": {
          "_0": "returns true if the function passes, otherwise reverts if the message sender is not the shyft kyc registry contract."
        }
      },
      "upgradeNativeTokens(uint256)": {
        "details": "Upgrades the user's tokens by sending them to the next contract (which will do the same). Sets auto upgrade for the user as well.",
        "params": {
          "_value": "The amount of tokens to upgrade."
        },
        "returns": {
          "result": "   | 3 = withdrew correctly    | 2 = could not withdraw    | 1 = not enough balance    | 0 = contract has not been updated"
        }
      },
      "withdrawAllNative(address)": {
        "details": "Withdraws all assets of this User to a specific address (only native assets, ie. Ether on Ethereum, Shyft on Shyft Network).",
        "params": {
          "_to": "The destination address to withdraw to."
        },
        "returns": {
          "_0": "balance the number of tokens of that specific bip32x type in the user's account"
        }
      },
      "withdrawNative(address,uint256)": {
        "details": "Transfers native tokens (based on the current native Bip32X type, ex Shyft = 7341, Ethereum = 60) to the user's wallet.",
        "params": {
          "_to": "The destination payable address to send to.",
          "_value": "The amount of tokens to transfer."
        },
        "returns": {
          "ok": "   | true = tokens withdrawn properly to another erc223 contract    | false = the user does not have enough balance, or found a smart contract address instead of a payable address."
        }
      },
      "withdrawToExternalContract(address,uint256)": {
        "details": "Transfers SHFT tokens to another external contract, using Erc223 mechanisms.",
        "params": {
          "_to": "The destination smart contract address to send to.",
          "_value": "The amount of tokens to transfer."
        },
        "returns": {
          "ok": "   | true = tokens withdrawn properly to another erc223 contract    | false = the user does not have enough balance, or not a smart contract address"
        }
      },
      "withdrawToShyftKycContract(address,address,uint256)": {
        "details": "Transfers SHFT tokens to another Shyft Kyc contract.",
        "params": {
          "_shyftKycContractAddress": "The address of the Shyft Kyc Contract that is being send to.",
          "_to": "The destination address to send to.",
          "_value": "The amount of tokens to transfer."
        },
        "returns": {
          "ok": "   | true = tokens withdrawn properly to another Kyc Contract.    | false = the user does not have enough balance, or not a correct shyft contract address, or receiver only accepts kyc input."
        }
      },
      "withdrawTokenBip32X_typeToErc20(address,address,uint256)": {
        "details": "| Withdraws a Bip32X type Shyft synthetic asset into its origin ERC20 contract. Burns the current synthetic balance.      | Cannot withdraw Bip32X type into an incorrect destination contract (as the hash will not match).",
        "params": {
          "_erc20ContractAddress": "The address of the ERC20 contract that",
          "_to": "The address of the recipient.",
          "_value": "The amount of tokens to transfer."
        },
        "returns": {
          "ok": "returns true if the transaction completes, reverts if it does not"
        }
      },
      "withdrawTokenBip32X_typeToErc223(address,address,uint256)": {
        "details": "| Withdraws a Bip32X type Shyft synthetic asset into its origin ERC223 contract. Burns the current synthetic balance.      | Cannot withdraw Bip32X type into an incorrect destination contract (as the hash will not match).",
        "params": {
          "_erc223ContractAddress": "The address of the ERC223 contract that",
          "_to": "The address of the recipient.",
          "_value": "The amount of tokens to transfer."
        },
        "returns": {
          "ok": "returns true if the transaction completes, reverts if it does not"
        }
      }
    },
    "stateVariables": {
      "allowed": {
        "details": "Mapping of users to users with amount of allowance set for specific bip32x assets."
      },
      "autoUpgradeEnabled": {
        "details": "Mapping of users to whether they have set auto-upgrade enabled."
      },
      "balances": {
        "details": "Mapping of users to their balances of specific bip32x assets."
      },
      "byfrostOrigin": {
        "details": "The origin of the Byfrost link, if this contract is used as such. follows chainId."
      },
      "hasBeenUpdated": {
        "details": "Whether there has been an upgrade from this contract."
      },
      "lockOnlyAcceptsKycInputPermanently": {
        "details": "Mapping of users to whether their Accepts Kyc Input option is locked permanently."
      },
      "locked": {
        "details": "mutex lock, prevent recursion in functions that use external function calls"
      },
      "nativeBip32X_type": {
        "details": "The native Bip32X type of this network. Ethereum is 60, Shyft is 7341, etc."
      },
      "onlyAcceptsKycInput": {
        "details": "Mapping of users to whether they Accepts Kyc Input only."
      },
      "owner": {
        "details": "The owner of this contract."
      },
      "setByfrostOrigin": {
        "details": "Flag for whether the Byfrost state has been set."
      },
      "shyftCacheGraphAddress": {
        "details": "The address of the Shyft Cache Graph contract."
      },
      "shyftKycContractRegistryAddress": {
        "details": "The address of the Shyft Kyc Registry contract."
      },
      "shyftKycContractSig": {
        "details": "The signature for triggering 'tokenFallback' in erc223 receiver contracts."
      },
      "shyftKycContractTokenUpgradeSig": {
        "details": "The signature for the upgrade event."
      },
      "totalSupplyBip32X": {
        "details": "Mapping of total supply specific bip32x assets."
      },
      "updatedShyftKycContractAddress": {
        "details": "The address of the next upgraded Shyft Kyc Contract."
      }
    },
    "version": 1
  },
  "userdoc": {
    "kind": "user",
    "methods": {
      "approve(address,uint256)": {
        "notice": "This (standard) function known to have an issue."
      },
      "kycSend(address,uint256,uint256,bool,bool)": {
        "notice": "| If the recipient has flags set to indicate that they *only* want to receive assets from kyc sources, *all* of the regular transfer functions will block except this one, and this one only passes on success."
      },
      "setByfrostNetwork(uint256,uint256,address)": {
        "notice": "| for created kyc contracts on other chains, they can be instantiated with specific bip32X_type amounts         | (for example, the shyft distribution contract on eth vs. shyft native)         |  '  uint256 bip32X_type = uint256(keccak256(abi.encodePacked(nativeBip32X_type, _erc20ContractAddress)));         |  '  bip32X_type = uint256(keccak256(abi.encodePacked(nativeBip32X_type, msg.sender)));         | the bip32X_type is formed by the hash of the native bip32x type (which is unique per-platform, as it depends on         | the deployed contract address) - byfrost only touches non-replay networks.         | so the formula for the bip32X_type would be HASH [ byfrost main chain bip32X_type ] & [ byfrost main chain kyc contract address ]         | these minted tokens are given to the distribution contract for further distribution. This is all this contract         | needs to know about the distribution contract."
      },
      "withdrawNative(address,uint256)": {
        "notice": "30k gas limit for transfers."
      },
      "withdrawToExternalContract(address,uint256)": {
        "notice": "30k gas limit for transfers."
      },
      "withdrawToShyftKycContract(address,address,uint256)": {
        "notice": "120k gas limit for transfers."
      }
    },
    "version": 1
  }
}