{
  "contractName": "ShyftKycDistribution",
  "abi": [
    {
      "inputs": [
        {
          "internalType": "bool",
          "name": "_transferTokenMode",
          "type": "bool"
        }
      ],
      "stateMutability": "nonpayable",
      "type": "constructor"
    },
    {
      "anonymous": false,
      "inputs": [
        {
          "indexed": true,
          "internalType": "address",
          "name": "recipient",
          "type": "address"
        },
        {
          "indexed": false,
          "internalType": "uint256",
          "name": "modifiedAllocation",
          "type": "uint256"
        },
        {
          "indexed": false,
          "internalType": "uint256",
          "name": "amountClaimed",
          "type": "uint256"
        },
        {
          "indexed": false,
          "internalType": "uint256",
          "name": "remainingDistribution",
          "type": "uint256"
        },
        {
          "indexed": false,
          "internalType": "uint256",
          "name": "tokensToReturnToCore",
          "type": "uint256"
        }
      ],
      "name": "EVT_cutoffTriggered",
      "type": "event"
    },
    {
      "anonymous": false,
      "inputs": [
        {
          "indexed": true,
          "internalType": "address",
          "name": "recipient",
          "type": "address"
        },
        {
          "indexed": false,
          "internalType": "uint256",
          "name": "modifiedAllocation",
          "type": "uint256"
        },
        {
          "indexed": false,
          "internalType": "uint256",
          "name": "amountClaimed",
          "type": "uint256"
        },
        {
          "indexed": false,
          "internalType": "uint256",
          "name": "overAllocatedDistribution",
          "type": "uint256"
        },
        {
          "indexed": false,
          "internalType": "uint256",
          "name": "tokensToReturnToCore",
          "type": "uint256"
        }
      ],
      "name": "EVT_cutoffTriggeredOverAllocated",
      "type": "event"
    },
    {
      "anonymous": false,
      "inputs": [
        {
          "indexed": true,
          "internalType": "address",
          "name": "recipient",
          "type": "address"
        },
        {
          "indexed": false,
          "internalType": "uint256",
          "name": "totalAllocated",
          "type": "uint256"
        },
        {
          "indexed": false,
          "internalType": "uint256",
          "name": "endCliff",
          "type": "uint256"
        },
        {
          "indexed": false,
          "internalType": "uint256",
          "name": "endVesting",
          "type": "uint256"
        },
        {
          "indexed": false,
          "internalType": "uint256",
          "name": "cutoffTokenAmount",
          "type": "uint256"
        },
        {
          "indexed": false,
          "internalType": "address",
          "name": "cutoffAdminAddress",
          "type": "address"
        },
        {
          "indexed": false,
          "internalType": "bytes32",
          "name": "distributionTableHash",
          "type": "bytes32"
        }
      ],
      "name": "EVT_newAllocation",
      "type": "event"
    },
    {
      "anonymous": false,
      "inputs": [
        {
          "indexed": true,
          "internalType": "address",
          "name": "recipient",
          "type": "address"
        },
        {
          "indexed": true,
          "internalType": "uint256",
          "name": "amountClaimed",
          "type": "uint256"
        },
        {
          "indexed": false,
          "internalType": "uint256",
          "name": "totalAllocated",
          "type": "uint256"
        },
        {
          "indexed": false,
          "internalType": "uint256",
          "name": "grandTotalClaimed",
          "type": "uint256"
        },
        {
          "indexed": false,
          "internalType": "uint256",
          "name": "timeStamp",
          "type": "uint256"
        }
      ],
      "name": "EVT_shyftClaimed",
      "type": "event"
    },
    {
      "inputs": [],
      "name": "INITIAL_SUPPLY",
      "outputs": [
        {
          "internalType": "uint256",
          "name": "",
          "type": "uint256"
        }
      ],
      "stateMutability": "view",
      "type": "function"
    },
    {
      "inputs": [
        {
          "internalType": "address",
          "name": "",
          "type": "address"
        }
      ],
      "name": "allocations",
      "outputs": [
        {
          "internalType": "uint256",
          "name": "endCliff",
          "type": "uint256"
        },
        {
          "internalType": "uint256",
          "name": "endVesting",
          "type": "uint256"
        },
        {
          "internalType": "uint256",
          "name": "totalAllocated",
          "type": "uint256"
        },
        {
          "internalType": "uint256",
          "name": "amountClaimed",
          "type": "uint256"
        },
        {
          "internalType": "uint256",
          "name": "cutoffTokenAmount",
          "type": "uint256"
        },
        {
          "internalType": "address",
          "name": "cutoffAdminAddress",
          "type": "address"
        },
        {
          "internalType": "bool",
          "name": "cutoffEnabled",
          "type": "bool"
        },
        {
          "internalType": "bytes32",
          "name": "distributionTableHash",
          "type": "bytes32"
        }
      ],
      "stateMutability": "view",
      "type": "function"
    },
    {
      "inputs": [],
      "name": "kycContractRegistryAddress",
      "outputs": [
        {
          "internalType": "address",
          "name": "",
          "type": "address"
        }
      ],
      "stateMutability": "view",
      "type": "function"
    },
    {
      "inputs": [],
      "name": "shyftCoreTokenAddress",
      "outputs": [
        {
          "internalType": "address payable",
          "name": "",
          "type": "address"
        }
      ],
      "stateMutability": "view",
      "type": "function"
    },
    {
      "inputs": [],
      "name": "startTime",
      "outputs": [
        {
          "internalType": "uint256",
          "name": "",
          "type": "uint256"
        }
      ],
      "stateMutability": "view",
      "type": "function"
    },
    {
      "inputs": [],
      "name": "totalClaimed",
      "outputs": [
        {
          "internalType": "uint256",
          "name": "",
          "type": "uint256"
        }
      ],
      "stateMutability": "view",
      "type": "function"
    },
    {
      "inputs": [],
      "name": "transferTokenMode",
      "outputs": [
        {
          "internalType": "bool",
          "name": "",
          "type": "bool"
        }
      ],
      "stateMutability": "view",
      "type": "function"
    },
    {
      "inputs": [
        {
          "internalType": "string",
          "name": "_distributionTableName",
          "type": "string"
        },
        {
          "internalType": "uint256",
          "name": "_vestEndSeconds",
          "type": "uint256"
        },
        {
          "components": [
            {
              "internalType": "uint256",
              "name": "timePeriodStart",
              "type": "uint256"
            },
            {
              "internalType": "uint256",
              "name": "timePeriodEnd",
              "type": "uint256"
            },
            {
              "internalType": "uint256",
              "name": "percentTokens",
              "type": "uint256"
            },
            {
              "internalType": "int128",
              "name": "percentTokens_fixedPoint",
              "type": "int128"
            }
          ],
          "internalType": "struct ShyftKycDistribution.distributionCycle[]",
          "name": "_cycles",
          "type": "tuple[]"
        },
        {
          "internalType": "uint256[]",
          "name": "_totalPercentAtEndOfCycles_18DecimalPrecision",
          "type": "uint256[]"
        }
      ],
      "name": "setupDistributionTable",
      "outputs": [
        {
          "internalType": "bool",
          "name": "success",
          "type": "bool"
        },
        {
          "internalType": "uint256",
          "name": "result",
          "type": "uint256"
        }
      ],
      "stateMutability": "nonpayable",
      "type": "function"
    },
    {
      "inputs": [
        {
          "internalType": "address",
          "name": "_recipient",
          "type": "address"
        },
        {
          "internalType": "uint256",
          "name": "_totalAllocated",
          "type": "uint256"
        },
        {
          "internalType": "uint256",
          "name": "_endCliffDays",
          "type": "uint256"
        },
        {
          "internalType": "uint256",
          "name": "_endVestingDays",
          "type": "uint256"
        },
        {
          "internalType": "uint256",
          "name": "_cutoffTokenAmount",
          "type": "uint256"
        },
        {
          "internalType": "address",
          "name": "_cutoffAdminAddress",
          "type": "address"
        },
        {
          "internalType": "bytes32",
          "name": "_distributionTableHash",
          "type": "bytes32"
        }
      ],
      "name": "setAllocation",
      "outputs": [
        {
          "internalType": "uint8",
          "name": "result",
          "type": "uint8"
        }
      ],
      "stateMutability": "nonpayable",
      "type": "function"
    },
    {
      "inputs": [
        {
          "internalType": "address",
          "name": "_recipient",
          "type": "address"
        }
      ],
      "name": "triggerCutoff",
      "outputs": [
        {
          "internalType": "uint8",
          "name": "result",
          "type": "uint8"
        },
        {
          "internalType": "uint256",
          "name": "distributionFound",
          "type": "uint256"
        }
      ],
      "stateMutability": "nonpayable",
      "type": "function"
    },
    {
      "inputs": [
        {
          "internalType": "address",
          "name": "_recipient",
          "type": "address"
        },
        {
          "internalType": "uint256",
          "name": "_currentDistributionTime",
          "type": "uint256"
        }
      ],
      "name": "getCurrentCycleNumber",
      "outputs": [
        {
          "internalType": "uint256",
          "name": "curCycle",
          "type": "uint256"
        }
      ],
      "stateMutability": "view",
      "type": "function"
    },
    {
      "inputs": [
        {
          "internalType": "address",
          "name": "_recipient",
          "type": "address"
        },
        {
          "internalType": "uint256",
          "name": "_referenceTime",
          "type": "uint256"
        }
      ],
      "name": "getTokensAvailable",
      "outputs": [
        {
          "internalType": "uint8",
          "name": "result",
          "type": "uint8"
        },
        {
          "internalType": "uint256",
          "name": "tokensTransferred",
          "type": "uint256"
        },
        {
          "internalType": "uint256",
          "name": "tokensReceived",
          "type": "uint256"
        },
        {
          "internalType": "uint256",
          "name": "currentCycleNumber",
          "type": "uint256"
        }
      ],
      "stateMutability": "view",
      "type": "function"
    },
    {
      "inputs": [
        {
          "internalType": "address",
          "name": "_recipient",
          "type": "address"
        }
      ],
      "name": "claimTokens",
      "outputs": [
        {
          "internalType": "bool",
          "name": "success",
          "type": "bool"
        },
        {
          "internalType": "uint256",
          "name": "result",
          "type": "uint256"
        },
        {
          "internalType": "uint256",
          "name": "timeStamp",
          "type": "uint256"
        }
      ],
      "stateMutability": "nonpayable",
      "type": "function"
    },
    {
      "inputs": [
        {
          "internalType": "address",
          "name": "_address",
          "type": "address"
        }
      ],
      "name": "setKycContractRegistryAddress",
      "outputs": [
        {
          "internalType": "bool",
          "name": "result",
          "type": "bool"
        }
      ],
      "stateMutability": "nonpayable",
      "type": "function"
    },
    {
      "inputs": [
        {
          "internalType": "address payable",
          "name": "_address",
          "type": "address"
        }
      ],
      "name": "setShyftCoreTokenAddress",
      "outputs": [
        {
          "internalType": "bool",
          "name": "result",
          "type": "bool"
        }
      ],
      "stateMutability": "nonpayable",
      "type": "function"
    },
    {
      "inputs": [],
      "name": "disableSettingNewAllocations",
      "outputs": [
        {
          "internalType": "bool",
          "name": "result",
          "type": "bool"
        }
      ],
      "stateMutability": "nonpayable",
      "type": "function"
    }
  ],
  "bytecode": "0x608060405234801561001057600080fd5b50604051620023cc380380620023cc83398101604081905261003191610068565b42600255600680546001600160a01b0319163317905560058054911515600160a01b0260ff60a01b1990921691909117905561008f565b600060208284031215610079578081fd5b81518015158114610088578182fd5b9392505050565b61232d806200009f6000396000f3fe608060405234801561001057600080fd5b50600436106101005760003560e01c806392cbcb5711610097578063d54ad2a111610066578063d54ad2a114610221578063df8de3e714610229578063e11d1fe81461024b578063f8957ebd1461025357610100565b806392cbcb57146101ce578063bcc1e120146101ee578063c1372993146101f6578063c4ec0af21461021957610100565b806352a9039c116100d357806352a9039c146101795780635ecf230a146101a05780637536b7d1146101b357806378e97925146101c657610100565b8063089a4b091461010557806326861d001461012f5780632ff2e9dc1461014f57806348bc5e7014610164575b600080fd5b61011861011336600461203d565b610274565b604051610126929190612186565b60405180910390f35b61014261013d366004611f52565b610363565b604051610126919061217b565b6101576103ba565b60405161012691906121ae565b61016c6103ca565b604051610126919061214e565b61018c610187366004611f52565b6103d9565b604051610126989796959493929190612219565b6101576101ae366004611f8a565b61042c565b6101426101c1366004611f52565b610520565b61015761056c565b6101e16101dc366004611fb5565b610572565b604051610126919061225a565b6101426106cc565b610209610204366004611f8a565b610701565b604051610126949392919061227b565b61016c6109d6565b6101576109e5565b61023c610237366004611f52565b6109eb565b60405161012693929190612196565b610142610d9a565b610266610261366004611f52565b610daa565b604051610126929190612268565b60065460009081906001600160a01b031633141561035357825184511415610347576000866040516020016102a99190612115565b60408051601f19818403018152918152815160209283012060008181526003909352912080549192509060ff1615156001146103385760006102ed82898989610ffd565b905060ff811661032757815460ff19166001908117835589516103179184019060208c0190611cef565b506001945091925061035a915050565b6000945060ff16925061035a915050565b6000600293509350505061035a565b5060009050600161035a565b5060009050805b94509492505050565b6005546000906001600160a01b031615801561038957506006546001600160a01b031633145b156103b15750600580546001600160a01b0319166001600160a01b03831617905560016103b5565b5060005b919050565b6b010b2a34233f9d49261c000081565b6000546001600160a01b031681565b6004602081905260009182526040909120805460018201546002830154600384015494840154600585015460069095015493959294919390916001600160a01b03811691600160a01b90910460ff169088565b6001600160a01b0382166000908152600460209081526040808320600601548352600390915281206002810180548392918591600019810190811061046d57fe5b9060005260206000209060040201600101541015610496576002015460001901915061051a9050565b60005b6002820154811015610515576000858360020183815481106104b757fe5b9060005260206000209060040201600001541080156104f65750858360020183815481106104e157fe5b90600052602060002090600402016001015410155b90506001811515141561050c5781935050610515565b50600101610499565b505090505b92915050565b600080546001600160a01b031615801561054457506006546001600160a01b031633145b156103b15750600080546001600160a01b0319166001600160a01b03831617905560016103b5565b60025481565b6006546000906001600160a01b0316331461058c57600080fd5b6001600160a01b03881661059f57600080fd5b6001600160a01b038816600090815260046020526040902060060154156105c557600080fd5b6b010b2a34233f9d49261c00008711156105de57600080fd5b838710156105eb57600080fd5b848611156105f857600080fd5b6001600160a01b03881660009081526004602052604090206106296106208862015180611289565b600254906112b7565b815561063b6106208762015180611289565b600182015560028101889055600481018590556005810180546001600160a01b0319166001600160a01b038681169190911790915560068201849055604051908a16907f464c843370ec5d663ad3dd50b2206dc176262ca9ebd2619c9e1e6749e770aa1a906106b5908b908b908b908b908b908b906121e8565b60405180910390a250600198975050505050505050565b6006546000906001600160a01b03163314156106fa5750600680546001600160a01b031916905560016106fe565b5060005b90565b6001600160a01b0382166000908152600460205260408120548190819081908511156109c0576001600160a01b03861660009081526004602052604090206002810154600590910154600160a01b900460ff16151560011415610789576001600160a01b038716600090815260046020819052604090912001546107869082906112c9565b90505b6001600160a01b0387166000908152600460205260409020600301548111156109ab576001600160a01b0387166000908152600460205260408120600101548190881115610832576001600160a01b0389166000908152600460205260409020600301546107f89084906112c9565b6001600160a01b038a1660009081526004602090815260408083206006015483526003909152902060020154909250600019019050610938565b6001600160a01b03891660009081526004602052604090205461085c908a906101ae908b906112c9565b6001600160a01b038a16600090815260046020908152604080832060060154835260039091528120600201805492935090918291908490811061089b57fe5b906000526020600020906004020190506000831115610915576001600160a01b038b16600090815260046020908152604080832060060154835260039182905290912001805460001985019081106108ef57fe5b90600052602060002090600291828204019190066010029054906101000a9004600f0b91505b805460018201546003830154610933928e929091600f0b868f6112de565b935050505b6001600160a01b038916600090815260046020526040902060030154821115610997576001600160a01b038916600090815260046020526040902060039081015483906109869082906112c9565b8396509650965096505050506109cd565b600296509094506000935091506109cd9050565b600160008060009450945094509450506109cd565b5060009250829150819050805b92959194509250565b6005546001600160a01b031681565b60015481565b6001600160a01b0381166000908152600460205260408120600281015460059091015482918291600160a01b900460ff16151560011415610a51576001600160a01b03851660009081526004602081905260409091200154610a4e9082906112c9565b90505b6001600160a01b0385166000908152600460205260409020600301548111610a855760006003600093509350935050610d93565b6001600160a01b038516600090815260046020526040902054421015610ab75760006002600093509350935050610d93565b600254421015610ac657600080fd5b6001600160a01b038516600090815260046020526040812060010154421015610b4557600080610af68842610701565b5050915091508160ff16600314610b3c578160ff1660021415610b285760006001600096509650965050505050610d93565b600080600096509650965050505050610d93565b9150610b489050565b50805b6001600160a01b038616600090815260046020526040812060030154610b6f9083906112c9565b6001600160a01b0388166000908152600460205260409020600301839055600154909150610b9d90826112b7565b6001908155600554600160a01b900460ff1615151415610cd357600080546040516329d75e8d60e21b81526001600160a01b039091169190829063a75d7a3490610beb9084906004016121ae565b60206040518083038186803b158015610c0357600080fd5b505afa158015610c17573d6000803e3d6000fd5b505050506040513d601f19601f82011682018060405250810190610c3b9190611f6e565b90506000816001600160a01b031663a9059cbb8b866040518363ffffffff1660e01b8152600401610c6d929190612162565b602060405180830381600087803b158015610c8757600080fd5b505af1158015610c9b573d6000803e3d6000fd5b505050506040513d601f19601f82011682018060405250810190610cbf919061201d565b905080610ccb57600080fd5b505050610d3f565b6000876001600160a01b031682604051610cec906106fe565b60006040518083038185875af1925050503d8060008114610d29576040519150601f19603f3d011682016040523d82523d6000602084013e610d2e565b606091505b509091505080610d3d57600080fd5b505b80876001600160a01b03167f23473644c1a1405247f2162e08bc2dadedbe8a322d6a0edbbbd96e42427bd1338460015442604051610d7f939291906121b7565b60405180910390a360019550935042925050505b9193909250565b600554600160a01b900460ff1681565b6001600160a01b0381166000908152600460205260408120600501548190600160a01b900460ff16610ff1576001600160a01b0383811660009081526004602052604090206005015416331415610fe5576001600160a01b0383166000908152600460208190526040822060058101805460ff60a01b1916600160a01b17905590810154600290910154610e3d916112c9565b6001600160a01b038516600090815260046020526040902060030154909150811115610f1b576001600160a01b038416600090815260046020526040812060030154610e8a9083906112c9565b6001600160a01b03861660009081526004602081905260409091200154909150610eb3816113d9565b6001600160a01b038616600081815260046020526040908190206003015490517f432e501bebad2273ab417f8ee156c01db763a2951ec7f00ac17b02c69147243991610f0591879190879087906121cd565b60405180910390a250600393509150610ff89050565b6001600160a01b038416600090815260046020526040812060030154610f4190836112c9565b6001600160a01b038616600090815260046020526040812060038101546002909101549293509091610f72916112c9565b9050610f7d816113d9565b6001600160a01b038616600081815260046020526040908190206003015490517f6fe506f7b64e50c3f55279891473a4b7ddc4ccde06c300106fa47baa8df88dcd91610fcf91879190879087906121cd565b60405180910390a250600293509150610ff89050565b50600190506000610ff8565b5060009050805b915091565b6000611007611d6d565b600080805b865181101561127c5761101d611d6d565b87828151811061102957fe5b6020026020010151905081600014156110525780511561104d57600993505061127c565b6110c7565b602085015181511461106857600893505061127c565b6001885103821461108957888160200151111561104d57600793505061127c565b8881602001511461109e57600693505061127c565b6040810151670de0b6b3a7640000906110b89085906112b7565b146110c757600593505061127c565b8682815181106110d357fe5b6020026020010151600014156110ed57600493505061127c565b60408101516110fd9084906112b7565b9250811561112e578287838151811061111257fe5b60200260200101511461112957600393505061127c565b611152565b8287838151811061113b57fe5b60200260200101511461115257600393505061127c565b93508360ff84166112515761118361116d8260400151611588565b61117e670de0b6b3a7640000611588565b6115a6565b8160600190600f0b9081600f0b81525050896003016111b761116d8985815181106111aa57fe5b6020026020010151611588565b81546001808201845560009384526020808520600280850490910180549484166010026101000a6001600160801b0381810219909616600f97880b8716919091021790558f81018054808501825590875295829020875160049097020195865590860151918501919091556040850151908401556060840151600390930180546001600160801b0319169390920b16919091179055611273565b61125f60038b016000611d98565b61126d60028b016000611dbd565b5061127c565b5060010161100c565b5090979650505050505050565b6000826112985750600061051a565b828202828482816112a557fe5b04146112b057600080fd5b9392505050565b6000828201838110156112b057600080fd5b6000828211156112d857600080fd5b50900390565b6001600160a01b03861660009081526004602052604081205481906113239061131490899061130e9087906112c9565b906112c9565b61131e888a6112c9565b6115f9565b9050600061133a85611335888561168c565b6116c2565b6001600160a01b038a166000908152600460205260409020600281015460059091015491925090600160a01b900460ff161515600114156113a0576001600160a01b038a166000908152600460208190526040909120015461139d9082906112c9565b90505b60006113ab836116f5565b905060006113c96113c46113be8561179b565b84611800565b611a7e565b9c9b505050505050505050505050565b600554600160a01b900460ff1615156001141561151457600080546040516329d75e8d60e21b81526001600160a01b039091169190829063a75d7a34906114249084906004016121ae565b60206040518083038186803b15801561143c57600080fd5b505afa158015611450573d6000803e3d6000fd5b505050506040513d601f19601f820116820180604052508101906114749190611f6e565b60055460405163a9059cbb60e01b81529192506000916001600160a01b038085169263a9059cbb926114ae92909116908890600401612162565b602060405180830381600087803b1580156114c857600080fd5b505af11580156114dc573d6000803e3d6000fd5b505050506040513d601f19601f82011682018060405250810190611500919061201d565b90508061150c57600080fd5b505050611585565b6005546040516000916001600160a01b0316908390611532906106fe565b60006040518083038185875af1925050503d806000811461156f576040519150601f19603f3d011682016040523d82523d6000602084013e611574565b606091505b50909150508061158357600080fd5b505b50565b6000677fffffffffffffff82111561159f57600080fd5b5060401b90565b600081600f0b600014156115b957600080fd5b600082600f0b604085600f0b901b816115ce57fe5b05905060016001607f1b031981128015906115f0575060016001607f1b038113155b6112b057600080fd5b60008161160557600080fd5b60008084121561161a57836000039350600190505b600083121561162c5760009290920391155b60006116388585611b02565b90508115611666576001607f1b816001600160801b0316111561165a57600080fd5b600003915061051a9050565b60016001607f1b03816001600160801b0316111561168357600080fd5b915061051a9050565b6000600f83810b9083900b0260401d60016001607f1b031981128015906115f0575060016001607f1b038113156112b057600080fd5b6000600f83810b9083900b0160016001607f1b031981128015906115f0575060016001607f1b038113156112b057600080fd5b600081600f0b6000141561170b575060006103b5565b60008083600f0b136117205782600003611722565b825b6001600160801b03169050600061173882611c4c565b90506070811015611751578060700382901b9150611764565b6070811115611764576070810382901c91505b607081613fbf01901b826001600160701b0316179150600084600f0b1215611790576001607f1b821791505b5060801b90506103b5565b6000816117aa575060006103b5565b8160006117b682611c4c565b905060708110156117cf578060700382901b91506117e2565b60708111156117e2576070810382901c91505b613fff0160701b6001600160701b03919091161760801b90506103b5565b6000617fff60f084811c8216919084901c8116908214156118b05780617fff141561187e576001600160801b0319858116908516141561184b57505050600160ff1b8116821861051a565b600160ff1b6001600160801b031986861816141561186e5750505081811761051a565b5061ffff60ef1b915061051a9050565b600160801b600160ff1b03841661189f575061ffff60ef1b915061051a9050565b505050600160ff1b8116821861051a565b80617fff14156118ec57600160801b600160ff1b0385166118db575061ffff60ef1b915061051a9050565b505050600160ff1b8216811861051a565b6001600160701b03608086901c1682611908576001925061190f565b600160701b175b6001600160701b03608086901c168261192b5760019250611932565b600160701b175b908102908161196057600160ff1b8787181661194f576000611955565b600160ff1b5b94505050505061051a565b928201926000600160e11b83101561199457600160e01b83101561198c5761198783611c4c565b61198f565b60e05b611997565b60e15b905061407081860110156119b2576000945060009250611a4f565b6140e081860110156119f5576140708510156119d757846140700383901c92506119ec565b6140708511156119ec57614070850383901b92505b60009450611a4f565b61c0dd8186011115611a0f57617fff945060009250611a4f565b6070811115611a26576070810383901c9250611a39565b6070811015611a39578060700383901b92505b6001600160701b03831692506140df8186010394505b82607086901b888a186001607f1b60801b1660801c6001600160801b0316171760801b9550505050505061051a565b6000617fff60f083901c16613fff811015611a9d5760009150506103b5565b6001607f1b608084901c10611ab157600080fd5b6140fe811115611ac057600080fd5b600160701b6001600160701b03608085901c161761406f821015611aea5761406f8290031c6112b0565b61406f8211156112b05761406e1982011b9392505050565b600081611b0e57600080fd5b60006001600160c01b038411611b335782604085901b81611b2b57fe5b049050611c38565b60c084811c6401000000008110611b4c576020918201911c5b620100008110611b5e576010918201911c5b6101008110611b6f576008918201911c5b60108110611b7f576004918201911c5b60048110611b8f576002918201911c5b60028110611b9e576001820191505b60bf820360018603901c6001018260ff0387901b81611bb957fe5b0492506001600160801b03831115611bd057600080fd5b608085901c83026001600160801b038616840260c088901c604089901b82811015611bfc576001820391505b608084901b92900382811015611c13576001820391505b829003608084901c8214611c2357fe5b888181611c2c57fe5b04870196505050505050505b6001600160801b038111156112b057600080fd5b6000808211611c5a57600080fd5b6000600160801b8310611c6f57608092831c92015b680100000000000000008310611c8757604092831c92015b6401000000008310611c9b57602092831c92015b620100008310611cad57601092831c92015b6101008310611cbe57600892831c92015b60108310611cce57600492831c92015b60048310611cde57600292831c92015b6002831061051a5760010192915050565b828054600181600116156101000203166002900490600052602060002090601f016020900481019282601f10611d3057805160ff1916838001178555611d5d565b82800160010185558215611d5d579182015b82811115611d5d578251825591602001919060010190611d42565b50611d69929150611dde565b5090565b60405180608001604052806000815260200160008152602001600081526020016000600f0b81525090565b5080546000825560010160029004906000526020600020908101906115859190611dde565b50805460008255600402906000526020600020908101906115859190611df3565b5b80821115611d695760008155600101611ddf565b5b80821115611d695760008082556001820181905560028201556003810180546001600160801b0319169055600401611df4565b600082601f830112611e37578081fd5b8135611e4a611e45826122c2565b61229b565b8181529150602080830190848101608080850287018301881015611e6d57600080fd5b6000805b86811015611eca5782848b031215611e87578182fd5b611e908361229b565b843581528585013586820152604080860135908201526060611eb48c828801611f40565b9082015286529484019492820192600101611e71565b5050505050505092915050565b600082601f830112611ee7578081fd5b8135611ef5611e45826122c2565b818152915060208083019084810181840286018201871015611f1657600080fd5b60005b84811015611f3557813584529282019290820190600101611f19565b505050505092915050565b8035600f81900b811461051a57600080fd5b600060208284031215611f63578081fd5b81356112b0816122e2565b600060208284031215611f7f578081fd5b81516112b0816122e2565b60008060408385031215611f9c578081fd5b8235611fa7816122e2565b946020939093013593505050565b600080600080600080600060e0888a031215611fcf578283fd5b8735611fda816122e2565b96506020880135955060408801359450606088013593506080880135925060a0880135612006816122e2565b8092505060c0880135905092959891949750929550565b60006020828403121561202e578081fd5b815180151581146112b0578182fd5b60008060008060808587031215612052578384fd5b843567ffffffffffffffff80821115612069578586fd5b818701915087601f83011261207c578586fd5b81358181111561208a578687fd5b602061209e601f8301601f1916820161229b565b8281528a828487010111156120b1578889fd5b828286018383013791820181019790975295870135945060408701359150808211156120db578384fd5b6120e788838901611e27565b935060608701359150808211156120fc578283fd5b5061210987828801611ed7565b91505092959194509250565b60008251815b81811015612135576020818601810151858301520161211b565b818111156121435782828501525b509190910192915050565b6001600160a01b0391909116815260200190565b6001600160a01b03929092168252602082015260400190565b901515815260200190565b9115158252602082015260400190565b92151583526020830191909152604082015260600190565b90815260200190565b9283526020830191909152604082015260600190565b93845260208401929092526040830152606082015260800190565b9586526020860194909452604085019290925260608401526001600160a01b0316608083015260a082015260c00190565b97885260208801969096526040870194909452606086019290925260808501526001600160a01b031660a0840152151560c083015260e08201526101000190565b60ff91909116815260200190565b60ff929092168252602082015260400190565b60ff94909416845260208401929092526040830152606082015260800190565b60405181810167ffffffffffffffff811182821017156122ba57600080fd5b604052919050565b600067ffffffffffffffff8211156122d8578081fd5b5060209081020190565b6001600160a01b038116811461158557600080fdfea264697066735822122042a8af6d780a959e7d0c3bb0aeb81aa1379e055b39f3e992fd9d196d338a100364736f6c63430007010033",
  "immutableReferences": {},
  "source": "pragma solidity 0.7.1;\npragma experimental ABIEncoderV2;\n//SPDX-License-Identifier: UNLICENSED\n\nimport \"../Libraries/ABDKMath64x64.sol\";\nimport \"../Libraries/ABDKMathQuad.sol\";\nimport \"../Libraries/SafeMath.sol\";\n\nimport \"../Interfaces/IShyftKycContract.sol\";\nimport \"../Interfaces/IShyftKycContractRegistry.sol\";\n\n/// @dev\n/// | This contract manages the distribution contracts for the Shyft Network. It is built to enable a native-mode or erc20-mode distribution with specific distribution tables (with individual cycles with %'s and times).\n/// | For each of the individuals allocated to, they have their own (potentially unique) distribution table, along with a potential cutoff (reduction) & the address which is managing that, as well as total distributed and any cliff/vesting information.\n/// @notice\n/// |  This function should be disabled before launch, but for testing purposes there is a requirement to be able to receive native fuel, so this is done in the most strict mode possible, by checking ownership before value transfer can occur.\n/// |  receive() external payable {\n/// |      if (msg.sender != owner) {\n/// |          revert();\n/// |      }\n/// |  }\n/// |\n/// | As such, the grunt setup file ('root'/Gruntfile.js) performs some operations to mirror this file to 'root'/Tests/ShyftKycDistribution_OutputForTestCompatibility.sol whenever any \"test\" related Grunt command is executed.\n\ncontract ShyftKycDistribution {\n    using SafeMath for uint256;\n\n    /// @dev Event for new shyft total claimed. created.\n    event EVT_shyftClaimed(address indexed recipient, uint256 indexed amountClaimed, uint256 totalAllocated, uint256 grandTotalClaimed, uint256 timeStamp);\n\n    /// @dev Event for new allocation created.\n    event EVT_newAllocation(address indexed recipient, uint256 totalAllocated, uint256 endCliff, uint256 endVesting, uint256 cutoffTokenAmount, address cutoffAdminAddress, bytes32 distributionTableHash);\n\n    /// @dev Event for cutoff being triggered.\n    event EVT_cutoffTriggered(address indexed recipient, uint256 modifiedAllocation, uint256 amountClaimed, uint256 remainingDistribution, uint256 tokensToReturnToCore);\n\n    /// @dev Event for cutoff being triggered (for the \"over allocated\" case where a user has already withdrawn more tokens than would have been available post-cutoff).\n    event EVT_cutoffTriggeredOverAllocated(address indexed recipient, uint256 modifiedAllocation, uint256 amountClaimed, uint256 overAllocatedDistribution, uint256 tokensToReturnToCore);\n\n    /// @dev The kyc contract registry address for erc20 token transfer mode.\n    address public kycContractRegistryAddress;\n\n    /// @dev The decimal factor for calculations (saves gas if it's pre-set here).\n    uint256 private constant decimalFactor = 10**uint256(18);\n\n    /// @dev The initial supply. Needs to be hardcoded for launch.\n    uint256 public constant INITIAL_SUPPLY = 322982495 * decimalFactor;\n\n    /// @dev The total amount of tokens claimed.\n    uint256 public totalClaimed;\n\n    /// @dev The start time for this distribution contract.\n    uint256 public startTime;\n\n    /// @dev Struct for the distribution cycles, with time periods of starting, ending, percentage of tokens and a 64.64 floating point representation for the percentages.\n    struct distributionCycle {\n        uint256 timePeriodStart;\n        uint256 timePeriodEnd;\n        uint256 percentTokens;\n        int128 percentTokens_fixedPoint;\n    }\n\n    /// @dev Struct for the Allocations with vesting, cutoff, and distribution table information.\n    struct Allocation {\n        uint256 endCliff;       // Tokens are locked until\n        uint256 endVesting;     // This is when the tokens are fully unvested\n        uint256 totalAllocated; // Total tokens allocated\n        uint256 amountClaimed;  // Total tokens claimed\n        uint256 cutoffTokenAmount;   // Amount of tokens reduced\n        address cutoffAdminAddress;  // address that has the ability to trigger the cutoff\n        bool    cutoffEnabled;     // whether the cutoff is enabled\n        bytes32 distributionTableHash;\n    }\n\n    /// @dev Struct for the distribution table - if it exists, its string name, an array of the distribution cycles, an array of the total percentage (cumulative) at the end of the cycles.\n    struct distributionTable {\n        bool exists;\n        string distributionTableName;\n\n        distributionCycle[] cyclesArray;\n        int128[] totalPercentAtEndOfCycleArray_fixedPoint;\n    }\n\n    /// @dev Mapping for keccak hash to distribution table.\n    mapping(bytes32 => distributionTable) distributionHashToTableMapping;\n\n    /// @dev Mapping for address to allocations.\n    mapping (address => Allocation) public allocations;\n\n    /// @dev Address for the any of the cutoff tokens to be transferred to.\n    address payable public shyftCoreTokenAddress;\n\n    /// @dev Whether this distribution contract is outputting to the Shyft KYC Contract token address.\n    bool public transferTokenMode;\n\n    /// @dev The owner of this contract.\n    address owner;\n\n    /// @param _transferTokenMode Whether this contract transfers tokens from the primary shyft kyc contract in the registry.\n    /// @dev Constructor function - Sets the start time and token transfer mode. False equates to native, True equates to erc20 token transfer mode.\n    constructor (bool _transferTokenMode) {\n        startTime = block.timestamp;\n\n        owner = msg.sender;\n        transferTokenMode = _transferTokenMode;\n    }\n\n    /// @param _vestEndSeconds When the vest ends in seconds.\n    /// @param _cycles An array of \"distributionCycle\"-formatted cycles.\n    /// @param _totalPercentAtEndOfCycles_18DecimalPrecision An array of the total percentage of distribution at the end of the cycles (cumulative).\n    /// @dev Internal method to assist setup up for a new distribution table with cycles and the total percentages of each cycle. Takes in a storage array and modifies it, erasing modifications if there's an error that was calculated.\n    /// @return result\n    ///    | 8 = (error) time period didn't start as the previous ended\n    ///    | 7 = (error) time period is higher than full vesting days\n    ///    | 6 = (error) time period does not end on the full vesting day\n    ///    | 5 = (error) allocation cycle does not equal 100%\n    ///    | 4 = (error) allocation cycle has zero percentage\n    ///    | 3 = (error) allocation cycles do not match\n    ///    | 0 = successfully calculated distribution table\n\n    function calculateDistributionTable(distributionTable storage _distributionTable,\n                                        uint256 _vestEndSeconds,\n                                        distributionCycle[] memory _cycles,\n                                        uint256[] memory _totalPercentAtEndOfCycles_18DecimalPrecision) internal returns (uint8 result) {\n        distributionCycle memory prevCycle;\n        uint8 errorCode;\n\n        uint256 totalPercentFromCycles = 0;\n\n        for (uint256 i = 0; i < _cycles.length; i++) {\n            distributionCycle memory curCycle = _cycles[i];\n\n            // take care of the first index\n            if (i == 0) {\n                if (curCycle.timePeriodStart != 0) {\n                    //time period does not start immediately\n                    errorCode = 9;\n                    break;\n                }\n            } else {\n                // always check for time alignment\n                if (curCycle.timePeriodStart != prevCycle.timePeriodEnd) {\n                    //time period didn't start as the previous ended\n                    errorCode = 8;\n                    break;\n                }\n                // take care of intermediate indexes\n                if (i != _cycles.length - 1) {\n                    if (curCycle.timePeriodEnd > _vestEndSeconds) {\n                        //time period is higher than full vesting days\n                        errorCode = 7;\n                        break;\n                    }\n                } else {\n                    //take care of the last index\n                    if (curCycle.timePeriodEnd != _vestEndSeconds) {\n                        //time period does not end on the full vesting day\n                        errorCode = 6;\n                        break;\n                    }\n\n                    if (totalPercentFromCycles.add(curCycle.percentTokens) != (decimalFactor)) {\n                        //allocation cycle does not equal 100%\n                        errorCode = 5;\n                        break;\n                    }\n                }\n            }\n\n            if (_totalPercentAtEndOfCycles_18DecimalPrecision[i] == 0) {\n                //allocation cycle has zero percentage\n                errorCode = 4;\n                break;\n            }\n\n            totalPercentFromCycles = totalPercentFromCycles.add(curCycle.percentTokens);\n\n            if (i > 0) {\n                if (_totalPercentAtEndOfCycles_18DecimalPrecision[i] != totalPercentFromCycles) {\n                    //allocation cycles do not match\n                    errorCode = 3;\n                    break;\n                }\n            } else {\n                if (_totalPercentAtEndOfCycles_18DecimalPrecision[i] != totalPercentFromCycles) {\n                    //allocation cycles do not match\n                    errorCode = 3;\n                    break;\n                }\n            }\n\n            prevCycle = curCycle;\n\n            if (errorCode == 0) {\n                curCycle.percentTokens_fixedPoint = ABDKMath64x64.div(ABDKMath64x64.fromUInt(curCycle.percentTokens), ABDKMath64x64.fromUInt(decimalFactor));\n\n                _distributionTable.totalPercentAtEndOfCycleArray_fixedPoint.push(ABDKMath64x64.div(ABDKMath64x64.fromUInt(_totalPercentAtEndOfCycles_18DecimalPrecision[i]), ABDKMath64x64.fromUInt(decimalFactor)));\n                _distributionTable.cyclesArray.push(curCycle);\n            } else {\n                //cleanup in case of an error\n                delete _distributionTable.totalPercentAtEndOfCycleArray_fixedPoint;\n                delete _distributionTable.cyclesArray;\n\n                break;\n            }\n        }\n\n        //return results of calculation\n        return (errorCode);\n    }\n\n    /// @param _distributionTableName The name of this distribution table.\n    /// @param _vestEndSeconds When the vest ends in seconds.\n    /// @param _cycles An array of \"distributionCycle\"-formatted cycles.\n    /// @param _totalPercentAtEndOfCycles_18DecimalPrecision An array of the total percentage of distribution at the end of the cycles (cumulative).\n    /// @dev Sets up a new distribution table with cycles and the total percentages of each cycle.\n    /// @return success\n    ///    | true = set new distribution table\n    ///    | false = error in distribution table\n    /// @return result\n    ///    | [uint256] = (success) distribution table keccak hash for further reference (in uint256 format)\n    ///    | 9 = (error) time period does not start immediately\n    ///    | 8 = (error) time period didn't start as the previous ended\n    ///    | 7 = (error) time period is higher than full vesting days\n    ///    | 6 = (error) time period does not end on the full vesting day\n    ///    | 5 = (error) allocation cycle does not equal 100%\n    ///    | 4 = (error) allocation cycle has zero percentage\n    ///    | 3 = (error) allocation cycles do not match\n    ///    | 2 = (error) distribution table already exists\n    ///    | 1 = (error) lengths of inputs do not match\n    ///    | 0 = (error) not owner\n\n    function setupDistributionTable(string memory _distributionTableName,\n                                    uint256 _vestEndSeconds,\n                                    distributionCycle[] memory _cycles,\n                                    uint256[] memory _totalPercentAtEndOfCycles_18DecimalPrecision) public returns (bool success, uint256 result) {\n        if (msg.sender == owner) {\n            if (_cycles.length == _totalPercentAtEndOfCycles_18DecimalPrecision.length) {\n                bytes32 distributionTableHash = keccak256(abi.encodePacked(_distributionTableName));\n\n                distributionTable storage newDistributionTable = distributionHashToTableMapping[distributionTableHash];\n\n                if (newDistributionTable.exists != true) {\n\n                    (uint8 errorCode) = calculateDistributionTable(newDistributionTable, _vestEndSeconds, _cycles, _totalPercentAtEndOfCycles_18DecimalPrecision);\n\n                    if (errorCode == 0) {\n                        newDistributionTable.exists = true;\n\n                        newDistributionTable.distributionTableName = _distributionTableName;\n\n                        //set new distribution table\n                        return (true, uint256(distributionTableHash));\n                    } else {\n                        //error in distribution table, return error code\n                        return (false, errorCode);\n                    }\n                } else {\n                    //distribution table already exists\n                    return (false, 2);\n                }\n            } else {\n                //lengths of inputs do not match\n                return (false, 1);\n            }\n        } else {\n            //not owner\n            return (false, 0);\n        }\n    }\n\n    /// @param _recipient The address of the recipient.\n    /// @param _totalAllocated The total tokens allocated.\n    /// @param _endCliffDays The end of the cliff (in days).\n    /// @param _endVestingDays The end of the vesting (in days).\n    /// @param _cutoffTokenAmount The amount of tokens that can be reduced from this allocation if triggered by the cutoff address.\n    /// @param _cutoffAdminAddress The address of the actor responsible for performing the cutoff (reduction) of the token allocation.\n    /// @param _distributionTableHash The hash of the distribution table that this allocation follows.\n    /// @dev Sets the allocation for a specific recipient with cliff, vest, potential reduction if cutoff is triggered, and the distribution table hash. Also blocks recipients from being added twice (referencing the distribution table hash) as an additional precautionary measure.\n    /// @return result should be \"1\" if all is processed successfully.\n\n    function setAllocation( address _recipient,\n                            uint256 _totalAllocated,\n                            uint256 _endCliffDays,\n                            uint256 _endVestingDays,\n                            uint256 _cutoffTokenAmount,\n                            address _cutoffAdminAddress,\n                            bytes32 _distributionTableHash) public returns (uint8 result) {\n        require(msg.sender == owner);\n        require(_recipient != address(0));\n        require(allocations[_recipient].distributionTableHash == bytes32(0));\n        require(_totalAllocated <= INITIAL_SUPPLY);\n        require(_totalAllocated >= _cutoffTokenAmount);\n        require(_endCliffDays <= _endVestingDays);\n\n        Allocation storage a = allocations[_recipient];\n        a.endCliff = startTime.add(_endCliffDays.mul(1 days));\n        a.endVesting = startTime.add(_endVestingDays.mul(1 days));\n        a.totalAllocated = _totalAllocated;\n        a.cutoffTokenAmount = _cutoffTokenAmount;\n        a.cutoffAdminAddress = _cutoffAdminAddress;\n        a.distributionTableHash = _distributionTableHash;\n\n        emit EVT_newAllocation(_recipient, _totalAllocated, _endCliffDays, _endVestingDays, _cutoffTokenAmount, _cutoffAdminAddress, _distributionTableHash);\n\n        return 1;\n    }\n\n    /// @param _amount The amount of tokens to send to the Shyft Core address.\n    /// @dev An internal function to add cutoff tokens back to the Shyft Core token pool.\n    function addCutoffTokensToCore(uint256 _amount) internal {\n        if (transferTokenMode == true) {\n            IShyftKycContractRegistry kycContractRegistry = IShyftKycContractRegistry(kycContractRegistryAddress);\n\n            //@note: only transfers out to the first contract, which has a balance outstanding of the totality of the\n            // distribution amount.\n\n            IShyftKycContract kycContract = IShyftKycContract(kycContractRegistry.getContractAddressOfVersion(0));\n\n            bool contractTxSuccess = kycContract.transfer(shyftCoreTokenAddress, _amount);\n\n            // need to revert due to transactional logic.\n            if (contractTxSuccess == false) {\n                revert();\n            }\n        } else {\n            // not limiting gas here so you can transfer to contracts etc.\n            (bool nativeTxSuccess, ) = shyftCoreTokenAddress.call{value: _amount}(\"\");\n\n            // need to revert due to transactional logic.\n            if (nativeTxSuccess == false) {\n                revert();\n            }\n        }\n    }\n\n    /// @param _recipient The address of the recipient.\n    /// @dev | Triggers the cutoff (reduction in allocation) for this recipient. This must be called by the address that has been specified previously to be the administrator for this recipient. If there are any tokens remaining from the distribution (total-cutoff) those are returned to the Shyft Core pool.\n    ///      | The algorithm is: \"remaining = (total - cutoff) - withdrawn\", as long as \"withdrawn\" is lower than the newly cutoff allocation, otherwise it'll return how many tokens are over-allocated.\n    /// @return result\n    ///    | 3 = set the cutoff for this recipient, still has distribution\n    ///    | 2 = set the cutoff for this recipient, was over already over-allocated\n    ///    | 1 = cutoff already triggered\n    ///    | 0 = not the cutoff admin address designated for this recipient\n    /// @return distributionFound if triggered, will return the remaining distribution\n\n    function triggerCutoff(address _recipient) public returns (uint8 result, uint256 distributionFound) {\n        if (allocations[_recipient].cutoffEnabled == false) {\n            if (msg.sender == allocations[_recipient].cutoffAdminAddress) {\n                allocations[_recipient].cutoffEnabled = true;\n\n                uint256 modifiedAllocation = allocations[_recipient].totalAllocated.sub(allocations[_recipient].cutoffTokenAmount);\n\n                if (allocations[_recipient].amountClaimed < modifiedAllocation) {\n                    // gets under-allocated distribution\n                    //\n                    // scenario: user has claimed 600 of 1000 tokens already, with a 10% cutoff.\n                    // cutoff reduced them to 900 tokens total. so return an under-allocated (900 - 600) amount.\n                    //\n                    // to calculate the tokens that should be returned to the shyft core treasury that handles cutoff\n                    // tokens, we:\n                    //\n                    // 1. take the total amount minus the cutoff, which gives us the modified allocation.\n                    // 2. we know that the tokens distributed already lower than this modified allocation.\n                    // 3. we know that there will be further distributions to this user.\n                    // 4. therefore the tokens returned to the shyft treasury would be: \"modified allocation - claimed\"\n\n                    uint256 remainingAvailableDistribution = modifiedAllocation.sub(allocations[_recipient].amountClaimed);\n\n                    uint256 tokensToReturnToCore = allocations[_recipient].cutoffTokenAmount;\n                    addCutoffTokensToCore(tokensToReturnToCore);\n\n                    emit EVT_cutoffTriggered(_recipient, modifiedAllocation, allocations[_recipient].amountClaimed, remainingAvailableDistribution, tokensToReturnToCore);\n\n                    //set the cutoff for this recipient, still has distribution\n                    return (3, remainingAvailableDistribution);\n                } else {\n                    // gets over-allocated distribution\n                    //\n                    // scenario: user has claimed 600 of 1000 tokens already, with a 50% cutoff.\n                    // cutoff reduced them to 500 tokens total. so return an over-allocated (600 - 500) amount.\n                    //\n                    // to calculate the tokens that should be returned to the shyft core treasury that handles cutoff\n                    // tokens, we:\n                    // 1. take the total amount minus the cutoff, which gives us the modified allocation.\n                    // 2. we know that the tokens distributed already are higher than this modified allocation.\n                    // 3. we know that there will be no further distribution to this user.\n                    // 4. therefore the tokens returned to the shyft treasury would be: \"total - claimed\"\n\n                    uint256 overAllocatedDistribution = allocations[_recipient].amountClaimed.sub(modifiedAllocation);\n\n                    uint256 tokensToReturnToCore = allocations[_recipient].totalAllocated.sub(allocations[_recipient].amountClaimed);\n                    addCutoffTokensToCore(tokensToReturnToCore);\n\n                    emit EVT_cutoffTriggeredOverAllocated(_recipient, modifiedAllocation, allocations[_recipient].amountClaimed, overAllocatedDistribution, tokensToReturnToCore);\n\n                    //set the cutoff for this recipient, was over already over-allocated\n                    return (2, overAllocatedDistribution);\n                }\n            } else {\n                //cutoff already triggered\n                return (1, 0);\n            }\n        } else {\n            //not the cutoff admin address designated for this recipient\n            return (0, 0);\n        }\n    }\n\n\n    /// @param _recipient The address of the recipient.\n    /// @param _currentDistributionTime The distribution time to calculate the cycle with.\n    /// @dev Gets the current cycle number for the recipient at the specified distribution time.\n    /// @return curCycle the current distribution cycle for this recipient at the specified distribution time.\n\n    function getCurrentCycleNumber(address _recipient, uint256 _currentDistributionTime) public view returns(uint256 curCycle) {\n        uint256 foundCycle = 0;\n\n        distributionTable storage distTable = distributionHashToTableMapping[allocations[_recipient].distributionTableHash];\n\n        // check whether the last cycle has already ended.\n        if (distTable.cyclesArray[distTable.cyclesArray.length - 1].timePeriodEnd < _currentDistributionTime) {\n            return distTable.cyclesArray.length - 1;\n        } else {\n            for (uint256 i = 0; i < distTable.cyclesArray.length; i++) {\n                bool distributionCycleMatches = (distTable.cyclesArray[i].timePeriodStart < _currentDistributionTime &&\n                                                 distTable.cyclesArray[i].timePeriodEnd >= _currentDistributionTime);\n\n                if (distributionCycleMatches == true) {\n                    foundCycle = i;\n                    break;\n                }\n            }\n        }\n\n        return foundCycle;\n    }\n\n    /// @param _recipient The address of the recipient.\n    /// @param _timePeriodStart The start of the time period to calculate.\n    /// @param _timePeriodEnd The end of the time period to calculate.\n    /// @param _percentTokens_fixedPoint The percentage (in 64.64 floating point format).\n    /// @param _prevCyclesPercent The previous cycle's percentage (cumulative for all previous cycles).\n    /// @param _referenceTime The reference time for the calculation.\n    /// @dev An internal function to help calculate the new total to be able to be claimed.\n    /// @return result the new total claimed\n\n    function calculateNewTotal(address _recipient, uint256 _timePeriodStart, uint256 _timePeriodEnd, int128 _percentTokens_fixedPoint, int128 _prevCyclesPercent, uint256 _referenceTime) internal view returns(uint256 result) {\n        int128 curCyclePercent = ABDKMath64x64.divi(int256(((_referenceTime.sub(allocations[_recipient].endCliff).sub(_timePeriodStart)))), int256(_timePeriodEnd.sub(_timePeriodStart)));\n\n        int128 totalPercentOfUsersTokens = ABDKMath64x64.add(_prevCyclesPercent, ABDKMath64x64.mul(_percentTokens_fixedPoint, curCyclePercent));\n\n        uint256 tokensAllocated = allocations[_recipient].totalAllocated;\n\n        if (allocations[_recipient].cutoffEnabled == true) {\n            tokensAllocated = tokensAllocated.sub(allocations[_recipient].cutoffTokenAmount);\n        }\n\n        bytes16 quadFrom64x64TotalPercentOfUsersTokens = ABDKMathQuad.from64x64(totalPercentOfUsersTokens);\n\n        //@note: algo: newTotal = (_recipient's) totalAllocated * (_percentTokens_fixedPoint * (_prevCyclesPercent + curCyclePercent))\n        uint256 newTotalClaimed = ABDKMathQuad.toUInt(ABDKMathQuad.mul(ABDKMathQuad.fromUInt(tokensAllocated), quadFrom64x64TotalPercentOfUsersTokens));\n\n        //the new total claimed\n        return newTotalClaimed;\n    }\n\n    /// @param _recipient The address of the recipient.\n    /// @param _referenceTime The reference time for the calculation.\n    /// @dev Gets the tokens available to be claimed for this recipient.\n    /// @return result\n    ///    | 3 = got tokens claimed\n    ///    | 2 = already claimed all tokens possible thus far (requires more time to pass)\n    ///    | 1 = already claimed all tokens possible\n    ///    | 0 = block timestamp invalid\n    /// @return tokensTransferred the amount of tokens transferred (in total, including previously claimed tokens)\n    /// @return tokensReceived the amount of tokens received (total tokens - previously claimed)\n    /// @return currentCycleNumber the current distribution cycle number for this recipient\n\n    function getTokensAvailable(address _recipient, uint256 _referenceTime) public view returns (uint8 result, uint256 tokensTransferred, uint256 tokensReceived, uint256 currentCycleNumber) {\n        if (_referenceTime > allocations[_recipient].endCliff) {\n            uint256 tokensAllocated = allocations[_recipient].totalAllocated;\n\n            if (allocations[_recipient].cutoffEnabled == true) {\n                tokensAllocated = tokensAllocated.sub(allocations[_recipient].cutoffTokenAmount);\n            }\n\n            if (allocations[_recipient].amountClaimed < tokensAllocated) {\n                uint256 newTotalClaimed;\n                uint256 cycleNumber;\n\n                //check whether the reference time is above the cliff + vest period, if so the calculations are simpler\n                if (_referenceTime > allocations[_recipient].endVesting) {\n                    newTotalClaimed = tokensAllocated.sub(allocations[_recipient].amountClaimed);\n\n                    //it's the last cycle\n                    distributionTable storage distTable = distributionHashToTableMapping[allocations[_recipient].distributionTableHash];\n                    cycleNumber = distTable.cyclesArray.length - 1;\n                } else {\n                    // from start of cliff\n                    cycleNumber = getCurrentCycleNumber(_recipient, _referenceTime.sub(allocations[_recipient].endCliff));\n\n                    //default to zero percent for the first cycle\n                    int128 prevCyclesPercent = 0;\n\n                    distributionCycle storage curCycle = distributionHashToTableMapping[allocations[_recipient].distributionTableHash].cyclesArray[cycleNumber];\n\n                    // integrate the previous total percents if cycleNumber > 0\n                    if (cycleNumber > 0) {\n                        prevCyclesPercent = distributionHashToTableMapping[allocations[_recipient].distributionTableHash].totalPercentAtEndOfCycleArray_fixedPoint[cycleNumber - 1];\n                    }\n\n                    newTotalClaimed = calculateNewTotal(_recipient, curCycle.timePeriodStart, curCycle.timePeriodEnd, curCycle.percentTokens_fixedPoint, prevCyclesPercent, _referenceTime);\n                }\n\n                // check whether the new total to be claimed is higher than the current amount claimed (can occur with cutoffs)\n                if (newTotalClaimed > allocations[_recipient].amountClaimed) {\n                    //got tokens claimed\n                    return (3, newTotalClaimed, newTotalClaimed.sub(allocations[_recipient].amountClaimed), cycleNumber);\n                } else {\n                    //already claimed all tokens possible thus far (requires more time to pass)\n                    return (2, newTotalClaimed, 0, cycleNumber);\n                }\n            } else {\n                //already claimed all tokens possible\n                return (1, 0, 0, 0);\n            }\n        } else {\n            //block timestamp invalid\n            return (0, 0, 0, 0);\n        }\n    }\n\n    /// @param _recipient The address of the recipient.\n    /// @dev Allows a user to claim their allocated tokens. *Any* address can perform the claim on *any* recipient for the purposes of abstracting the gas cost for those recipients (ie an external party can pay for the gas of the claim function, for their client).\n    /// @notice In any case where there has been an attempt to transfer tokens, this function will revert() if there is an error in the sending/claiming process.\n    /// @return success\n    ///    | true = claimed tokens successfully\n    ///    | false = error in sending, or preconditions not met (see \"result\")\n    /// @return result\n    ///    | (any number) = (success) the number of tokens that have been claimed\n    ///    | 3 = (error) already claimed all available tokens from entire vesting period\n    ///    | 2 = (error) block timestamp is lower than cliff\n    ///    | 1 = (error) already claimed all tokens possible thus far (requires more time to pass)\n    ///    | 0 = (error) could not get tokens allocated\n    /// @return timeStamp the current block timestamp\n\n    function claimTokens(address _recipient) public returns (bool success, uint256 result, uint256 timeStamp) {\n        uint256 tokensAllocated = allocations[_recipient].totalAllocated;\n\n        if (allocations[_recipient].cutoffEnabled == true) {\n            tokensAllocated = tokensAllocated.sub(allocations[_recipient].cutoffTokenAmount);\n        }\n\n        if (allocations[_recipient].amountClaimed >= tokensAllocated) {\n            //already claimed all available tokens from entire vesting period\n            return (false, 3, 0);\n        }\n\n        if (block.timestamp < allocations[_recipient].endCliff) {\n            //block timestamp is lower than cliff\n            return (false, 2, 0);\n        }\n\n        require(block.timestamp >= startTime);\n\n        // Calculate new claimed amounts\n        uint256 newTotalClaimed;\n        if (allocations[_recipient].endVesting > block.timestamp) {\n            // get tokens available for distribution (including already allocated ones).\n            (uint8 getTokensResult, uint256 tokensAvailable, , ) = getTokensAvailable(_recipient, block.timestamp);\n\n            if (getTokensResult != 3) {\n                if (getTokensResult == 2) {\n                    //already claimed all tokens possible thus far (requires more time to pass)\n                    return (false, 1, 0);\n                } else {\n                    //could not get tokens allocated\n                    return (false, 0, 0);\n                }\n            } else {\n                newTotalClaimed = tokensAvailable;\n            }\n\n        } else {\n            // Transfer the total amount less previously claimed tokens\n            newTotalClaimed = tokensAllocated;\n        }\n\n        // Amount to be transferred\n        uint256 transferAmount = newTotalClaimed.sub(allocations[_recipient].amountClaimed);\n\n        // Update allocations once transfer completed\n        allocations[_recipient].amountClaimed = newTotalClaimed;\n\n        totalClaimed = totalClaimed.add(transferAmount);\n\n        if (transferTokenMode == true) {\n            IShyftKycContractRegistry kycContractRegistry = IShyftKycContractRegistry(kycContractRegistryAddress);\n\n            //@note: only transfers out to the first contract, which has a balance outstanding of the totality of the\n            // distribution amount.\n\n            IShyftKycContract kycContract = IShyftKycContract(kycContractRegistry.getContractAddressOfVersion(0));\n\n            bool contractTxSuccess = kycContract.transfer(_recipient, transferAmount);\n\n            // need to revert due to transactional logic.\n            if (contractTxSuccess == false) {\n                revert();\n            }\n        } else {\n            // not limiting gas here so you can transfer to contracts etc.\n            (bool nativeTxSuccess, ) = _recipient.call{value: transferAmount}(\"\");\n\n            // need to revert due to transactional logic.\n            if (nativeTxSuccess == false) {\n                revert();\n            }\n        }\n\n        emit EVT_shyftClaimed(_recipient, transferAmount, newTotalClaimed, totalClaimed, block.timestamp);\n\n        //claimed tokens successfully\n        return (true, transferAmount, block.timestamp);\n    }\n\n    /// @param _address The address of the KYC contract registry.\n    /// @dev Sets the KYC contract registry address so that (in the case where this is a token vs native fuel distribution) the claim process can correctly identify the contract it is distributing to.\n    /// @return result\n    ///    | true = set registry contract successfully\n    ///    | false = has already been set, or not the owner\n\n    function setKycContractRegistryAddress(address _address) public returns (bool result) {\n        if (kycContractRegistryAddress == address(0) && msg.sender == owner) {\n            kycContractRegistryAddress = _address;\n\n            //set registry contract successfully\n            return true;\n        } else {\n\n            //has already been set, or not the owner\n            return false;\n        }\n    }\n\n    /// @param _address The address of the Shyft Core token address.\n    /// @dev Sets the Shyft Core token address so that any cutoff tokens are properly allocated back to a Shyft Core wallet.\n    /// @return result\n    ///    | true = set shyft core token address successfully\n    ///    | false = has already been set, or not the owner\n\n    function setShyftCoreTokenAddress(address payable _address) public returns (bool result) {\n        if (shyftCoreTokenAddress == address(0) && msg.sender == owner) {\n            shyftCoreTokenAddress = _address;\n\n            //set shyft core token address successfully\n            return true;\n        } else {\n\n            //has already been set, or not the owner\n            return false;\n        }\n    }\n\n    /// @dev Disables the ability of the Owner (initial deployer) of this contract to set any new allocations. The call can only be completed correctly by the Owner.\n    /// @return result\n    ///    | true = completed disabling new allocations\n    ///    | false = not owner\n\n    function disableSettingNewAllocations() public returns (bool result) {\n        if (msg.sender == owner) {\n            owner = address(0);\n\n            // completed disabling new allocations\n            return true;\n        } else {\n            // not owner\n            return false;\n        }\n    }\n}\n",
  "sourcePath": "/Users/fieldempress/Desktop/source/shyft/shyft_shyftcorecontracts/contracts/TokenDistribution/ShyftKycDistribution.sol",
  "compiler": {
    "name": "solc",
    "version": "0.7.1+commit.f4a555be.Linux.g++"
  },
  "schemaVersion": "3.4.3",
  "updatedAt": "2021-10-07T20:04:13.983Z",
  "devdoc": {
    "details": "| This contract manages the distribution contracts for the Shyft Network. It is built to enable a native-mode or erc20-mode distribution with specific distribution tables (with individual cycles with %'s and times). | For each of the individuals allocated to, they have their own (potentially unique) distribution table, along with a potential cutoff (reduction) & the address which is managing that, as well as total distributed and any cliff/vesting information.",
    "events": {
      "EVT_cutoffTriggered(address,uint256,uint256,uint256,uint256)": {
        "details": "Event for cutoff being triggered."
      },
      "EVT_cutoffTriggeredOverAllocated(address,uint256,uint256,uint256,uint256)": {
        "details": "Event for cutoff being triggered (for the \"over allocated\" case where a user has already withdrawn more tokens than would have been available post-cutoff)."
      },
      "EVT_newAllocation(address,uint256,uint256,uint256,uint256,address,bytes32)": {
        "details": "Event for new allocation created."
      },
      "EVT_shyftClaimed(address,uint256,uint256,uint256,uint256)": {
        "details": "Event for new shyft total claimed. created."
      }
    },
    "kind": "dev",
    "methods": {
      "claimTokens(address)": {
        "details": "Allows a user to claim their allocated tokens. *Any* address can perform the claim on *any* recipient for the purposes of abstracting the gas cost for those recipients (ie an external party can pay for the gas of the claim function, for their client).",
        "params": {
          "_recipient": "The address of the recipient."
        },
        "returns": {
          "result": "   | (any number) = (success) the number of tokens that have been claimed    | 3 = (error) already claimed all available tokens from entire vesting period    | 2 = (error) block timestamp is lower than cliff    | 1 = (error) already claimed all tokens possible thus far (requires more time to pass)    | 0 = (error) could not get tokens allocated",
          "success": "   | true = claimed tokens successfully    | false = error in sending, or preconditions not met (see \"result\")",
          "timeStamp": "the current block timestamp"
        }
      },
      "constructor": {
        "details": "Constructor function - Sets the start time and token transfer mode. False equates to native, True equates to erc20 token transfer mode.",
        "params": {
          "_transferTokenMode": "Whether this contract transfers tokens from the primary shyft kyc contract in the registry."
        }
      },
      "disableSettingNewAllocations()": {
        "details": "Disables the ability of the Owner (initial deployer) of this contract to set any new allocations. The call can only be completed correctly by the Owner.",
        "returns": {
          "result": "   | true = completed disabling new allocations    | false = not owner"
        }
      },
      "getCurrentCycleNumber(address,uint256)": {
        "details": "Gets the current cycle number for the recipient at the specified distribution time.",
        "params": {
          "_currentDistributionTime": "The distribution time to calculate the cycle with.",
          "_recipient": "The address of the recipient."
        },
        "returns": {
          "curCycle": "the current distribution cycle for this recipient at the specified distribution time."
        }
      },
      "getTokensAvailable(address,uint256)": {
        "details": "Gets the tokens available to be claimed for this recipient.",
        "params": {
          "_recipient": "The address of the recipient.",
          "_referenceTime": "The reference time for the calculation."
        },
        "returns": {
          "currentCycleNumber": "the current distribution cycle number for this recipient",
          "result": "   | 3 = got tokens claimed    | 2 = already claimed all tokens possible thus far (requires more time to pass)    | 1 = already claimed all tokens possible    | 0 = block timestamp invalid",
          "tokensReceived": "the amount of tokens received (total tokens - previously claimed)",
          "tokensTransferred": "the amount of tokens transferred (in total, including previously claimed tokens)"
        }
      },
      "setAllocation(address,uint256,uint256,uint256,uint256,address,bytes32)": {
        "details": "Sets the allocation for a specific recipient with cliff, vest, potential reduction if cutoff is triggered, and the distribution table hash. Also blocks recipients from being added twice (referencing the distribution table hash) as an additional precautionary measure.",
        "params": {
          "_cutoffAdminAddress": "The address of the actor responsible for performing the cutoff (reduction) of the token allocation.",
          "_cutoffTokenAmount": "The amount of tokens that can be reduced from this allocation if triggered by the cutoff address.",
          "_distributionTableHash": "The hash of the distribution table that this allocation follows.",
          "_endCliffDays": "The end of the cliff (in days).",
          "_endVestingDays": "The end of the vesting (in days).",
          "_recipient": "The address of the recipient.",
          "_totalAllocated": "The total tokens allocated."
        },
        "returns": {
          "result": "should be \"1\" if all is processed successfully."
        }
      },
      "setKycContractRegistryAddress(address)": {
        "details": "Sets the KYC contract registry address so that (in the case where this is a token vs native fuel distribution) the claim process can correctly identify the contract it is distributing to.",
        "params": {
          "_address": "The address of the KYC contract registry."
        },
        "returns": {
          "result": "   | true = set registry contract successfully    | false = has already been set, or not the owner"
        }
      },
      "setShyftCoreTokenAddress(address)": {
        "details": "Sets the Shyft Core token address so that any cutoff tokens are properly allocated back to a Shyft Core wallet.",
        "params": {
          "_address": "The address of the Shyft Core token address."
        },
        "returns": {
          "result": "   | true = set shyft core token address successfully    | false = has already been set, or not the owner"
        }
      },
      "setupDistributionTable(string,uint256,(uint256,uint256,uint256,int128)[],uint256[])": {
        "details": "Sets up a new distribution table with cycles and the total percentages of each cycle.",
        "params": {
          "_cycles": "An array of \"distributionCycle\"-formatted cycles.",
          "_distributionTableName": "The name of this distribution table.",
          "_totalPercentAtEndOfCycles_18DecimalPrecision": "An array of the total percentage of distribution at the end of the cycles (cumulative).",
          "_vestEndSeconds": "When the vest ends in seconds."
        },
        "returns": {
          "result": "   | [uint256] = (success) distribution table keccak hash for further reference (in uint256 format)    | 9 = (error) time period does not start immediately    | 8 = (error) time period didn't start as the previous ended    | 7 = (error) time period is higher than full vesting days    | 6 = (error) time period does not end on the full vesting day    | 5 = (error) allocation cycle does not equal 100%    | 4 = (error) allocation cycle has zero percentage    | 3 = (error) allocation cycles do not match    | 2 = (error) distribution table already exists    | 1 = (error) lengths of inputs do not match    | 0 = (error) not owner",
          "success": "   | true = set new distribution table    | false = error in distribution table"
        }
      },
      "triggerCutoff(address)": {
        "details": "| Triggers the cutoff (reduction in allocation) for this recipient. This must be called by the address that has been specified previously to be the administrator for this recipient. If there are any tokens remaining from the distribution (total-cutoff) those are returned to the Shyft Core pool.      | The algorithm is: \"remaining = (total - cutoff) - withdrawn\", as long as \"withdrawn\" is lower than the newly cutoff allocation, otherwise it'll return how many tokens are over-allocated.",
        "params": {
          "_recipient": "The address of the recipient."
        },
        "returns": {
          "distributionFound": "if triggered, will return the remaining distribution",
          "result": "   | 3 = set the cutoff for this recipient, still has distribution    | 2 = set the cutoff for this recipient, was over already over-allocated    | 1 = cutoff already triggered    | 0 = not the cutoff admin address designated for this recipient"
        }
      }
    },
    "stateVariables": {
      "INITIAL_SUPPLY": {
        "details": "The initial supply. Needs to be hardcoded for launch."
      },
      "allocations": {
        "details": "Mapping for address to allocations."
      },
      "decimalFactor": {
        "details": "The decimal factor for calculations (saves gas if it's pre-set here)."
      },
      "distributionHashToTableMapping": {
        "details": "Mapping for keccak hash to distribution table."
      },
      "kycContractRegistryAddress": {
        "details": "The kyc contract registry address for erc20 token transfer mode."
      },
      "owner": {
        "details": "The owner of this contract."
      },
      "shyftCoreTokenAddress": {
        "details": "Address for the any of the cutoff tokens to be transferred to."
      },
      "startTime": {
        "details": "The start time for this distribution contract."
      },
      "totalClaimed": {
        "details": "The total amount of tokens claimed."
      },
      "transferTokenMode": {
        "details": "Whether this distribution contract is outputting to the Shyft KYC Contract token address."
      }
    },
    "version": 1
  },
  "userdoc": {
    "kind": "user",
    "methods": {
      "claimTokens(address)": {
        "notice": "In any case where there has been an attempt to transfer tokens, this function will revert() if there is an error in the sending/claiming process."
      }
    },
    "notice": "|  This function should be disabled before launch, but for testing purposes there is a requirement to be able to receive native fuel, so this is done in the most strict mode possible, by checking ownership before value transfer can occur. |  receive() external payable { |      if (msg.sender != owner) { |          revert(); |      } |  } | | As such, the grunt setup file ('root'/Gruntfile.js) performs some operations to mirror this file to 'root'/Tests/ShyftKycDistribution_OutputForTestCompatibility.sol whenever any \"test\" related Grunt command is executed.",
    "version": 1
  }
}